:020000040800F2
:10000000F8090020010100085D360008252B0008D2
:1000100095350008710C0008CD3B00080000000079
:10002000000000000000000000000000813800080F
:10003000730C0008000000005138000883380008E5
:100040001B0100081B0100081B0100081B01000820
:100050001B0100081B0100081B0100081B01000810
:100060001B0100081B0100081B0100081B01000800
:100070001B0100081B0100081B0100081B010008F0
:100080001B0100081B0100081B0100081B010008E0
:100090001B0100081B0100081B0100089B0C000845
:1000A0001B010008013900081B0100081B010008A2
:1000B0001B0100080D3900081B0100081B01000886
:1000C0001B0100081B0100081B0100081B010008A0
:1000D0001B0100081B010008893B00081B010008E8
:1000E000750C00081B0100081B010008DFF80CD08C
:1000F00000F0DCFB00480047C94E0008F80900206A
:100100000648804706480047FEE7FEE7FEE7FEE7B1
:10011000FEE7FEE7FEE7FEE7FEE7FEE7FD38000844
:10012000ED000008202A04DB203A21FA02F0002129
:10013000704721FA02F3D040C2F1200291400843F7
:100140001946704740EA01039B0703D009E008C93C
:10015000121F08C0042AFAD203E011F8013B00F88C
:10016000013B521EF9D27047D2B201E000F8012BD8
:10017000491EFBD270470022F6E710B513460A4627
:1001800004461946FFF7F0FF204610BD80EA010241
:1001900010B502F00043400022D04A001FD0010EEB
:1001A00001EB1261C0F35600C2F3560240F40000A6
:1001B00042F40002A0FB022000047F39140400D0A6
:1001C000401C50EA124001D44000491EC2B20C0645
:1001D00004EBD010401C4008802A02D003E000202D
:1001E00010BD20F00100002900DA0020184310BDE6
:1001F00030B480EA010202F0004530F0004221F004
:10020000004013D090B1C30DD40DC2F31601C0F35A
:100210001600E41A41F4000140F400027D349142DA
:1002200001D3641C00E04900002C02DA30BC00203D
:1002300070474FF400000023914201D3891A034311
:1002400040084FEA4101F7D151B1914202D14FF03C
:10025000004105E002D24FF0010101E06FF0010121
:1002600003EBC450284430BC00F05CBA2DE9FE4FCB
:10027000804681EA0300C00F0C46009021F0004147
:1002800023F00045B8EB0200A94105D240462146C3
:1002900090461C460B46024623F00040104347D0D0
:1002A000270DC7F30A00C3F30A510290401A0190C8
:1002B00040286BDAC3F3130040F4801B0098924689
:1002C00020B10023D2EB030A63EB0B0B01985946D4
:1002D000C0F14002504600F004FA06460D46504672
:1002E0005946019A00F00CFA10EB08006141002415
:1002F00087EA115284EAE7731A4340D0009A62B346
:10030000019A012A4FEA075215DC001B61EB02013A
:100310004FF0004202EA0752CDE90042001C41F5CD
:10032000801132462B4600F043FA03B0BDE8F08F4F
:1003300040462146F9E7001B61EB0201001C41F534
:10034000801300185B412018A2F5001747EB03014A
:1003500040EAD570B6196D4111E06D084FEA3606D6
:1003600045EAC0754FEA0752001B61EB0201001C11
:1003700041F5801149084FEA3000001951413246D9
:100380002B4603B0BDE8F04F00F003BA00980122FD
:1003900040000023D0EB020263EBE073009821469B
:1003A0004FEAE074B8EB000061EB0401E9E783F089
:1003B00000435BE781F0004158E72DE9FE4F81EAF9
:1003C000030404F0004421F0004100944FF0000BBE
:1003D00023F0004350EA01045ED052EA03045BD0EC
:1003E000C3F30A54C1F30A552C44A4F2F334019424
:1003F000A0FB0254C1F3130141F48011C3F31303B2
:1004000043F4801301FB024400FB034E840A970A65
:1004100044EA815447EA8357A4FB076802958D0A92
:1004200005FB07854FEA932C04FB0C542705029D1E
:100430004FEA065847EA1637B5EB08056EEB070C8E
:10044000870E920E47EA811742EA8312A7FB020148
:10045000B6EB0B0164EB00042B0D43EA0C335E1882
:1004600044EB1C50DA465146E7FB0201C5F3130486
:100470004FEA0B3343EA14534FEA0432019C43EA38
:100480000603A4F10C040294009CCDE900B400F032
:100490008FF903B0BDE8F08F00200146F9E72DE9A0
:1004A000F04D81EA030404F0004B21F000451446AE
:1004B0004FF0000A23F0004150EA050220D054EA30
:1004C00001021DD0C5F30A570246C5F31303C1F359
:1004D0001300C1F30A5640F4801543F48013A7EBD0
:1004E0000608101BD64608F2FD3873EB050002D350
:1004F00008F1010801E092185B41B8F1000F03DA3E
:1005000000200146BDE8F08D00204FF48011064622
:1005100084460EE0171B73EB050705D3121B63EB34
:10052000050306434CEA010C49084FEA30009218D3
:100530005B4150EA0107EDD152EA030012D082EA92
:10054000040083EA0501084305D0101BAB4106D225
:100550000122002306E000224FF0004302E06FF08A
:10056000010253101AEB06004CEB085110EB0A0085
:1005700041EB0B01BDE8F04D00F00BB970B521F077
:10058000004303430CD0C1F30A550024D5EB040506
:1005900064EB0403D617AD1AB34102DB0020014619
:1005A00070BD201841EB025170BD96230022114608
:1005B00000F0C1B80EB540F2334102910021CDE9FF
:1005C00000110A460B4600F0F3F803B000BD20F01E
:1005D0000040C10DC0F3160040F400007F2901DA8D
:1005E00000207047962903DCC1F19601C84070478E
:1005F00096398840704700F0004230F000400AD041
:10060000C10D01F56071C0F3160042EA0151C20844
:1006100040071143704700200146704701F0004336
:1006200030B421F0004150EA010206D00A0DA2F5D3
:100630006072C1F31301002A02DC30BC0020704755
:10064000440F44EAC104C100E01830BC00EBC250C2
:1006500000F068B830B50B46014600202022012486
:1006600009E021FA02F59D4205D303FA02F5491B80
:1006700004FA02F52844151EA2F10102F1DC30BD96
:100680002DE9F05F0546002092469B4688460646C7
:10069000814640241BE02846414647462246FFF754
:1006A00041FD53465A46C01A914110D3114618468F
:1006B000224600F016F82D1A67EB01084F46224635
:1006C0000120002100F00DF817EB00094E41201E1B
:1006D000A4F10104DFDC484631462A464346BDE822
:1006E000F09F202A04DB203A00FA02F10020704734
:1006F0009140C2F1200320FA03F319439040704760
:10070000202A06DBCB17203A41FA02F043EAE073D5
:1007100006E041FA02F3D040C2F1200291400843C2
:10072000194670470029A8BF7047401C490008BF00
:1007300020F00100704710B4B0FA80FC00FA0CF011
:1007400050EA010404BF10BC704749B1CCF1200449
:1007500021FA04F411FA0CF118BF012121430843D6
:10076000A3EB0C01CB1D4FEA00614FEA102042BF02
:10077000002010BC704700EBC35010440029A4BFF8
:1007800010BC7047401C490008BF20F0010010BC9D
:10079000704710B5141E73F1000408DA401C41F1D3
:1007A000000192185B411A4301D120F0010010BDF5
:1007B0002DE9F04D92469B4611B1B1FA81F202E06B
:1007C000B0FA80F220329046FFF78BFF04460F46C6
:1007D00040EA0A0041EA0B0153465A46084313D047
:1007E000114653EA010019D0C8F140025046FFF704
:1007F00099FC05460E46504659464246FFF771FFA2
:10080000084305D0012004E020463946BDE8F08DBC
:100810000020054346EAE0762C4337430A986305F7
:10082000E40AA0EB08000022FD0A44EA47540A301B
:1008300002D500200146E9E7010510196941DDE90B
:10084000084500196941BDE8F04DA2E7C1F30A521D
:10085000C1F3130140F2FF3341F480119A4202DAEE
:1008600000200146704740F233439A42A2F23342DD
:1008700002DC5242FFF756BCFFF733BF30B5041E0F
:1008800071F1000404DB4FF00044404264EB0101CD
:10089000141E73F1000405DB1C464FF00043524266
:1008A00063EB0403994208BF904230BD064C074DEC
:1008B00006E0E06840F0010394E807009847103430
:1008C000AC42F6D3FFF716FC7C5E00089C5E000885
:1008D00070B5044600688168C943C90717D18168AB
:1008E00021F00101816000F0CFFD05460AE000BF64
:1008F00000F0CAFD401B022804D920688068C0436C
:10090000C00706D020688068C043C007F0D0002030
:1009100070BDA06A40F01000A062E06A40F00100E3
:10092000E062012070BD0000F8B500260446009684
:1009300000688168C943C9072DD0816841F0010171
:100940008160164816490068B0FBF1F000E0401ED7
:1009500000900028FBD100F097FD054616E000BF8F
:1009600000F092FD401B022810D920688068C04327
:10097000C0070BD0A06A40F01000A062E06A40F00F
:100980000100E06284F824600120F8BD20688068DE
:10099000C043C007E4D10020F8BD000000010020E2
:1009A00040420F002DE9FE4F012607270096002543
:1009B00069463D48CDE9016700F0E8F908B100F06B
:1009C00076F90024384800F0BBFB6421364800F07B
:1009D00019FB18B9344800F057FA0544641CE4B216
:1009E0000A2CEFD30A24B5FBF4F0FFF7E3FDDFF8A0
:1009F000BCA04FF066394A465346FFF7DEFCDFF8ED
:100A0000B0B000225B46FFF74AFDFFF707FE294919
:100A1000FFF7BCFBFFF7DBFDDFF89C800025694694
:100A2000A8F80C0010208DE8C1001F4800F0AEF9B6
:100A300008B100F03CF900264FF47A771A4800F02C
:100A40007FFB3946184800F0DDFA18B9164800F067
:100A50001BFA0544761CF6B20A2EEFD3B5FBF4F070
:100A6000FFF7A8FD4A465346FFF7A7FC00225B4666
:100A7000FFF715FD114A124BFFF79CFC114A124B70
:100A8000FFF70DFD0022114BFFF7F0FBFFF7C6FD4E
:100A90000849FFF77BFBFFF79AFDA8F80E003846E0
:100AA00000F0AEFBBDE8FE8F0801002066660A403C
:100AB00000FEAF400000C842CC050020E17A14AE31
:100AC00047E1F63F22FDF675E09C713F000039409A
:100AD0001CB5BE208DF8040008208DF8050000200C
:100AE0008DF806004FF6FF700090032301AA7021D5
:100AF000014800F0BBFE1CBD380300201CB52820B7
:100B000000F07EFBBE208DF8040008208DF8050063
:100B100000208DF806004FF6FF700090032301AA15
:100B20007021054800F0A2FE00F092F8000701D401
:100B3000FFF7CEFF1CBD000038030020F0B585B0E4
:100B400000208DF800008DF800008DF800008DF871
:100B500000008DF800008DF80000AC218DF80C101D
:100B600033218DF80D1004468DF80E004FF6FF75F9
:100B7000032303AA70213048009500F077FE50202F
:100B800000F03EFB07E0012000F03AFB2046641C29
:100B9000A4B2642803D200F05BF80006F3D4062365
:100BA00001AA70212448009500F038FD9DF8050049
:100BB0009DF806109DF8074041EA002144EA012013
:100BC0000009FFF7F7FC00221C4BFFF7F6FB6FF064
:100BD00009073A46FFF7D2FC3A46FFF7CFFCFFF78A
:100BE0001DFD174E054630609DF808109DF8090060
:100BF00041EA042140EA0120C0F31300FFF7DAFCC8
:100C00000022104BFFF7D9FB3A46FFF7B7FC3A46F4
:100C1000FFF7B4FC00220C4BFFF7C9FBFFF7FEFC0B
:100C20007060FFF7D4FC094C60802846FFF7CFFCCA
:100C3000A08005B0F0BD000038030020000059403E
:100C4000000000200000694000004940CC05002061
:100C50001CB54FF6FF700090012301AA70210348D4
:100C600000F0DCFC9DF804001CBD000038030020EF
:100C7000FEE7704710B54FF4805000F003FB4FF4CF
:100C8000005000F0FFFA4FF4804000F0FBFABDE89E
:100C900010404FF4004000F0F5BA10B5202000F0ED
:100CA000F1FABDE810404FF4807000F0EBBA72B674
:100CB000FEE70000F8B500250446009590F82400F2
:100CC00001280BD0012084F824002046FFF700FE05
:100CD0002046FFF729FE060002D050E00220F8BDB2
:100CE000A06A20F4885040F00200A062022001F0C7
:100CF00005F925490968B1FBF0F0400000E0401E0D
:100D000000900028FBD12068816841F008018160D3
:100D100000F0BAFB074608E000F0B6FBC01B0A284B
:100D200003D920688068000715D420688068000710
:100D3000F2D42068816841F00401816000F0A4FBD6
:100D4000074612E000F0A0FBC01B0A280DD920685E
:100D50008068400709D5A06A20F0020040F010002A
:100D6000A06284F824500120F8BD20688068400704
:100D7000E8D4A06A20F0020040F00100A06284F8EC
:100D800024503046F8BD000000010020F8B50024D2
:100D9000009490F824202546012A12D0012280F8E0
:100DA00024204A681F23072A0DD20668776B521E3B
:100DB00002EB820293409F430B6893401F4377638B
:100DC00019E00220F8BD06680D2A0AD2376BD21F3F
:100DD00002EB820293409F430B6893401F433763AB
:100DE00009E0F76A0D3A02EB820293409F430B68D9
:100DF00093401F43F7620A68072306680A2A0AD34A
:100E0000F7680A3A02EB420293409F438B68934093
:100E10001F43F76008E0376902EB420293409F43AB
:100E20008B6893401F4337610A68102A01D0112A4A
:100E300020D1124B02689A4217D193681B0219D431
:100E4000936843F4000393600968102912D10C4998
:100E50000C4A0968B1FBF2F101EB8101490000E0A5
:100E6000491E00910029FBD104E0816A41F0200174
:100E70008162012480F824502046F8BD00240140FE
:100E80000001002040420F000068C06C7047000065
:100E90002DE9F0414FF0000704003D467ED0A06AE6
:100EA000002628B9E66284F82460204600F07EF827
:100EB0002046FFF70DFDA16AC90600D420B1A06A43
:100EC00040F01000A06269E0A16A21F4885141F06D
:100ED0000201A1626268E169237B0A4347EA430198
:100EE0000A43A1684FF48077B94209D0012907D09D
:100EF0005FF0000194F814C0BCF1010F02D00AE0C9
:100F00003946F7E7F3B1A36A43F02003A362E36A2B
:100F100043F00103E3622368D3F804C02CF4694C66
:100F20004CEA010CC3F804C021688B68DFF870C07C
:100F300003EA0C0313438B60A168B9420BD001296B
:100F400009D00CE0DFF85CC0A3690CEB43330B4322
:100F500043F40061DFE7218A0D05A5F580152168BE
:100F6000CB6A23F470032B43CB62216889680E4B54
:100F70001940914208D1E662A16A21F0020141F0D4
:100F80000101A162BDE8F081A06A20F0020040F0FA
:100F90001000A062E06A40F00100E0620120F1E789
:100FA000FDF7E1FF00E0FFFFFE0E1FFF00B585B07B
:100FB0000021009101910291039100680E4988423D
:100FC00018D10E48816941F400718161816901F491
:100FD00000710491816941F0040181618069694671
:100FE00000F00400049002200090032001900448C7
:100FF00000F054F905B000BD00240140001002408B
:10100000000801402DE9F84300270D4604460097EB
:1010100000F03AFA804620688168C90508D5A06AC0
:1010200040F02000A06284F824700120BDE8F8831D
:101030004168C90503D4C06A10F4700F2AD0022099
:1010400000F05CFF3B490968B1FBF0F620680369DA
:1010500039490B424FEA61014FEAA1121FD1C3681F
:101060004FEA611C13EA0C0F19D103690B4225D119
:10107000C068104222D1142023E0681C0AD02DB190
:1010800000F002FAA0EB0800A84203D9206800682B
:10109000800725D5206800688007EED52DE003691C
:1010A0000B4202D1C168114206D0026923490A42AB
:1010B00006D1C068084203D1542002E0292000E094
:1010C000FC204643009816E0681C11D02DB100F0BA
:1010D000DBF9A0EB0800A8420AD90098B04207D279
:1010E000A06A40F00400A06284F8247003209DE709
:1010F0000098401C0090B042E6D321686FF01200C7
:101100000860A06A40F40070A06220688068C0F3A4
:10111000424007280CD1207B50B9A06A20F480708F
:10112000A062A06AC00403D4A06A40F00100A062DB
:1011300000207BE7000100202449922449922400EA
:1011400070B5044690F8240001280DD0012084F8E1
:1011500024002046FFF7E8FB02004FF0000005D016
:1011600084F82400104670BD022070BDA16A40F2D0
:101170000123994341F48071A1621F4D23681F49E7
:10118000AB4218D10E6816F4702F14D0A66A46F43C
:101190008016A6620E68760505D5A66A26F4005666
:1011A00046F48056A662A66AF6040AD5E66A26F0D8
:1011B0000606E66206E0A66A26F48016A6625E6867
:1011C000E9E7E06284F824006FF00200186020680C
:1011D0008368C3F34243072B05D1A84208D10968AD
:1011E00011F4702F04D0816841F480118160B9E757
:1011F000816841F4A001F9E700280140042401407E
:1012000070B5044600F040F90546601C02D0044861
:101210000078044400F038F9401BA042FAD370BDB6
:10122000F4000020144910B50B68144A14681B1B05
:10123000C82B19D3096811601149B0F5005F0FD0B0
:10124000B0F5804F0ED020280FD0B0F5004F0ED053
:10125000B0F5805F0DD0B0F5807F05D1062002E0AB
:10126000012000E00220087010BD0320FBE70420ED
:10127000F9E70520F7E70000FC0000200C00002043
:101280000B000020044910B50A68024202D0086031
:10129000FFF7C8FF10BD0000140401402DE9F84F0E
:1012A000DFF8B8910024A9F1040B23460F2709F1B8
:1012B000040AABF1040EC9E00125A5402A40AA4268
:1012C0007DD1674ED1F804C0ACEB0608B44532D0EE
:1012D00014DCBCF1030F3AD009DCBCF1000F2AD0BA
:1012E000BCF1010F1CD0BCF1020F31D11DE0BCF1EB
:1012F000110F17D0BCF1120F2AD119E0B8F5881FD1
:1013000019D006DCB8F5803F15D0B8F5801F1FD185
:1013100011E0B8F5001F0ED0B8F5041F18D10AE08F
:10132000CB6815E0CB681B1D12E0CB6808330FE0DB
:10133000CB680C330CE08B682BB1012B4FF008030A
:1013400003D0456104E0042302E0056100E00023CE
:10135000FF2A01D8064601E000F104064FEA8405A1
:1013600001D9A5F12005D6F8008007FA05FC28EA86
:101370000C0803FA05F548EA0508C6F800804D6830
:10138000ED0062D5374DAE6946F00106AE61AD693C
:1013900024F0030605F001050095334D06EB050C1E
:1013A000DCF80850A607360F07FA06F825EA080504
:1013B000DFF8B880404503D14FF0000817E044E063
:1013C000DFF8AC80404502D14FF001080FE0DFF8B4
:1013D000A480404502D14FF0020808E0DFF8988071
:1013E000404502D14FF0030801E04FF0040808FA2D
:1013F00006F848EA0508CCF808804D68D9F800607E
:10140000ED024D4601D5164300E096432E604D682F
:10141000DAF80060AD02554601D5164300E0964368
:101420002E604D68DBF80060AD035D4601D51643C4
:1014300000E096432E604D68DEF80060ED037546CF
:1014400001D5164300E096432E60641C0D682A46C1
:10145000E5407FF431AFBDE8F88F0000080401409B
:10146000000011100010024000000140000801407F
:10147000000C014000100140001401400AB101615C
:1014800070470904FBE700000148806870470000CE
:10149000F400002070B5040025D094F83D0000252C
:1014A00020B984F83C50204600F03CFC242084F80D
:1014B0003D002068016821F0010101602068016899
:1014C00041F4004101602068016821F4004101609D
:1014D00000F092FE4D4A6168914201D84C4900E00B
:1014E0004C49884201D2012070BD4B492368B0FBB2
:1014F000F1F15E6826F03F060E435E60636893423A
:1015000006D94FF4967359434FF47A73B1FBF3F154
:101510002368491C1E6A26F03F0631431962616840
:10152000914210D84900401EB0FBF1F2521CC2F3A8
:101530000B02042A01D2042022E0B0FBF1F0401C8F
:10154000C0F30B001CE0A268F2B301EBC10303EB94
:101550000116431EB3FBF6F35B1C43F480431B05EB
:1015600049D092B301EBC10202EB0111401EB0FB66
:10157000F1F0401CC0F30B0040F4804040F4004008
:101580002168CA694CF6FF739A431043C861D4E9D5
:10159000071001432068026822F0C0021143016075
:1015A000D4E9030101432068826848F2FF339A437B
:1015B00011438160D4E9050108432168CA6822F01B
:1015C000FF021043C86001E00EE016E020680168E9
:1015D00041F0010101602564202084F83D0025636D
:1015E00084F83E50002070BD01EB4106431EB3FB62
:1015F000F6F35B1CB3E70120C2E701EB4101401E9B
:10160000B0FBF1F0401CC0F30B00B7E7A08601006F
:1016100080841E0000093D0040420F002DE9F84F74
:101620000025DDF82890984617468A46044600951E
:10163000FFF72AFF064694F83D0020287AD11923A7
:10164000012286492046009601F046FC0028F5D18B
:1016500094F83C0001286DD0012084F83C002068FB
:101660000168C90703D1016841F0010101602068E8
:10167000016821F400610160222084F83D001020FF
:1016800084F83E0025646762A4F82A80608D208576
:101690007348E06233464A465146204601F05AFA02
:1016A00000287CD1208DDFF8BC81202768B101287B
:1016B00014D00228206801681ED041F480610160C6
:1016C0002068416980690090BBE0206841698169B8
:1016D0000091016841F400710160B2E02068016886
:1016E00021F48061016072B62068416981690091CE
:1016F000016841F400710AE041F40061016072B6D2
:101700002068416981690091016821F4806101606C
:1017100062B696E0032865D801280CD002284B4613
:101720004FF000024146204600960BD001F0D4FB5A
:10173000A8BB0CE090E032464946204601F072FC1E
:1017400068BB71E001F0C8FB48BB72B633E02068AB
:10175000016821F48061016072B620680069616AE5
:101760000870606A401C6062208D401E2085608D7C
:10177000401E60853C4846F2A8110068B0FBF1F0BD
:10178000C0EBC00000EB80000090401E009007D02E
:1017900020684069C04340070DD50098F5E727E071
:1017A00044F8305F6773A573206940F02000206122
:1017B00062B625731CE02068016841F40071016085
:1017C00020680069616A0870606A401C6062218D4F
:1017D000491E2185618D491E618562B621680969AE
:1017E000017025E032464946204601F01BFC10B14D
:1017F0000120BDE8F88F20680069616A0870606A9E
:10180000401C6062208D401E81B22185608D401E8B
:10181000608520684269D243520712D4032903D15C
:10182000016821F48061016020680069616A0870C4
:10183000606A401C6062208D401E2085608D401EC5
:101840006085208D00287FF465AF84F83D7084F8B2
:101850003E5084F83C50CCE70220CAE7020010005A
:101860000000FFFF04000100000100202DE9F84FF7
:101870001F4690468A460446DDF82890FFF704FE8E
:10188000054694F83D0020287FD1192301224049C4
:101890002046009501F020FB002876D194F83C000A
:1018A000012872D0012084F83C0020680168C90733
:1018B00003D1016841F0010101602068016821F451
:1018C00000610160212084F83D00102084F83E0072
:1018D00000262664C4F824806785608D20852D4805
:1018E000E0622B464A465146204601F0A9F990B9DC
:1018F000206841698069009036E02A4649462046C2
:1019000001F0C8FB50B1206C042804D120680168A4
:1019100041F4007101600120BDE8F88F606A216820
:1019200000780861606A401C6062618D491E6185B3
:10193000218D491E89B2218522685369DB435B07EB
:101940000BD451B100781061606A401C6062608DF8
:10195000401E6085208D401E20852A46494620462F
:1019600001F08EFA0028CED1208D0028C5D154F880
:101970003D0B016841F400710160202004F81E094C
:10198000E67766770020C7E7FFE70220C4E700009C
:10199000020010000000FFFF2DE9FF4F83B000257B
:1019A000DDE910799A4693460446DDF848800095B3
:1019B000FFF76AFD064694F83D0020287CD11923E4
:1019C000012288492046009601F086FA0028F5D1C8
:1019D00094F83C0001286FD0012084F83C00206876
:1019E0000168C90703D1016841F001010160206865
:1019F000016821F400610160222084F83D0040204C
:101A000084F83E0025646762A4F82A90608D2085E2
:101A10007548E062CDE9008653465A46204604994F
:101A200001F05CF900287CD1208DDFF8C0912027DF
:101A300068B1012814D00228206801681ED041F442
:101A4000806101602068416980690090BCE0206885
:101A5000416981690091016841F400710160B3E05E
:101A60002068016821F48061016072B620684169D4
:101A700081690091016841F400710AE041F400615C
:101A8000016072B62068416981690091016821F4A2
:101A90008061016062B697E0032865D801280CD008
:101AA000022843464FF000024946204600960BD0DC
:101AB00001F012FAA8BB0CE091E032464146204604
:101AC00001F0B0FA68BB72E001F006FA48BB72B6EA
:101AD00033E02068016821F48061016072B62068FB
:101AE0000069616A0870606A401C6062208D401E57
:101AF0002085608D401E60853D4846F2A811006833
:101B0000B0FBF1F0C0EBC00000EB80000090401E85
:101B1000009007D020684069C04340070DD5009869
:101B2000F5E727E044F8305F6773A573206940F05C
:101B30002000206162B625731CE02068016841F432
:101B40000071016020680069616A0870606A401C69
:101B50006062218D491E2185618D491E618562B6B5
:101B600021680969017026E032464146204601F0AD
:101B700059FA18B1012007B0BDE8F08F206800695C
:101B8000616A0870606A401C6062208D401E81B2EC
:101B90002185608D401E608520684269D2435207CE
:101BA00012D4032903D1016821F480610160206807
:101BB0000069616A0870606A401C6062208D401E86
:101BC0002085608D401E6085208D00287FF464AFE5
:101BD00084F83D7084F83E5084F83C50CBE70220F6
:101BE000C9E70000020010000000FFFF0400010030
:101BF000000100202DE9FF4F83B09A46DDE91197DF
:101C000093460446DDF84080FFF73EFC054694F815
:101C10003D0020287FD1192301224049204600950C
:101C200001F05AF9002876D194F83C00012872D0CE
:101C3000012084F83C0020680168C90703D10168CD
:101C400041F0010101602068016821F40061016038
:101C5000212084F83D00402084F83E0000262664C0
:101C6000C4F82480A4F82A90608D20852C48E06276
:101C7000CDE9007553465A462046049901F0ACF868
:101C800070B930E02A463946204601F003FA58B1CF
:101C9000206C042804D12068016841F400710160BF
:101CA000012007B0BDE8F08F606A21680078086104
:101CB000606A401C6062218D491E89B22185628D57
:101CC000521E628522685369DB435B070BD469B1FE
:101CD00000781061606A401C6062208D401E208583
:101CE000608D401E6085208D0028CBD12A46394664
:101CF000204601F0C5F80028CAD154F83D0B016810
:101D000041F400710160202004F81E09E67766772F
:101D10000020C6E7FFE70220C3E700000200100032
:101D20000000FFFF10B586B00021009101910291E3
:101D3000039100680F4988421AD10F4CA06940F006
:101D40000800A061A069694600F008000490C02066
:101D5000009012200190032003900848FFF79EFA9C
:101D6000E06940F40010E061E06900F400100490C4
:101D700006B010BD0054004000100240000C0140AD
:101D8000024881680278114481607047F4000020A5
:101D9000074810B5016841F010010160032000F010
:101DA0009BF80F2000F006F800F04AF8002010BD64
:101DB0000020024030B505461C4887B0816941F4D7
:101DC00000618161806906A900F40060009001A8AB
:101DD00000F0F2F900F020FA1549164AB0FBF1F1D3
:101DE0001548491E0260416040F2E7320021C0E917
:101DF00003218160816100F00BFC040012D10E48C8
:101E000000F052FC04000DD1192000F037F8102D1D
:101E100007D200222946192000F03EF80748056045
:101E200000E0012407B0204630BD00000010024051
:101E300040420F00002C014064040020F800002004
:101E40000C4808B5816941F001018161816901F0A7
:101E500001010091C16941F08051C161C06900F088
:101E6000805000900448416821F0E06141F0007129
:101E7000416008BD0010024000000140002809DB5D
:101E800000F01F02012191404009800000F1E02094
:101E9000C0F8001170470000F0B40E4B1B680C46F0
:101EA000C3F30223C3F10705042D00D90425191D2E
:101EB000072901D2002300E0DB1E012606FA05F106
:101EC000491E214099409E40761E16403143F0BC89
:101ED00001F0C6BE0CED00E0064900F007020868FC
:101EE0004FF6FF03184040EA0220034A10430860FF
:101EF000704700000CED00E00000FA0510B5014647
:101F00000020234C012922D0022939D010291DD1CB
:101F100061682268D20119D51E48C1F38342C90302
:101F2000805C0AD561681B4AC1F34041921E515C36
:101F3000194AB2FBF1F1484301E01849484361688E
:101F4000490203D440000321B0FBF1F010BD226A26
:101F5000C2F30121012903D1920701D5C80310BDA5
:101F6000022905D1626A920702D549F6404010BDA8
:101F70000329FCD121688903F9D54FF2244010BD13
:101F800000F04AF96168C1F38131491C4900DBE77F
:101F900000100240545E000800127A0000093D0063
:101FA0002DE9F84305460078354CC00754D0E06968
:101FB0000026C00008D4E06940F08050E061E0698C
:101FC000012600F0805000902E480168C90512D407
:101FD0000168804641F480710160FFF755FA0746B9
:101FE00005E000BFFFF750FAC01B642823D8D8F8DB
:101FF0000000C005F6D5206A10F4407021D0A988F1
:1020000001F4407181421CD0206A1F49012220F452
:1020100040700A6000220A602062C00711D0FFF7FA
:1020200033FA074641F2883808E000BFFFF72CFA80
:10203000C11B414502D90320BDE8F883206A80070F
:10204000F4D5206A696820F44070084320621EB10C
:10205000E06920F08050E0612878800705D560684D
:10206000A96820F44040084360602878C00605D580
:102070006068E96820F48000084360600020DBE7C6
:102080000010024000700040400442422DE9F04739
:102090000F46050061D0434E306800F00700B8429B
:1020A00009D2306820F0070038433060306800F013
:1020B0000700B84251D128683B4C810712D5400730
:1020C00003D5606840F4E06060602878000703D5BD
:1020D000606840F4605060606068A96820F0F000BB
:1020E000084360602878C00728D06868012810D0AD
:1020F0002168022810D0890700292EDA616821F0B2
:10210000030101436160FFF7BFF9804641F288395E
:102110000DE021688903EFE78901EDE7FFF7B4F9E6
:10212000A0EB0801494502D90320BDE8F0876068AB
:10213000696800F00C00B0EB810FEFD1306800F05F
:102140000700B8420BD9306820F0070038433060F0
:10215000306800F00700B84201D00120E5E7287898
:10216000400705D56068E96820F4E06008436060D6
:102170002878000706D56068296920F4605040EA95
:10218000C100606000F058F86168084AC1F30311AB
:10219000515CC8400649086006480068FFF70AFE1F
:1021A0000020C2E70020024000100240645E0008E8
:1021B00000010020F80000200F2202600C4A536842
:1021C00003F003034360536803F0F0038360536834
:1021D00003F4E063C36052684FF4E06303EAD202A1
:1021E00002610448006800F00700086070470000C2
:1021F0000010024000200240044805490068496878
:10220000044AC1F30221515CC8407047000100201C
:1022100000100240745E00080448054900684968DF
:10222000044AC1F3C221515CC8407047000100203C
:1022300000100240745E00080E4A51680E4801F01A
:102240000C03042B11D0082B0FD10C48C1F383438E
:10225000C903C05C0AD55168084AC1F34041921EC7
:10226000515C054A5043B0FBF1F0704704494843C4
:10227000704700000010024000127A00425E000821
:1022800000093D002DE9F84F040070D02078C04DC2
:10229000C00749D06868C0F38100012807D068688A
:1022A000C0F38100022809D16868C00306D52868F8
:1022B000800339D560680028E7D035E06068B0F564
:1022C000803F0BD010B1B0F5A02F11D0286820F4BA
:1022D00080302860286820F4802002E0286840F4DC
:1022E00080302860606890B1FFF7CEF806460AE0BB
:1022F000286840F480202860F0E700BFFFF7C4F8AA
:10230000801B642873D828688003F7D50CE0FFF79A
:10231000BBF8064605E000BFFFF7B6F8801B64284F
:10232000F0D828688003F7D420789A4E80074FF0C1
:1023300001094FF0000839D5686810F00C0F07D07C
:102340006868C0F38100022809D16868C00306D418
:102350002868800714D52069012808D110E0206979
:10236000B0B1C6F80090FFF78FF8074605E00AE124
:10237000FFF78AF8C01B0228C4D828688007F7D561
:102380002868616920F0F80040EAC10028600DE08B
:10239000C6F80080FFF778F8074604E0FFF774F806
:1023A000C01B022823D828688007F7D420780007AC
:1023B0002CD57948A169D9B1C0F80090FFF764F82D
:1023C000074604E0FFF760F8C01B02280FD8686AD0
:1023D0008007F7D571484FF4FA510068B0FBF1F06F
:1023E000009000BF0098411E0091FAD20EE080E0FC
:1023F000C0F80080FFF748F8074604E0FFF744F80C
:10240000C01B022875D8686A8007F7D42078400777
:1024100060D5E8690027C00008D4E86940F0805022
:10242000E861E869012700F0805000905C4801688D
:10243000C90513D40168834641F480710160FFF738
:1024400023F8824606E000BFFFF71EF8A0EB0A0063
:1024500064284ED8DBF80000C005F5D5E0680128F7
:102460000AD008B1052813D0286A20F0010028629C
:10247000286A20F0040002E0286A40F00100286287
:10248000E06841F2883B98B1FEF7FEFF82460BE020
:10249000286A40F004002862EEE700BFFEF7F4FF70
:1024A000A0EB0A0159455AD8286A8007F6D50CE0F6
:1024B000FEF7EAFF824605E0FEF7E6FFA0EB0A0121
:1024C00059454CD8286A8007F6D41FB1E86920F036
:1024D0008050E861E06988B36968C1F3810102292D
:1024E00044D00228C6F8608004D0FEF7CDFF044631
:1024F00038E034E0FEF7C8FF074604E0FEF7C4FF0B
:10250000C01B02282BD828688001F7D4206AB0F5B8
:10251000803F05D16868A16820F4003008436860F6
:10252000D4E908010843696821F47411084368601C
:10253000C6F86090FEF7A8FF044606E025E000BF5D
:10254000FEF7A2FF001B022809D828688001F7D5F2
:102550001BE000BFFEF798FF001B022802D90320F2
:10256000BDE8F88F28688001F4D40EE00128F7D088
:102570006868226A00F48031914204D1616A00F4F3
:102580007010884201D00120EAE70020E8E700004F
:10259000001002400000424280044242000100203C
:1025A000007000407047704770B590F83C20012AD9
:1025B00026D0012480F83C40022280F83D200368A8
:1025C0005A689D6822F070060A6832435A600D4BC3
:1025D00002689A4208D0B2F1804F05D00A4B9A4265
:1025E00002D00A4B9A4204D1496825F0800319436E
:1025F000916080F83D40002180F83C10084670BD95
:10260000022070BD002C0140000400400008004082
:1026100010B5040003D094F83D0010B107E001208C
:1026200010BD002084F83C00204600F01FF8022076
:1026300084F83D00211D206801F078F9012084F81C
:10264000460084F83E0084F83F0084F8400084F897
:10265000410084F8420084F8430084F8440084F880
:10266000450084F83D00002010BD000008B500685A
:102670000B49884212D10B48C16941F00201C16186
:10268000C069002200F00200009002211D20FFF727
:1026900003FCBDE808401D20FFF7F0BB08BD0000AB
:1026A000000400400010024090F83D10012901D0C4
:1026B00001207047022180F83D100168CA6842F08D
:1026C0000102CA6000680B49884208D0B0F1804F0F
:1026D00005D00949884202D00849884204D181685E
:1026E00001F00701062903D0016841F001010160F2
:1026F00000207047002C014000040040000800400A
:1027000070B5044690F83C000025012817D001263A
:1027100084F83C60022084F83D002068826822F042
:10272000770222F47F4282600868502838D00DDC9E
:1027300020284FD005DC90B3102811D14AE00220A8
:1027400070BD302846D040280AD13BE060282FD009
:1027500070280DD0B0F5805F03D0B0F5005F12D0C7
:10276000012584F83D60002084F83C00284670BDB7
:10277000CB68D1E90121206801F014F92068816853
:1027800041F0770109E0CB68D1E90121206801F02F
:1027900009F92068816841F480418160E1E719E02E
:1027A000CA684968206801F00FF95021206806E0E6
:1027B000CA684968206801F018F96021206801F0B2
:1027C000FBF8CEE7CA684968206801F0FDF84021AF
:1027D0002068F4E7226801461046F0E770472DE9CB
:1027E000F04104460068C66805694FF00007A90774
:1027F00013D5B10711D5F91E01610120207720689A
:1028000080698007204602D0FFF7E8FF04E000F06F
:102810007EF8204600F07CF82777680716D5700709
:1028200014D521686FF00400086102202077206829
:10283000806910F4407F204602D0FFF7CFFF04E00C
:1028400000F065F8204600F063F82777280715D5D3
:10285000300713D521686FF0080008610420207745
:102860002068C0698007204602D0FFF7B7FF04E068
:1028700000F04DF8204600F04BF82777E80616D513
:10288000F00614D521686FF0100008610820207749
:102890002068C06910F4407F204602D0FFF79EFFF9
:1028A00004E000F034F8204600F032F82777E8071B
:1028B00008D0F00706D021686FF0010008612046BB
:1028C00000F028F8280608D5300606D521686FF0F4
:1028D000800008612046FFF765FE680608D570068F
:1028E00006D521686FF040000861204600F030F8FE
:1028F000A8060AD5B00608D521686FF02000086147
:102900002046BDE8F041FFF74EBEBDE8F0817047BC
:102910007047000010B500680849884203D1BDE83F
:102920001040FFF72DBA0649884205D105A001F0F5
:1029300087F906490120087010BD0000002C0140F5
:102940000004004074696D330A0000000A00002092
:10295000704770B5040004D094F84100002510B110
:1029600006E0012070BD84F84050204600F024F8B5
:10297000242084F841002068C16821F40051C1601E
:10298000204601F06BF82068016921F49041016153
:102990002068416921F02A0141612068C16841F441
:1029A0000051C1606564202084F8410084F8420031
:1029B0006563002070BD000070B586B000240094EF
:1029C0000194029403942B4E03682B4902200322A6
:1029D0002A4DB34221D18B6943F480438B618B69CB
:1029E00003F4804304938B6943F004038B6189698A
:1029F000039201F0040104910102CDE9001069463F
:102A00002846FEF74BFC2815CDE900046946284608
:102A10000294FEF743FC06B070BD194EB342FAD1E2
:102A2000CB6943F40033CB61CB6903F400330493E7
:102A30008B6943F004038B618969039201F00401FF
:102A400004910421CDE9001069462846FEF726FCD2
:102A50000820CDE90004694628460294FEF71EFCD2
:102A6000002211462620FFF717FA2620FFF706FA64
:102A7000D1E700000038014000100240000801408A
:102A8000004400402DE9F843044690F84100984680
:102A900016460D46202802D00220BDE8F88385B1F5
:102AA0007EB100206064212084F84100FEF7ECFC38
:102AB000A6848146E684A0682027B0F5805F02D016
:102AC00003E00120E9E7206910B12E4600250EE061
:102AD00000260CE08021204601F01CF8A8B9C6B100
:102AE00016F8010B21684860E08C401EE084E08C01
:102AF0004B464FF00002CDF800800028EAD14FF09D
:102B00004001204601F006F840B184F841700320EE
:102B1000C3E735F8020BC0F30800E3E784F841701F
:102B20000020BAE7FEE701684A69D24352050FD494
:102B30006FF480624A61002140F8301F2022427306
:102B40008173026942F0040202610173012070473F
:102B5000002070472DE9F84F0446C06A1E46934690
:102B60000D4621680A6842F480620A60082807D08E
:102B7000012805D010F5803F02D0206B112804D128
:102B80002068016841F4807101604FF001195B46D3
:102B9000002249462046009600F09EF94FF4007846
:102BA00040B120680068C00501D5C4F8408003200A
:102BB000BDE8F88F2069DFF884A0B0F5804F0FD012
:102BC0000620216800EAD51747F0F0000861334677
:102BD0005A460AF10601204600F0C6F958BB03E048
:102BE000E8B240F001001CE02168E8B20861334619
:102BF0005A465146204600F0B7F9E0B920684169CD
:102C000081690091016841F4807101605B46002296
:102C100049462046009600F05FF90028C1D147F0F0
:102C2000F1002168086133465A465146204600F0BB
:102C30009BF90028BCD00120BAE700000200010087
:102C4000F8B50446C06A1E460D461746082807D048
:102C5000012805D010F5803F02D0206B122804D146
:102C60002068016841F480710160134600224FF032
:102C700001112046009600F02FF940B1206800684D
:102C8000C00502D54FF4007020640320F8BD206910
:102C9000B0F5804F0ED00620216800EAD51040F034
:102CA000F000086133463A460B49204600F05CF9D3
:102CB00078B902E005F0FE0000E0E8B221680861A2
:102CC000054933463A46891F204600F04DF9002851
:102CD000DCD00120F8BD0000080001002DE9F84F0C
:102CE0000446006889460B9D01689846174641F4E2
:102CF000806101602068016841F480710160009585
:102D00004FF0011B0022594620460A9B00F0E4F8D0
:102D10004FF4007A40B120680068C00501D5C4F8BE
:102D200040A00320BDE8F88F216809F0FE0008618B
:102D30002B46284920460A9A00F016F9F0BB206875
:102D40004169806900902A4620460A9900F0A2F95C
:102D500040B1206C04283AD12068016841F4007128
:102D6000016034E0FEB2B8F1010F09D02168380AE1
:102D700008612A4620460A9900F08CF90028E8D11B
:102D8000206806612A4620460A9900F083F9002847
:102D9000DFD12068016841F4807101600095002254
:102DA000594620460A9B00F097F80028B3D12168C5
:102DB00009F0FF0040F00100086100E007E02B4649
:102DC000044920460A9A00F0CFF80028AAD0012032
:102DD000A8E70000020001002DE9F843044600685E
:102DE0000D46DDE9089701689846164641F4807162
:102DF00001604B4600224FF001112046009700F081
:102E00006BF848B120680068C00502D54FF4007027
:102E100020640320BDE8F883216805F0FE00086106
:102E20003B464A461549204600F09EF888B920687E
:102E30004169806900903A464946204600F02AF9E7
:102E400048B1206C042804D12068016841F4007165
:102E500001600120DEE7F5B2B8F1010F09D0216869
:102E6000300A08613A464946204600F013F9002826
:102E7000E7D1206805610020CCE7000002000100D6
:102E800070B516460D4604461EE02046FFF74BFE81
:102E900008B1012070BD681C16D0FEF7F5FA801B42
:102EA000A84200D885B920684069C04340070BD5C7
:102EB000002044F8300F20216173A073216941F094
:102EC000200121612073E4E720684069C043400786
:102ED000DBD4002070BD00002DE9F047984617466E
:102EE0000D460446C1F30746DDF820902AE000BFF6
:102EF000B8F1FF3F26D0FEF7C7FAA0EB0901414524
:102F000002D8B8F1000F1DD12068012E16D08069BB
:102F100025EA00000004000C12D00020B84211D1B4
:102F2000002044F8300F20216173A073216941F023
:102F30002001216120730120BDE8F0874069E7E7A7
:102F40000120EBE72068012E0AD0806925EA000005
:102F50000004000C06D00020B842C9D00020EBE7E6
:102F60004069F3E70120F7E72DE9F0479846164658
:102F70000D4604464FF000094FF0200AC1F3074701
:102F800023E020684069C043400515D420680168EB
:102F900041F40071016021686FF480604861C4F8F9
:102FA000309084F83DA084F83E90216C41F00401FB
:102FB000216484F83C9021E0701C06D0FEF764FA8E
:102FC000A0EB0800B04203D816B1012F1FD021E0BA
:102FD0002068012F15D0806925EA00000004000C4C
:102FE00018D000BF44F8309F84F80DA084F80E90EC
:102FF000216941F02001216184F80C900120BDE895
:10300000F087406925EA00000004000CEAD120683E
:10301000406901E02068806925EA00000004000C96
:10302000AFD1ECE72DE9F041002590460E4604466D
:10303000202728E04069C043C0060CD454F8301B58
:103040006FF01000486144F810596777A577206A3F
:103050002062257714E0FEF717FAA0EB0800B042D3
:1030600000D886B920684069C04340060BD544F8B3
:10307000305F6773A573206940F0200020612573DD
:103080000120BDE8F08120684169C9434906D1D4D7
:103090000020F6E770B516460D4604461EE02046B1
:1030A000FFF741FD08B1012070BD681C16D0FEF786
:1030B000EBF9801BA84200D885B920684069C0435D
:1030C00000060BD5002044F8300F20216173A07357
:1030D000216941F0200121612073E4E72068406903
:1030E000C0430006DBD4002070BD00007CB5002585
:1030F0008DF8045047208DF80500FF248DF8064018
:10310000032301AA82210B480094FEF7AFFB0520A0
:10311000FEF776F805208DF8040014208DF80500E0
:103120008DF80650032301AA822102480094FEF77D
:103130009DFB7CBD380300202DE9F04100F092F8A2
:10314000064600F073F8054600F0A8F8044630463D
:10315000FDF72BFA2149FDF719F807462846FDF738
:1031600024FA1F49FDF712F81E49FDF741F80646FB
:103170002046FDF71AFA1C49FDF708F8DFF86C80C5
:10318000044641463046FDF701F8FDF720FA184D98
:10319000E8803846FDF71BFA288141462046FCF7B7
:1031A000F5FFFDF714FA68813846FDF724FA024668
:1031B0000B4610A000F044FD3046FDF71CFA024615
:1031C0000B4611A000F03CFD2046FDF714FABDE8C7
:1031D000F04102460B4610A000F032BDCDCCCC3DF4
:1031E0000000A03F00007A44000020400000C842D8
:1031F000CC05002043757272656E743A252E3066D8
:10320000206D410A00000000566F6C746167653ADA
:10321000252E336620560A00506F77202020203A52
:10322000252E3066206D570A000000003EB50BA029
:10323000FF2400680290012302AA8221009408481A
:10324000FEF714FB022301AA822105480094FEF731
:10325000E5F9BDF8040040BA3EBD000002000000E0
:10326000380300203EB50BA0FF2400680290012324
:1032700002AA822100940848FEF7F8FA022301AA64
:10328000822105480094FEF7C9F9BDF8040040BA50
:103290003EBD000004000000380300203EB50BA036
:1032A000FF2400680290012302AA822100940848AA
:1032B000FEF7DCFA022301AA822105480094FEF7FA
:1032C000ADF9BDF8040040BA3EBD000003000000A7
:1032D000380300200A4B012808D002280ED1C00173
:1032E000012906D0002909D1012203E04FF4007022
:1032F000F6E7002201461846FEF7C0B87047000006
:10330000000C01403EB50021124800910191104A85
:103310000291026081600173017501244FF4602203
:103320000461C2614160FDF7B3FD08B1FDF7BFFC68
:1033300007200094CDE9014069460648FDF726FDC7
:1033400008B1FDF7B4FC0348FDF7B4FC3EBD000036
:1033500000240140080100202DE9F04385B000253C
:1033600040480095019502950395816941F010014F
:103370008161816901F010010491816941F02001AE
:103380008161816901F020010491816941F00401AA
:103390008161816901F004010491816941F00801B2
:1033A00081618069304F00F008004FF400540490B0
:1033B000002221463846FEF761F8DFF8B09001227E
:1033C00010214846FEF75AF8DFF8A48000220621B3
:1033D0004046FEF753F801224FF440714046FEF795
:1033E0004DF8009401AA0124022682E87000694683
:1033F0003846FDF753FF10208DE83100032003907D
:1034000069464846FDF74AFF40F206308DE87100F4
:1034100069464046FDF742FF164D4FF22000CDE9C8
:103420000005694602944046FDF738FF2002CDE9C9
:103430000005694602944846FDF730FF0022052149
:103440001720FEF729FD1720FEF718FD00220521A1
:103450002820FEF721FD2820FEF710FD05B0BDE86D
:10346000F0830000001002400010014000080140FD
:10347000000C0140000021100D4810B50B490160FF
:103480000C49416000214FF480428160C0E9031281
:1034900041618161C1610162FDF7FCFF002803D039
:1034A000BDE81040FDF703BC10BD00000054004013
:1034B00038030020A086010010B586B0002418480B
:1034C00000940194029403940494144905940160B7
:1034D00041F61F41C0E9011441F28731C0E90314EC
:1034E00080218161FFF794F808B1FDF7E0FB4FF40C
:1034F0008050009069460A48FFF702F908B1FDF7CD
:10350000D6FB049404A906480594FFF74DF800285B
:1035100001D0FDF7CCFB06B010BD00000004004058
:103520008C0300200C4810B50A4901604FF4E131CA
:103530004160002181600C22C160C0E904128161F8
:10354000C161FFF706FA002803D0BDE81040FDF77F
:10355000AEBB10BD00380140D40300200C4810B5AC
:103560000A4901604FF4E1314160002181600C2281
:10357000C160C0E904128161C161FFF7EAF9002866
:1035800003D0BDE81040FDF792BB10BD00440040E1
:103590001C040020FEE7000038B50A49002000F0B6
:1035A00059F9084C08A0217800F04AFB002000904F
:1035B0004FF4E1330246217801F044FABDE8384087
:1035C00001F060B808000020536C617665416464C6
:1035D000726573732025780A0000000070B51D4CD9
:1035E0000026A07830B1A670FDF7A8FAFFF7A4FD79
:1035F000FDF7D8F96078184D70B16670A97C00208D
:1036000000F00AFB4FF47A70FDF7FAFD01F02AF89A
:1036100001F018F8FFF7C0FF2878C00701D001219A
:1036200000E000210120FFF755FEA878800701D5B2
:10363000012100E000210220FFF74CFE2878C0079E
:1036400001D0012100E00021BDE870400120FFF71A
:1036500041BE000008000020CC050020FEE700204D
:10366000AFF3008070B506465FF0000404F1B000CF
:10367000C0B200F0ADFA002000F0AAFA102000F06D
:10368000A7FA0025304600F0B5FA6D1CEDB2802D8A
:10369000F8D3641CE4B2082CE8D370BD10B5012047
:1036A000FDF7AEFDAE2000F093FA202000F090FA76
:1036B000102000F08DFAB02000F08AFAC82000F047
:1036C00087FA002000F084FA102000F081FA4020F0
:1036D00000F07EFA812000F07BFAFF2000F078FAFB
:1036E000A12000F075FAA62000F072FAA82000F0E0
:1036F0006FFA3F2000F06CFAA42000F069FAD320A2
:1037000000F066FA002000F063FAD52000F060FABD
:10371000F02000F05DFAD92000F05AFA222000F0E3
:1037200057FADA2000F054FA122000F051FADB20A8
:1037300000F04EFA202000F04BFA8D2000F048FAFD
:10374000142000F045FABDE81040AF2000F040BA68
:1037500010B50446B031C8B200F03AFA102040EA81
:10376000141000F035FA04F00F00BDE8104040F0EE
:10377000010000F02DBA00002DE9F0470025914628
:103780008A460446012B22D0DFF8BC80022B24D1CC
:1037900055E02038C7B27E2C04D90AF1010000247C
:1037A00000F0FF0A51462046FFF7D2FF07EB470023
:1037B000002608EB4007B85D00F01CFA761CF6B254
:1037C000062EF8D3A41D6D1CE4B2EDB201E0DFF8C3
:1037D0007C8019F805000028DBD1BDE8F08720388F
:1037E000C7B2782C04D90AF10100002400F0FF0AC6
:1037F00051462046FFF7ACFF5FF0000606EB0711CD
:1038000018F8010000F0F6F9761CF6B2082EF5D390
:103810000AF10100C1B22046FFF79AFF5FF00006EF
:1038200006EB071101EB0800007A00F0E3F9761CC3
:10383000F6B2082EF4D308346D1CE4B2EDB219F8D8
:1038400005000028CBD1C8E75056000828540008CE
:10385000704700003EB50C4601254FF47A71009484
:10386000CDE9015102462B46A1210448FEF794F808
:10387000207800B9257001203EBD000038030020EB
:103880007047704730B593B028216846FCF773FC49
:1038900014210AA8FCF76FFC002501200F95109554
:1038A0001195010412958DE8230004904FF4E01067
:1038B000CDE90810022407946846FEF7E3FC08B13E
:1038C00072B6FEE70AA90F2081E831004FF480604C
:1038D000CDE90D0502210AA8FEF7D8FB08B172B6A2
:1038E000FEE74FF4004011900F940FA8FEF758FB2D
:1038F000002801D072B6FEE713B030BD704700005B
:103900000148FEF76CBF0000640400200548006811
:103910000169C90705D06FF0010101610248006823
:10392000004770478C03002038000020F0B5026883
:10393000194B1A4C1A4D4FF08047984205D0B842A7
:1039400003D0A04201D0A84203D122F070064A68F9
:103950003243984205D0B84203D0A04201D0A842D9
:1039600003D122F44074CA6822434C6922F08002D9
:10397000224302608A68C2620A688262984201D168
:1039800009690163012141610169C90703D0016926
:1039900021F001010161F0BD002C01400004004054
:1039A0000008004010B5846842EA032224F47F44F2
:1039B0000A432243826010BD826822F070020A43EB
:1039C00042F007018160704710B5036A046A24F071
:1039D00001040462846924F0F00444EA021423F030
:1039E0000A020A438461026210BD10B5036A046AC8
:1039F00024F010040462846923F0A00324F47044CA
:103A000044EA023243EA01118261016210BD016899
:103A10000C3151E8002F22F4907241E80023002B72
:103A2000F5D10168143151E8002F22F0010241E87C
:103A30000023002BF5D1016B012909D101680C315C
:103A400051E8002F22F0100241E80023002BF5D1AD
:103A5000202180F8421000210163704770B50446B0
:103A600000680169E26821F4405111430161216954
:103A7000A0680843616908432168CA6841F20C6381
:103A80009A430243CA6020684169A26921F44071E7
:103A9000114341611E492068884202D1FEF7BCFBF8
:103AA00001E0FEF7A9FB00EBC00101EB001260682A
:103AB00064218000B2FBF0F3B3FBF1F36FF0180662
:103AC0007343B2FBF0F5B2FBF0F605EB830532234E
:103AD00003EB0515B5FBF1F5B6FBF1F605F0F005C6
:103AE00005EB0615B2FBF0F6B2FBF0F0B0FBF1F01F
:103AF0006FF01802504306EB800003EB0010B0FBA0
:103B0000F1F0216800F00F002844886070BD0000CB
:103B1000003801402DE9F843984617460D46044603
:103B2000089E24E0701C22D0FDF7AEFCA0EB08003C
:103B3000B0421AD8CEB12068C168490717D5802D88
:103B400015D0402D13D00168C94309070FD401686F
:103B50000025406800902046FFF759FF0820606468
:103B600084F840500120BDE8F8830320FBE720687B
:103B7000006835EA000004D00020B842D2D000200E
:103B8000F1E70120F9E7000010B50D4C206801684D
:103B9000890605D56FF0200101600A48006880475A
:103BA0002068016809060AD50168490607D56FF043
:103BB0008001016004480068BDE81040004710BD66
:103BC0001C0400203000002034000020FEE700002C
:103BD0001CB500218DF804108DF805004FF47A70A3
:103BE0000090022301AA78210148FDF73FFE1CBD89
:103BF000380300201CB540218DF804108DF8050015
:103C00004FF47A700090022301AA78210148FDF751
:103C10002DFE1CBD3803002003B583B04FF47A732A
:103C2000012204A98DE80E0013460246A021034894
:103C3000FDF7E0FF05B0012000BD000038030020C3
:103C40000FB4054B10B503A9044A029800F0EAF836
:103C500010BC5DF814FB0000B14E00080401002008
:103C60000907090E002804DB00F1E02080F80014A9
:103C7000704700F00F0000F1E02080F8141D70473D
:103C800002E008C8121F08C1002AFAD17047704725
:103C9000002001E001C1121F002AFBD17047000083
:103CA0002DE9FF5F82B00021DDE90430020DDDF86F
:103CB00040B0034318D044F61050A2F2FF32424302
:103CC0001514119801281FD0A5EB0B00401C5FEACA
:103CD000000A4FF000064E4FDFF83891B0465046CC
:103CE00015D5CAF1000413E0119801244AA3012854
:103CF00001D16FEA0B010298119AC0E90031C0E9C5
:103D0000024206B0BDE8F09FCBF10000DFE70446B9
:103D10000021404A491842EB0450CDE9001012E05E
:103D2000E00707D032463B4640464946FCF745FB94
:103D30008046894632463B4610461946FCF73DFB15
:103D400006460F466410002CEAD1DDE90401DDE9E6
:103D50000023BAF1000F06DAFCF72FFB42464B4670
:103D6000FCF72BFB05E0FCF79AFB42464B46FCF7C1
:103D700096FB04460E460022284BFCF77FFD03D835
:103D80004FF0FF30014607E00022254B2046314628
:103D9000FCF76CFAFCF75AFD102409E0002C0ADB52
:103DA0000A220023FCF76CFC039B30321A55641E78
:103DB00050EA0102F2D1641C039AC4F111031444C5
:103DC000119A012A03D0012208430DD10AE00843C9
:103DD00004D000204FF0110B119072E7A3EB0B05FC
:103DE0006D1E0DE05B4504DD4FF0000205F101059D
:103DF00004E003DA4FF00002A5F10105002AECD03F
:103E000002981199C0E90231C0E9004579E7000044
:103E1000000014400000F03F300000000000F043BC
:103E20000000E03F2DE9FF4F95B09B4689460646CE
:103E300000250FE2252877D100242746F84A0121E2
:103E4000059400E0044316F8013F203B01FA03F01B
:103E50001042F7D130782A2811D06FF02F03307834
:103E6000A0F13002092A16D8059A44F0020402EBA8
:103E7000820203EB42021044761C0590EFE759F8EA
:103E8000042B0592002A03DA504244F400540590B2
:103E900044F00204761C30782E2816D116F8010F53
:103EA00044F004042A280DD06FF02F023078A0F1DE
:103EB0003003092B09D807EB870302EB4303C7182C
:103EC000761CF3E759F8047B761C30786C280FD009
:103ED00006DC4C2817D068280DD06A2814D104E0DD
:103EE000742810D07A280FD10DE044F400140AE0B1
:103EF00044F4801401E044F440147278824202D108
:103F000004F58014761C761C307866280BD013DC00
:103F1000582877D009DC002875D04528F6D04628E7
:103F2000F4D047281AD19DE118E0632835D06428E1
:103F300079D0652812D195E1702873D008DC672804
:103F4000F1D069286FD06E280DD06F2806D1B5E06A
:103F500073282CD0752875D0782874D05A461799B4
:103F600090476D1C75E1C4F30250022809D0032864
:103F70000DD0D9F8001004280DD00D6009F1040906
:103F800067E1D9F80010EA17C1E90052F6E7D9F85D
:103F900000100D80F2E70D70F0E719F8041B8DF8A2
:103FA000001000208DF80100EA46012003E059F8D6
:103FB00004AB4FF0FF3061074FF0000102D40DE079
:103FC00008F101018846B9420FDA8045F8DB1AF89A
:103FD00008100029F4D108E008F101018846814267
:103FE000FADB1AF808100029F6D105985B46A0EB19
:103FF000080721463846179A00F094FA284400EB47
:10400000080507E04DE029E10DE01AF8010B5A46DA
:1040100017999047B8F10108F7D25B462146384618
:10402000179A13E142E00A220092C4F302524FF0C1
:10403000000A022A08D059F804CB032A4FEAEC718F
:104040000AD00DE029E02AE009F1070121F007027A
:10405000F2E802C1914609E00FFA8CFC4FEAEC71DC
:10406000042A03D14FFA8CFC4FEAEC71002907DADD
:104070000A460021DCF1000C61EB02012D2202E076
:10408000220504D52B228DF80420012203E0E2074B
:1040900001D02022F7E7904659E00A2102E01022E1
:1040A0000DE010214FF0000A00910BE010224FF0BC
:1040B000000A44F004040827009203E008224FF0AD
:1040C000000A0092C4F30252022A05D059F804CB28
:1040D0000021032A08D009E009F1070121F00702B5
:1040E000F2E802C1914605E01FFA8CFC042A01D1D6
:1040F0000CF0FF0C4FF00008220728D5702806D0DE
:10410000009B83F0100353EA0A0305D00EE040221F
:104110008DF80420012208E05CEA010206D030227A
:104120008DF804208DF8050002229046009B83F054
:10413000080353EA0A030AD15CEA010201D16207CB
:1041400005D530228DF804204FF001087F1E582835
:1041500004D034A003900EA802900DE036A0F9E739
:1041600053466046009AFCF78BFA84460398825CBB
:104170000298401E029002705CEA0100F0D10298A1
:1041800006A9081A00F1200A600702D524F4803439
:1041900000E00127574502DDA7EB0A0000E0002000
:1041A00000EB0A01009005984144401A0590E00395
:1041B00006D45B462146179A059800F0B3F90544EA
:1041C000002706E001A85A46C05D179990476D1C6C
:1041D0007F1C4745F6DBE0030CD55B462146179A6A
:1041E000059800F09FF9054404E030205A461799DD
:1041F00090476D1C0099481E00900029F5DC08E0EE
:10420000029802995A460078491C029117999047E2
:104210006D1CBAF10001AAF1010AF1DC65E10000B0
:10422000092801003031323334353637383961628C
:104230006364656600000000303132333435363750
:1042400038394142434445460000000000F058F927
:104250000544761C307800287FF4ECAD19B0284670
:10426000BDE8F08F620700D4062709F1070222F0AB
:10427000070CFCE80223E14603F000485FEA080C63
:1042800002D00FF2702C0DE05FEA045C02D50FF251
:10429000682C07E05FEAC47C02D00FF2602C01E0DA
:1042A000AFF2700C4FF0FF3823F00043CDF850C050
:1042B00065280CD006DC452809D046281DD04728A3
:1042C0003DD13DE0662818D067287ED138E0002136
:1042D000112F01DB112000E0781CCDE9000106A9B7
:1042E0000EA8FFF7DDFCDDE90F010E9A0391002116
:1042F000009207F1010A04914DE04FF00040009751
:10430000CDE9011006A90EA8FFF7CAFCDDE90F02EE
:1043100003920E9B11990022DDF80CA000930492E9
:1043200011B9791C00EB010AB7EB0A0004D4C0F103
:10433000FF3007F1010A0490AAEB0700019044E066
:10434000012F00DA01270021112F01DD112000E0EB
:104350003846CDE9000106A90EA8FFF7A1FCDDE96A
:104360000F010E9A0391002104910092BA46210791
:104370000CD40399514500DA8A46BAF1010F05DDE4
:10438000009AAAF10101515C302908D0B84202DA42
:1043900010F1040F06DA0121CDE9011015E0AAF1B0
:1043A0000101E9E7002805DC049901440491AAEB26
:1043B000000102E0411C514500DD8A460499401A83
:1043C000401C01904FF000400290200704D4019857
:1043D000504501DBCDF8048000208DF84F00029895
:1043E0000DF14F07B0F1004F25D02B200E90029811
:1043F0004FF0020800280CDA404202902D200E9067
:1044000007E00A210298FCF725F93031029007F8FD
:10441000011DB8F10001A8F10108F2DC02980028A2
:10442000EFD1791E0E980870307800F0200040F02F
:10443000450007F8020D12A8C01B00F107081498E8
:10444000007800B1012000EB0A01019801EBE07156
:1044500005984144401A401E0590E00306D45B468F
:104460002146179A059800F05DF8054414980078E5
:1044700018B15A46179990476D1CE00324D55B4646
:104480002146179A059800F04DF805441CE0049861
:10449000002807DBDDE90301884203DD0098405C6A
:1044A000179901E0179930205A469047049805F172
:1044B0000105401C04900198401E019004D12E205B
:1044C0005A46179990476D1CBAF10001AAF1010AEA
:1044D000DDDC05E017F8010B5A46179990476D1C73
:1044E000B8F10001A8F10108F4DC5B462146179AF7
:1044F0000598ABE62D0000002B0000002000000016
:104500002DE9F041044600251E461746880404D4D0
:1045100005E039462020B0476D1C641EF9D52846B9
:10452000BDE8F0812DE9F041044600251E46904685
:10453000C80301D5302700E02027880404D505E012
:1045400041463846B0476D1C641EF9D52846BDE883
:10455000F081000070B50A4D084600240A21164675
:10456000E9700722314600F075FE012805D144F6B6
:10457000206000F09DFE012800D00324204670BD7D
:10458000BC0000202DE9F0410F4C07461646A088DC
:1045900088460025FF2801D9AFF30080A0880328B2
:1045A00004D3A188A06800F0F5FC18B105252846C1
:1045B000BDE8F081A06810F8011B3970A188891E40
:1045C0003180C8F80000F2E7BC00002070B5104C44
:1045D00003460025607810B10525284670BD491EA8
:1045E0000126E1600846E6800B70E1881144E18015
:1045F000E18800F0CFFC0146E088A2680244401C3C
:10460000E080117026700121002000F0E5FCE4E755
:10461000BC00002010B50021012000F0DDFC0349A2
:1046200000204870BDE8104000F004BEBC0000202F
:1046300010B50021084600F0CFFCBDE8104000F0A6
:10464000F5BC0000064810B501780024012902D00D
:104650000624204610BDC0690028FAD08047F8E73C
:104660001000002010B5064C207818B1012805D0A4
:10467000062010BD6069804701202070002010BD19
:104680001000002070B5064D00242878012802D0C3
:104690000624204670BD2869804700202870F8E76E
:1046A0001000002070B50C460988002505292FD17F
:1046B000417840F2CF760A0281781143C278491CD2
:1046C0001302027989B21A43531EB34220D2002347
:1046D0002380012300F8013B2688761C268056079C
:1046E00003D003EBD203DEB201E0C2F3C70600F849
:1046F000016B23885B1C2380002300F0EFFA18B1C4
:1047000000F02EFC054604E020883044208000E0C4
:104710000325284670BD70B50C460988002505297B
:104720002FD1417840F2CF760A0281781143C278C6
:10473000491C1302027989B21A43531EB34220D294
:1047400000232380022300F8013B23885B1C238085
:10475000530704D0012303EBD203DEB201E0C2F31E
:10476000C70600F8016B23885B1C238000F004FB64
:1047700018B100F0F5FB054604E0208830442080A5
:1047800000E00325284670BD70B50C460988002658
:10479000052925D1417805790A0281781143491C00
:1047A0006A1E89B27C2A1BD800222280032200F8CC
:1047B000012B22880023521C22806A0000F8012B62
:1047C0002288521C22802A4600F016FB18B100F005
:1047D000C7FB064605E0208800EB4500208000E08E
:1047E0000326304670BD70B50C46098800260529A1
:1047F00027D1417805790A0281781143C278491C92
:1048000045EA02256A1E89B27C2A1AD20022228039
:10481000042200F8012B2288521C22806A0000F832
:10482000012B2288521C22802A4600F019FB18B165
:1048300000F096FB064605E0208800EB450020804E
:1048400000E00326304670BD2DE9F041044608889B
:1048500000270D460A2842D3607826790102A07805
:10486000227A0843401C1FFA80F8E07846EA0026C6
:104870006079731E0102A0790843401C81B2E0797F
:104880007C2B42EA0022607A28D83AB3792A25D8CC
:10489000B0EB420F22D1012304F10A0000F0ACFA80
:1048A00098B900212980172121702988601C491C92
:1048B0002980710000F8011B29880023491C2980E8
:1048C0003246414600F098FA18B100F049FB07461D
:1048D00005E0288800EB4600288000E003273846E2
:1048E000BDE8F08170B5064C0D4606492288401C93
:1048F000FBF728FC2088401C2880002070BD0000A9
:10490000CC000020AC04002038B50988002405291B
:104910000BD141780A0281781143491C027989B28E
:104920001AB9C278FF2A03D012B10324204638BD39
:1049300000228DF80120C078FF280CD08DF80020CF
:1049400001231A46684600F0C9F90028EED000F0AD
:1049500007FB0446EAE701208DF80000F0E710B5F8
:1049600009880024052902D00324204610BD41787F
:1049700001230A028178C01C1143491C89B21A46DE
:1049800000F03AFA0028F0D000F0EAFA0446ECE72A
:104990002DE9F0410D4609880024052926D94178E2
:1049A00043790A0281781143491C8EB2C178027999
:1049B00042EA0122510704D0012101EBD201C9B220
:1049C00001E0C2F3C701571EB7F5F66F0ED2994248
:1049D0000CD101233146801D00F080F918B100F0A0
:1049E000BFFA044603E00520288000E003242046A7
:1049F000BDE8F08170B50D460988002406291DD355
:104A000041780A0281781143C278491C1302027965
:104A100089B21A434379561E772E0FD85606360EA2
:104A20009E420BD10123801D00F0E6F918B100F081
:104A300097FA044603E00520288000E0032420467E
:104A400070BD00002DE9F0411D46069B1746064645
:104A5000FF2909D041B1F72906D81E4C084621711B
:104A600000211EB1012E15D002252EE01A4A226126
:104A70001A4A62611A4AE2601A4AC4E906211A49CE
:104A800021621A4961621A49A1622A46394600F038
:104A90009BF812E0174A2261174A6261174AE260E6
:104AA000174AC4E90621174921621749616217496B
:104AB000A1622A463946FFF74DFD050005D100F0F9
:104AC000B1FB28B16671012020702846BDE8F08155
:104AD0000325FAE710000020AD4C0008C94C00087F
:104AE000554C0008054C000825530008CD5300081C
:104AF0008D5300081546000831460008CD450008D2
:104B000085450008495000085D5100082D510008F6
:104B100038B52C4C207808B1062038BD684600F026
:104B200073FB01284BD19DF80000E8B3012802D0A7
:104B3000022844D110E0234AA369921D911CC81F8A
:104B4000984788BB60782179884201D0FF2836D108
:104B5000022000F06FFB32E0A0680121194B0278BF
:104B6000A270E17000212C3313F8315065B19542E9
:104B700007D103EBC1014A681249891D9047E070D3
:104B800002E0491C1029EFDB6078FF2817D0E0789D
:104B900080B10021E180A17841F08002A1680A7013
:104BA000E288521C92B200E009E0E2808854E0887A
:104BB000401CE080D4E90213E28820799847002065
:104BC00038BD00001000002070B5154608460024CE
:104BD0000822294600F03EFB01280DD1B5F5964F7D
:104BE00001D9232003E006496800B1FBF0F080B250
:104BF00000F05EFB012800D00324204670BD0000B9
:104C0000A07F17002DE9F041104C07461646A088FA
:104C100088460025FF2801D9AFF30080A08804282A
:104C200004D3A1880A4800F0C1F918B10525284627
:104C3000BDE8F081064800783870A088C01E30803A
:104C40000348401CC8F80000F1E70000D000002035
:104C5000CC04002070B5134C034600256078012871
:104C600002D00525284670BD491E0126A1600846D0
:104C700066800B70618811446180618800F096F94C
:104C80006188094A5318491C61801870010A6088BC
:104C90000244401C6080117026700121002000F049
:104CA0009BF9DFE7D0000020CC040020054910B5B7
:104CB000002048700146012000F08EF9BDE8104048
:104CC00000F0B6B9D000002010B50021084600F071
:104CD00083F9BDE8104000F0A9B90000F0B5491E05
:104CE00089B28C180A2C01D90120F0BD541EE51799
:104CF00004EB5575012404EBE5061E4D012B18D17C
:104D0000F4B213E010F8016B00230AE026FA03F76F
:104D100007F001076F54491C521E5B1C89B292B206
:104D2000DBB20AB1082BF1D3641EE4B2002CE9D146
:104D30001EE016F0FF061BD000273B4611E000BF27
:104D400015F801E0BEF1000F05D004FA03FC4CEAAF
:104D5000070C0CF0FF07521E491C5B1C92B289B273
:104D6000DBB20AB1082BEBD300F8017B761EE0E73B
:104D70000020F0BDDC000020F0B5491E8CB2A11867
:104D80000A2901D90120F0BD511ECB1701EB537147
:104D9000012505EBE101CEB216491BE000273B4699
:104DA00011E000BF11F804E0BEF1000F05D005FAD4
:104DB00003FC4CEA070C0CF0FF07521E641C5B1C42
:104DC00092B2A4B2DBB20AB1082BEBD3761E00F884
:104DD000017BF6B2002EE1D100200A5C3AB100223C
:104DE0000A54401C80B20A28F7D30020F0BD0122EB
:104DF000F6E70000E600002030B54C1EA4B2A5186E
:104E00000A2D01D9012030BD134D012B09D01EE020
:104E100030F8023B5BBA25F81430641C521EA4B271
:104E200092B2002AF4D10A2913D10C49012008704A
:104E30000FE000BF35F81410090A00F8011B15F83F
:104E40001410641C521E00F8011BA4B292B2002A76
:104E5000F0D1002030BD0000CC050020090000206A
:104E6000491E10B58BB29C1810490A2C0FD901208D
:104E700010BD00BF31F81340240A00F8014B11F8AF
:104E800013405B1C521E00F8014B9BB292B2002AE9
:104E9000F0D1002031F81020521C21F81020401CC5
:104EA00080B20A28F6D3002010BD0000E0050020E3
:104EB00013B54FF0FF33012269460248FDF7E2FDCA
:104EC00000981CBDD4030020FCF762FFFEF7DAFC5B
:104ED000FEF742FAFEF7D0FAFEF714FAFEF722FBCD
:104EE000FEF73CFBFEF7E8FA0FA0FEF7A9FE13A0C1
:104EF000FEF7A6FEFEF7D2FBFEF7B1FB022313A2DC
:104F000000211020FEF738FCFBF7F8FDFEF7EEF865
:104F10001248FDF7C9FBFEF73FFB00BFFFF7F8FDA6
:104F2000FEF75CFBFAE70000556172743120696E90
:104F30006974206973206F6B0A0000004D6F646212
:104F4000757320546573740A000000004D6F64622D
:104F5000757320436F6E74726F6C00008C030020B9
:104F6000002804D0012803D0072803D0042070476C
:104F7000022070470620704710B5092801D830304C
:104F800004E0A0F10A01052902D83730C0B210BDF3
:104F9000AFF30080002203E010F8013B1A44D2B2C4
:104FA000491E89B2F8D25042C0B2704770B5094D5F
:104FB000FF231A4605F5807606E000BF10F8014B86
:104FC00054402A5D5A40335D491E89B2F6D242EA06
:104FD000032070BD405C000870B5124E124C0D46A7
:104FE00050B1002204213046FCF748FA2168C86815
:104FF00040F02000C86004E02068C16821F0200172
:10500000C1604DB1012204213046FCF737FA206817
:10501000C16841F0800103E02068C16821F080018F
:10502000C16070BD000C01401C04002070470000EE
:1050300004480021026851620068016841F00101E2
:10504000016070478C030020F8B5374C00272078AA
:1050500008B1AFF30080684600F0F4F860780025EE
:10506000012670B3012802D002285AD139E0FFF797
:10507000DFFF9DF800003A2807D00D2808D0A0F1E6
:105080003001092907D8C8B20DE0A570A58048E015
:105090000220607045E0A0F14101052902D83738AF
:1050A000C0B200E0FF20A17811B1012939D10DE093
:1050B000A188FF2906D8A288A16800018854A6709B
:1050C0002FE025E06570FFF7B1FF2AE0A288A16814
:1050D00011440A7802430A70A088401CA080A57081
:1050E0001FE09DF80000E178884207D1FFF79EFF9E
:1050F0006570012000F09EF8074612E03A2801D0C2
:1051000065700EE0A570A5806670FFF791FF08E05E
:105110009DF800003A2804D1FFF78AFFA580A5700A
:1051200066703846F8BD0000BC0000200A4810B583
:105130004178012909D0022907D04178012906D0F8
:105140004078022803D0AFF3008000214170FFF7C0
:105150006DFF002010BD0000BC00002070B5294C80
:105160000026607808B1AFF300802078002505287C
:1051700046D2DFE800F041030A3136003A2000F061
:1051800091F802202070A5703AE0E088F0B1A17893
:105190001C48C06811B1012932D108E0007800092B
:1051A000FFF7EAFE00F07EF80120A07028E000780A
:1051B00000F00F00FFF7E0FE00F074F8E068401C1C
:1051C000E060A570E088401EE08019E00D2000F04E
:1051D00069F80320207013E0E07800F063F8042001
:1051E000F8E72570032000F025F80646002101208D
:1051F000FFF7F2FE257003E000210120FFF7ECFE2F
:10520000304670BDBC0000200549024600204B78A6
:10521000002B04D0087810700020487001207047DF
:10522000F000002002490020487001207047000073
:10523000F0000020024901224A70087010467047B1
:10524000F000002002490968017001207047000049
:1052500004440040124810B5104AC0E90021002162
:105260000C22C160C0E905214FF48052C161012BBD
:1052700009D0022B0AD0016181600948FDF769FB62
:1052800048B1002010BD4FF4C06101E04FF48061CF
:1052900082600161F1E7012010BD00000044004080
:1052A0001C040020014908600120704704440040AC
:1052B00030B587B000251A4C0095019502950395ED
:1052C000049516490595216040F60F61401E616006
:1052D000C4E9025025612046A561FDF799F970B92E
:1052E0004FF48050009069462046FDF709FA30B926
:1052F000049504A920460595FDF756F910B1002044
:1053000007B030BD21686FF0010008612068C168F6
:1053100041F00101C1600120F2E7000000040040FB
:105320008C03002038B5174C0025207808B1AFF366
:1053300000806846FFF786FF607830B1124A012886
:1053400007D0022810D0032801D1FFF771FE2846AC
:1053500038BD0020A0809DF80000A1880A44491CA7
:10536000A180107002200BE0A088FF2807D89DF8CC
:105370000010A0880244401CA0801170E5E70320C3
:105380006070E2E7D0000020CC04002070B50E4D24
:105390000024687870B102280BD003280DD06878FB
:1053A00058B16878022808D06878032805D0AFF390
:1053B00000800120FFF73EFF0446FFF737FE012083
:1053C0006870204670BD0000D000002070B5154CFC
:1053D00000256078012801D0AFF30080207810B15B
:1053E00001281CD104E000210120FFF7F5FD16E0A3
:1053F000608850B1A0680078FFF754FFA068401C97
:10540000A0606088401E608009E00320FFF712FF63
:10541000054600210120FFF7DFFD0020207028460F
:1054200070BD0000D000002000000000000000005F
:10543000002F000000000700070000147F147F14F5
:1054400000242A7F2A12006264081323003649557B
:10545000225000000503000000001C224100000053
:1054600041221C000014083E08140008083E0808E9
:10547000000000A060000008080808080000606044
:105480000000002010080402003E5149453E000083
:10549000427F4000004261514946002141454B3165
:1054A000001814127F10002745454539003C4A4931
:1054B00049300001710905030036494949360006A3
:1054C0004949291E0000363600000000563600000B
:1054D0000008142241000014141414140000412286
:1054E000140800020151090600324959513E007C5E
:1054F0001211127C007F49494936003E4141412248
:10550000007F4141221C007F49494941007F090930
:105510000901003E4149497A007F0808087F0000E0
:10552000417F4100002040413F01007F081422419B
:10553000007F40404040007F020C027F007F040853
:10554000107F003E4141413E007F09090906003EAF
:105550004151215E007F09192946004649494931D8
:105560000001017F0101003F4040403F001F2040FB
:10557000201F003F4038403F0063140814630007B9
:105580000870080700615149454300007F41410010
:1055900000552A552A55000041417F0000040201B0
:1055A000020400404040404000000102040000208E
:1055B00054545478007F48444438003844444420CC
:1055C00000384444487F00385454541800087E0979
:1055D00001020018A4A4A47C007F08040478000041
:1055E000447D4000004080847D00007F10284400FE
:1055F0000000417F4000007C04180478007C08040F
:10560000047800384444443800FC2424241800184A
:10561000242418FC007C0804040800485454542036
:1056200000043F444020003C4040207C001C2040BF
:10563000201C003C4030403C004428102844001C02
:10564000A0A0A07C004464544C44141414141414FA
:10565000000000000000000000000000000000004A
:10566000000000F8000000000000003330000000DF
:1056700000100C06100C06000000000000000000E6
:1056800040C07840C0784000043F04043F04040058
:10569000007088FC08300000001820FF211E000068
:1056A000F008F000E018000000211C031E211E007D
:1056B00000F00888700000001E2123241927211003
:1056C00010160E00000000000000000000000000A6
:1056D000000000E01804020000000007182040004D
:1056E00000020418E000000000402018070000003D
:1056F000404080F0804040000202010F01020200A1
:10570000000000F0000000000101011F0101010084
:10571000000000000000000080B0700000000000E9
:105720000000000000000000000101010101010172
:105730000000000000000000003030000000000009
:1057400000000000806018040060180601000000DE
:1057500000E010080810E000000F102020100F00DB
:10576000001010F8000000000020203F2020000062
:1057700000700808088870000030282422213000BA
:1057800000300888884830000018202020110E00C2
:105790000000C02010F8000000070424243F24006B
:1057A00000F80888880808000019212020110E0040
:1057B00000E0108888180000000F112020110E0052
:1057C00000380808C83808000000003F000000004A
:1057D0000070880808887000001C222121221C000B
:1057E00000E010080810E0000000312222110F0034
:1057F000000000C0C00000000000003030000000C9
:105800000000008000000000000080600000000038
:105810000000804020100800000102040810200051
:10582000404040404040400004040404040404009C
:105830000008102040800000002010080402010031
:10584000007048080808F000000000303601000031
:10585000C030C828E810E0000718272423140B00E4
:105860000000C038E0000000203C2302022738205E
:1058700008F8888888700000203F202020110E0042
:10588000C030080808083800071820202010080039
:1058900008F808080810E000203F202020100F0022
:1058A00008F88888E8081000203F202023201800EE
:1058B00008F88888E8081000203F20000300000056
:1058C000C03008080838000007182020221E0200F7
:1058D00008F808000008F808203F210101213F20B6
:1058E000000808F8080800000020203F20200000E1
:1058F00000000808F8080800C08080807F000000D1
:1059000008F888C028180800203F20012638200009
:1059100008F8080000000000203F20202020300070
:1059200008F8F800F8F80800203F003F003F20008A
:1059300008F830C00008F808203F200007183F0092
:10594000E01008080810E0000F10202020100F00C1
:1059500008F808080808F000203F210101010000B4
:10596000E01008080810E0000F18242438504F00F9
:1059700008F8888888887000203F2000030C3020B9
:1059800000708808080838000038202121221C00F7
:10599000180808F8080818000000203F2000000040
:1059A00008F808000008F808001F202020201F0029
:1059B0000878880000C83808000007380E01000089
:1059C000F80800F80008F800033C0700073C030053
:1059D000081868808068180820302C03032C3020B9
:1059E0000838C800C83808000000203F2000000028
:1059F00010080808C8380800203826212020180080
:105A0000000000FE020202000000007F4040400053
:105A1000000C30C000000000000000010638C0008B
:105A200000020202FE000000004040407F00000033
:105A30000000040202020400000000000000000058
:105A40000000000000000000808080808080808056
:105A5000000202040000000000000000000000003E
:105A600000008080808000000019242222223F2034
:105A700008F8008080000000003F112020110E0077
:105A80000000008080800000000E11202020110006
:105A9000000000808088F800000E112020103F20B8
:105AA0000000808080800000001F2222222213003C
:105AB000008080F0888888180020203F2020000087
:105AC0000000808080808000006B9494949360003C
:105AD00008F8008080800000203F210000203F2047
