:020000040800F2
:100000000006002005010008832000086B1A000884
:10001000812000084D0200083D2500080000000076
:100020000000000000000000000000008720000821
:1000300087020008000000008520000889200008D1
:100040001F0100081F0100081F0100081F01000810
:100050001F0100081F0100081F0100081F01000800
:100060001F0100081F0100081F0100081F010008F0
:100070001F0100081F0100081F01000851020008AD
:100080001F0100081F0100081F0100081F010008D0
:100090001F0100081F0100081F010008D30300080A
:1000A0001F0100081F0100081F0100081F010008B0
:1000B0001F0100081F0100081F0100081F010008A0
:1000C0001F0100081F0100081F0100081F01000890
:1000D0001F010008D52400081F0100081F010008A7
:1000E000AD0300081F0100081F010008DFF810D051
:1000F00000F07AF800480047112A0008AFF30080AA
:10010000000600200648804706480047FEE7FEE755
:10011000FEE7FEE7FEE7FEE7FEE7FEE7FEE7FEE7B7
:10012000EB200008ED000008202A04DB203A21FA29
:1001300002F00021704721FA02F3D040C2F1200200
:100140009140084319467047D2B201E000F8012BF4
:10015000491EFBD270470022F6E710B513460A4647
:1001600004461946FFF7F0FF204610BD30B504469F
:100170000020034600E05B1C934203D2E05CCD5CB0
:10018000401BF8D030BD2DE9F05F054600209246B7
:100190009B4688460646814640241BE02846414649
:1001A00047462246FFF7C0FF53465A46C01A9141C0
:1001B00010D311461846224600F028F82D1A67EB96
:1001C00001084F4622460120002100F01FF817EBDE
:1001D00000094E41201EA4F10104DFDC48463146EF
:1001E0002A464346BDE8F09F064C074D06E0E0680E
:1001F00040F0010394E8070098471034AC42F6D36E
:10020000FFF778FF942A0008B42A0008202A04DBAC
:10021000203A00FA02F1002070479140C2F1200319
:1002200020FA03F31943904070470000064B4FF447
:100230000051012805D0002805D10022184600F001
:10024000E3BB0122FAE7704700100140FEE700001F
:10025000014800F039B90000B801002030B590F82D
:1002600040500124AC40C56B6C6004686360436817
:10027000102B036803D099600068C26030BD9A609B
:100280000068C16030BD70472DE9F043ADF5057DD4
:100290004FF48075294643A8FFF75DFF294603A860
:1002A000FFF759FF0020014643AE03AC3054215400
:1002B000401C80B2FF28F9D922A002F041F9B046D3
:1002C00000274FF47A764FF0080900BF08EB0701CA
:1002D000CDE9001901233A460296A021204800F0FA
:1002E00091FD052000F000FA0837BFB2FF2FEDD9CD
:1002F0001CA002F025F9142000F0F6F92F46012386
:100300000022A12116480296CDE9004500F04CFCE0
:1003100000251AA0615D02F013F96D1CFF2DF8DDB8
:1003200018A002F00DF93A4643A903A8FFF71EFFF3
:1003300030B115A002F004F90DF5057DBDE8F0839C
:1003400016A0F7E777726974696E6720646174615B
:1003500020746F20656570726F6D2E2E2E0A00005E
:100360001C000020726561642066726F6D206565F7
:1003700070726F6D2E2E2E0A00000000307825302E
:10038000325820000A000000656570726F6D20749D
:10039000657374206661696C0A000000656570729F
:1003A0006F6D2074657374206F6B0A0010B54FF485
:1003B000805000F02DFA4FF4005000F029FA4FF46D
:1003C000804000F025FABDE810404FF4004000F0F6
:1003D0001FBA10B5202000F01BFABDE810404FF402
:1003E000807000F015BA72B6FEE710B590F82110D3
:1003F0000022022905D00421816380F820200120F9
:1004000010BD01680B6823F00E030B6001680B68D8
:1004100023F001030B6090F84030C46B012101FA16
:1004200003F3636080F8211080F82020104610BD8F
:1004300010B590F821100024022903D00421816313
:1004400001243DE001680A6822F00E020A6001689A
:100450000A6822F001020A601A4A0168914201D139
:10046000012121E0174A1432914201D110211BE0F1
:10047000144A2832914201D1891515E0114A3C32C3
:10048000914201D189140FE00E4A5032914202D1BB
:100490004FF4803108E00B4A6432914202D14FF4AC
:1004A000801101E04FF08071064A083A5160012145
:1004B00080F82110002180F82010416B01B188479D
:1004C000204610BD080002402DE9F05FC16B0C68AA
:1004D00001680B68D0F840C0042202FA0CF2494DC2
:1004E000DFF824A1494E4A4FDFF828B1DFF828E1B0
:1004F00022422CD05A072AD50A68920603D40A68E9
:1005000022F004020A600168A94201D1042219E024
:10051000514501D1402215E0B14202D14FF4806231
:1005200010E0B94202D14FF480420BE0594502D1AC
:100530004FF4802206E0714502D14FF4800201E0C1
:100540004FF080622F4908394A60C16A3BE04FF0A2
:10055000020808FA0CF818EA040F4FF000094FF0EF
:10056000010235D05FEA837832D50B689B0605D44B
:100570000B6823F00A030B6080F821200168A94270
:1005800001D1022219E0514501D1202215E0B142EA
:1005900002D14FF4007210E0B94202D14FF4005280
:1005A0000BE0594502D14FF4003206E0714502D10B
:1005B0004FF4001201E04FF00072124908394A600E
:1005C00080F82090816A00291AD0BDE8F05F0847C2
:1005D000082505FA0CF5254212D01B0710D50B682B
:1005E00023F00E030B6090F84010C36B02FA01F188
:1005F0005960826380F8212080F82090016BE2E747
:10060000BDE8F09F080002401C000240300002409C
:1006100044000240580002406C00024030B528B34C
:1006200008C8134914221944B1FBF2F18900C163CF
:1006300010498163022141771A6843F6F0718A43B9
:10064000D0E900142143D0E902452C432143046939
:1006500021434469214384692143114319600021E6
:100660004163012242770177084630BD012030BD49
:10067000F8FFFDBF0000024070B5044690F820006E
:10068000002501280CD0012084F8200094F8216076
:100690000020012E06D084F820000225284670BDD7
:1006A000022070BD022684F82160A06320680668DD
:1006B00026F0010606602046FFF7D0FDE06A00281C
:1006C0002068016802D041F00E0106E021F004012B
:1006D00001602068016841F00A010160206801683A
:1006E00041F001010160D9E770B5044600F092F9CC
:1006F0000546601C02D004480078044400F08AF9E2
:10070000401BA042FAD370BD08000020204910B55C
:100710000B68204A14681B1BC82B37D3096811606B
:10072000B0F5005F15D0B0F5804F18D020281CD050
:10073000B0F5004F1FD0B0F5805F22D0B0F5807FBC
:1007400024D10020FFF772FD13A0BDE8104001F096
:10075000F7BE0121084601F0A9FB14A0F5E700212E
:10076000012001F0A3FB16A0EFE70121022001F018
:100770009DFB18A0E9E70021022001F097FB1AA0D9
:10078000E3E70120FFF752FD1CA0DEE710BD0000EB
:1007900010000020040000204B65792045534320C1
:1007A0002020507265737365640A00004B657920E0
:1007B0005570202020507265737365640A00000034
:1007C0004B657920446F776E205072657373656452
:1007D0000A0000004B6579204C65667420507265F4
:1007E000737365640A0000004B657920526967687D
:1007F0007420507265737365640A00004B6579203C
:100800004F4B20202020507265737365640A0000EE
:10081000044910B50A68024202D00860FFF776FF6B
:1008200010BD0000140401402DE9F84FDFF8B89125
:100830000024A9F1040B23460F2709F1040AABF1A8
:10084000040EC9E00125A5402A40AA427DD1674E89
:10085000D1F804C0ACEB0608B44532D014DCBCF1CE
:10086000030F3AD009DCBCF1000F2AD0BCF1010F14
:100870001CD0BCF1020F31D11DE0BCF1110F17D01B
:10088000BCF1120F2AD119E0B8F5881F19D006DC87
:10089000B8F5803F15D0B8F5801F1FD111E0B8F52D
:1008A000001F0ED0B8F5041F18D10AE0CB6815E080
:1008B000CB681B1D12E0CB6808330FE0CB680C330C
:1008C0000CE08B682BB1012B4FF0080303D045617E
:1008D00004E0042302E0056100E00023FF2A01D8C0
:1008E000064601E000F104064FEA840501D9A5F1AE
:1008F0002005D6F8008007FA05FC28EA0C0803FA60
:1009000005F548EA0508C6F800804D68ED0062D597
:10091000374DAE6946F00106AE61AD6924F00306BD
:1009200005F001050095334D06EB050CDCF8085089
:10093000A607360F07FA06F825EA0805DFF8B8809B
:10094000404503D14FF0000817E044E0DFF8AC80E9
:10095000404502D14FF001080FE0DFF8A480404588
:1009600002D14FF0020808E0DFF89880404502D13C
:100970004FF0030801E04FF0040808FA06F848EACF
:100980000508CCF808804D68D9F80060ED024D46A6
:1009900001D5164300E096432E604D68DAF80060FA
:1009A000AD02554601D5164300E096432E604D68D2
:1009B000DBF80060AD035D4601D5164300E09643C9
:1009C0002E604D68DEF80060ED03754601D51643D4
:1009D00000E096432E60641C0D682A46E5407FF4D3
:1009E00031AFBDE8F88F000008040140000011108D
:1009F000001002400000014000080140000C0140CE
:100A000000100140001401400AB10161704709045F
:100A1000FBE70000014880687047000008000020E4
:100A200070B5040025D094F83D00002520B984F865
:100A30003C50204600F07EFA242084F83D002068D7
:100A4000016821F0010101602068016841F4004162
:100A500001602068016821F40041016000F0C6FBDC
:100A60004D4A6168914201D84C4900E04C498842A6
:100A700001D2012070BD4B492368B0FBF1F15E68E3
:100A800026F03F060E435E606368934206D94FF43A
:100A9000967359434FF47A73B1FBF3F12368491C01
:100AA0001E6A26F03F06314319626168914210D8F0
:100AB0004900401EB0FBF1F2521CC2F30B02042AA3
:100AC00001D2042022E0B0FBF1F0401CC0F30B0087
:100AD0001CE0A268F2B301EBC10303EB0116431E55
:100AE000B3FBF6F35B1C43F480431B0549D092B380
:100AF00001EBC10202EB0111401EB0FBF1F0401C02
:100B0000C0F30B0040F4804040F400402168CA6903
:100B10004CF6FF739A431043C861D4E907100143B0
:100B20002068026822F0C00211430160D4E9030189
:100B300001432068826848F2FF339A431143816081
:100B4000D4E9050108432168CA6822F0FF02104376
:100B5000C86001E00EE016E02068016841F0010184
:100B600001602564202084F83D00256384F83E5010
:100B7000002070BD01EB4106431EB3FBF6F35B1C86
:100B8000B3E70120C2E701EB4101401EB0FBF1F0E9
:100B9000401CC0F30B00B7E7A086010080841E0054
:100BA00000093D0040420F002DE9FF4F83B00025B2
:100BB000DDE910799A4693460446DDF848800095B1
:100BC000FFF728FF064694F83D0020287CD1192322
:100BD000012288492046009601F05EF80028F5D1F0
:100BE00094F83C0001286FD0012084F83C00206874
:100BF0000168C90703D1016841F001010160206863
:100C0000016821F400610160222084F83D00402049
:100C100084F83E0025646762A4F82A90608D2085E0
:100C20007548E062CDE9008653465A46204604994D
:100C300000F034FF00287CD1208DDFF8C091202700
:100C400068B1012814D00228206801681ED041F440
:100C5000806101602068416980690090BCE0206883
:100C6000416981690091016841F400710160B3E05C
:100C70002068016821F48061016072B620684169D2
:100C800081690091016841F400710AE041F400615A
:100C9000016072B62068416981690091016821F4A0
:100CA0008061016062B697E0032865D801280CD006
:100CB000022843464FF000024946204600960BD0DA
:100CC00000F0EAFFA8BB0CE091E032464146204626
:100CD00001F088F868BB72E000F0DEFF48BB72B636
:100CE00033E02068016821F48061016072B62068F9
:100CF0000069616A0870606A401C6062208D401E55
:100D00002085608D401E60853D4846F2A811006830
:100D1000B0FBF1F0C0EBC00000EB80000090401E83
:100D2000009007D020684069C04340070DD5009867
:100D3000F5E727E044F8305F6773A573206940F05A
:100D40002000206162B625731CE02068016841F430
:100D50000071016020680069616A0870606A401C67
:100D60006062218D491E2185618D491E618562B6B3
:100D700021680969017026E032464146204601F0AB
:100D800031F818B1012007B0BDE8F08F2068006984
:100D9000616A0870606A401C6062208D401E81B2EA
:100DA0002185608D401E608520684269D2435207CC
:100DB00012D4032903D1016821F480610160206805
:100DC0000069616A0870606A401C6062208D401E84
:100DD0002085608D401E6085208D00287FF464AFE3
:100DE00084F83D7084F83E5084F83C50CBE70220F4
:100DF000C9E70000020010000000FFFF040001002E
:100E0000140000202DE9FF4F83B09A46DDE91197C9
:100E100093460446DDF84080FFF7FCFD054694F854
:100E20003D0020287FD1192301224049204600950A
:100E300000F032FF002876D194F83C00012872D0EF
:100E4000012084F83C0020680168C90703D10168CB
:100E500041F0010101602068016821F40061016036
:100E6000212084F83D00402084F83E0000262664BE
:100E7000C4F82480A4F82A90608D20852C48E06274
:100E8000CDE9007553465A462046049900F084FE89
:100E900070B930E02A463946204600F0DBFF58B1F1
:100EA000206C042804D12068016841F400710160BD
:100EB000012007B0BDE8F08F606A21680078086102
:100EC000606A401C6062218D491E89B22185628D55
:100ED000521E628522685369DB435B070BD469B1FC
:100EE00000781061606A401C6062208D401E208581
:100EF000608D401E6085208D0028CBD12A46394662
:100F0000204600F09DFE0028CAD154F83D0B016830
:100F100041F400710160202004F81E09E67766772D
:100F20000020C6E7FFE70220C3E700000200100030
:100F30000000FFFF10B586B00021009101910291E1
:100F4000039100680F4988421AD10F4CA06940F004
:100F50000800A061A069694600F008000490C02064
:100F6000009012200190032003900848FFF75CFCDA
:100F7000E06940F40010E061E06900F400100490C2
:100F800006B010BD0054004000100240000C0140AB
:100F9000024881680278114481607047080000208F
:100FA000074810B5016841F010010160032000F00E
:100FB00075F80F2000F006F800F024F8002010BDAE
:100FC0000020024070B50D4D04464FF47A71287828
:100FD000B1FBF0F00A490968B1FBF0F000F0DCFA6F
:100FE00048B9102C07D200222146501E00F036F8D6
:100FF00000206C6070BD012070BD00000800002062
:10100000140000200C4808B5816941F0010181619C
:10101000816901F001010091C16941F08051C16114
:10102000C06900F0805000900448416821F0E06100
:1010300041F00071416008BD001002400000014015
:10104000002809DB00F01F020121914040098000C7
:1010500000F1E020C0F8001170470000F0B40E4B22
:101060001B680C46C3F30223C3F10705042D00D906
:101070000425191D072901D2002300E0DB1E0126EB
:1010800006FA05F1491E214099409E40761E164001
:101090003143F0BC01F064BA0CED00E0064900F009
:1010A000070208684FF6FF03184040EA0220034A8F
:1010B00010430860704700000CED00E00000FA05E6
:1010C0002DE9F0470F46050061D0434E306800F02F
:1010D0000700B84209D2306820F00700384330607A
:1010E000306800F00700B84251D128683B4C8107B6
:1010F00012D5400703D5606840F4E060606028784E
:10110000000703D5606840F4605060606068A968BB
:1011100020F0F000084360602878C00728D0686895
:10112000012810D02168022810D0890700292EDA62
:10113000616821F0030101436160FFF76BFC8046A9
:1011400041F288390DE021688903EFE78901EDE775
:10115000FFF760FCA0EB0801494502D90320BDE878
:10116000F0876068696800F00C00B0EB810FEFD188
:10117000306800F00700B8420BD9306820F0070053
:1011800038433060306800F00700B84201D00120D9
:10119000E5E72878400705D56068E96820F4E06055
:1011A000084360602878000706D56068296920F444
:1011B000605040EAC100606000F038F86168084A99
:1011C000C1F30311515CC840064908600648006835
:1011D000FFF7F8FE0020C2E70020024000100240A6
:1011E0007A2A0008140000200C0000200448054959
:1011F00000684968044AC1F30221515CC840704745
:1012000014000020001002408A2A00080448054902
:1012100000684968044AC1F3C221515CC840704764
:1012200014000020001002408A2A00080E4A51686B
:101230000E4801F00C03042B11D0082B0FD10C48E1
:10124000C1F38343C903C05C0AD55168084AC1F39E
:101250004041921E515C054A5043B0FBF1F070478B
:1012600004494843704700000010024000127A0011
:101270006A2A000800093D002DE9F84F040070D0EB
:101280002078C04DC00749D06868C0F381000128AC
:1012900007D06868C0F38100022809D16868C003DC
:1012A00006D52868800339D560680028E7D035E086
:1012B0006068B0F5803F0BD010B1B0F5A02F11D011
:1012C000286820F480302860286820F4802002E01C
:1012D000286840F480302860606890B1FFF79AFB7E
:1012E00006460AE0286840F480202860F0E700BF46
:1012F000FFF790FB801B642873D828688003F7D51C
:101300000CE0FFF787FB064605E000BFFFF782FB16
:10131000801B6428F0D828688003F7D420789A4E80
:1013200080074FF001094FF0000839D5686810F0C8
:101330000C0F07D06868C0F38100022809D16868E3
:10134000C00306D42868800714D52069012808D175
:1013500010E02069B0B1C6F80090FFF75BFB0746CC
:1013600005E00AE1FFF756FBC01B0228C4D8286835
:101370008007F7D52868616920F0F80040EAC100CD
:1013800028600DE0C6F80080FFF744FB074604E044
:10139000FFF740FBC01B022823D828688007F7D43A
:1013A000207800072CD57948A169D9B1C0F8009000
:1013B000FFF730FB074604E0FFF72CFBC01B0228B9
:1013C0000FD8686A8007F7D571484FF4FA51006862
:1013D000B0FBF1F0009000BF0098411E0091FAD2DE
:1013E0000EE080E0C0F80080FFF714FB074604E041
:1013F000FFF710FBC01B022875D8686A8007F7D476
:101400002078400760D5E8690027C00008D4E86963
:1014100040F08050E861E869012700F080500090BA
:101420005C480168C90513D40168834641F48071A2
:101430000160FFF7EFFA824606E000BFFFF7EAFA25
:10144000A0EB0A0064284ED8DBF80000C005F5D5F3
:10145000E06801280AD008B1052813D0286A20F0D6
:1014600001002862286A20F0040002E0286A40F0A7
:1014700001002862E06841F2883B98B1FFF7CAFAA0
:1014800082460BE0286A40F004002862EEE700BFC5
:10149000FFF7C0FAA0EB0A0159455AD8286A80071D
:1014A000F6D50CE0FFF7B6FA824605E0FFF7B2FA90
:1014B000A0EB0A0159454CD8286A8007F6D41FB121
:1014C000E86920F08050E861E06988B36968C1F399
:1014D0008101022944D00228C6F8608004D0FFF7B9
:1014E00099FA044638E034E0FFF794FA074604E03E
:1014F000FFF790FAC01B02282BD828688001F7D488
:10150000206AB0F5803F05D16868A16820F40030FA
:1015100008436860D4E908010843696821F474113C
:1015200008436860C6F86090FFF774FA044606E066
:1015300025E000BFFFF76EFA001B022809D82868D3
:101540008001F7D51BE000BFFFF764FA001B0228FB
:1015500002D90320BDE8F88F28688001F4D40EE09A
:101560000128F7D06868226A00F48031914204D1E2
:10157000616A00F47010884201D00120EAE700207F
:10158000E8E70000001002400000424280044242AE
:10159000140000200070004010B5401EB0F1807FA4
:1015A00001D3012010BD4FF0E02460610F216017CE
:1015B00000F0D6FF0020A06107202061002010BDB0
:1015C00070477047F8B5016804460868CA684B69F7
:1015D00010F00F0F4FF0000559D003F0010602F490
:1015E0009077374365D0C10705D0D10503D5616C2D
:1015F00041F001016164410705D5D90703D0616C51
:1016000041F002016164810705D5D90703D0616CFF
:1016100041F004016164010707D502F02001314364
:1016200003D0616C41F008016164616C00293AD01B
:10163000800604D5900602D5204600F00BFE2068F7
:101640004069616CC0F38010090700D460B3204684
:1016500000F0CBFD20684069400621D52068143099
:1016600050E8001F21F0400140E80012002AF5D1A7
:10167000E06BA8B16D494163E06BFEF7D9FE00282D
:1016800011D0E06B416B01B0BDE8F0400847830624
:101690000FD593060DD52046BDE8F84000F0DABD21
:1016A0002046FFF78EFFF8BD2046FFF78AFF6564EE
:1016B000F8BD266B2023012E7CD1C6067AD5D6062E
:1016C00078D508684868009048694FF002064006DF
:1016D00040D5E16B086840680004000CE8D0A28D9A
:1016E0008242E5D9E085886920282DD020680C3019
:1016F00050E8001F21F4807140E80012002AF5D163
:101700002068143050E8001F21F0010140E8001269
:10171000002AF5D12068143050E8001F21F0400164
:1017200040E80012002AF5D184F842302563206891
:101730000C3050E8001F21F0100140E80012002A90
:10174000F5D1E06BFEF751FE6663A08DE18D401A86
:1017500081B22AE0A08DE18D401A81B2E08D00288F
:10176000A6D00029A4D022680C3252E8000F20F441
:10177000907042E80007002FF5D12068143050E83F
:10178000002F22F0010240E80027002FF5D184F855
:101790004230256320680C3050E8002F22F0100200
:1017A00040E80023002BF5D166632046FFF708FFD1
:1017B000F8BDFFE705062BD5150629D594F841009D
:1017C0002128F5D1A068B0F5805F01D12069B0B1C2
:1017D000206A411C2162216800784860E08C401E2C
:1017E0000004000CE084E3D12068C16821F080018E
:1017F000C1602068C16841F04001C160D8E7206A3B
:101800000088C0F308004860206A801C2062E5E779
:101810004006CDD55006CBD5CA68204622F04002FE
:10182000CA6084F8413000F01FF9C1E7ED200008DC
:1018300070B5040004D094F84100002510B106E012
:10184000012070BD84F84050204600F023F8242089
:1018500084F841002068C16821F40051C16020462D
:1018600000F05AFD2068016921F49041016120686F
:10187000416921F02A0141612068C16841F40051A9
:10188000C1606564202084F8410084F842006563EB
:10189000002070BD70B586B0002506460095019504
:1018A000029503950068224988423FD12149886901
:1018B00040F480408861886900F480400490886921
:1018C00040F00400886188691B4C00F0040004901B
:1018D000481500900220019003200390694620469D
:1018E000FEF7A2FF2015CDE90005694620460295C6
:1018F000FEF79AFF124C1148C4E900058020C4E9A4
:10190000025020202561C4E905502046E561FEF71C
:1019100085FE08B1FEF767FDF4630022114625201D
:101920006662FFF79BFB2520FFF78AFB06B070BDC0
:1019300000380140001002400008014058000240F9
:10194000B801002090F84230202B01D002207047CF
:1019500021B11AB10023036300F03ABD01207047A2
:1019600010B5084A016891420BD1074C074B21780A
:101970004A421944D2B24FF0FF3300F025F800205C
:10198000207010BD003801400000002070000020D1
:1019900070B50A4A016891420ED1094C4FF0FF33ED
:1019A0002178C1F18002D5B2064A11442A4600F0DE
:1019B0000BF820782844207070BD000000380140EA
:1019C00000000020700000202DE9F843044690F844
:1019D0004100984616460D46202802D00220BDE858
:1019E000F88385B17EB100206064212084F8410035
:1019F000FFF710F8A6848146E684A0682027B0F59A
:101A0000805F02D003E00120E9E7206910B12E4693
:101A100000250EE000260CE08021204600F020FD8D
:101A2000A8B9C6B116F8010B21684860E08C401EC9
:101A3000E084E08C4B464FF00002CDF80080002897
:101A4000EAD14FF04001204600F00AFD40B184F891
:101A500041700320C3E735F8020BC0F30800E3E749
:101A600084F841700020BAE77047FEE701684A69D0
:101A7000D24352050FD46FF480624A61002140F8CE
:101A8000301F202242738173026942F00402026116
:101A90000173012070470020704700002DE9F84FC6
:101AA0000446006889460B9D01689846174641F434
:101AB000806101602068016841F4807101600095D7
:101AC0004FF0011B0022594620460A9B00F0E4F823
:101AD0004FF4007A40B120680068C00501D5C4F811
:101AE00040A00320BDE8F88F216809F0FE000861DE
:101AF0002B46284920460A9A00F016F9F0BB2068C8
:101B00004169806900902A4620460A9900F0A2F9AE
:101B100040B1206C04283AD12068016841F400717A
:101B2000016034E0FEB2B8F1010F09D02168380A33
:101B300008612A4620460A9900F08CF90028E8D16D
:101B4000206806612A4620460A9900F083F9002899
:101B5000DFD12068016841F48071016000950022A6
:101B6000594620460A9B00F097F80028B3D1216817
:101B700009F0FF0040F00100086100E007E02B469B
:101B8000044920460A9A00F0CFF80028AAD0012084
:101B9000A8E70000020001002DE9F84304460068B0
:101BA0000D46DDE9089701689846164641F48071B4
:101BB00001604B4600224FF001112046009700F0D3
:101BC0006BF848B120680068C00502D54FF400707A
:101BD00020640320BDE8F883216805F0FE00086159
:101BE0003B464A461549204600F09EF888B92068D1
:101BF0004169806900903A464946204600F02AF93A
:101C000048B1206C042804D12068016841F40071B7
:101C100001600120DEE7F5B2B8F1010F09D02168BB
:101C2000300A08613A464946204600F013F9002878
:101C3000E7D1206805610020CCE700000200010028
:101C400070B516460D4604461EE02046FFF70EFF0F
:101C500008B1012070BD681C16D0FEF7DBFE801BAA
:101C6000A84200D885B920684069C04340070BD519
:101C7000002044F8300F20216173A073216941F0E6
:101C8000200121612073E4E720684069C0434007D8
:101C9000DBD4002070BD00002DE9F04798461746C0
:101CA0000D460446C1F30746DDF820902AE000BF48
:101CB000B8F1FF3F26D0FEF7ADFEA0EB090141458C
:101CC00002D8B8F1000F1DD12068012E16D080690E
:101CD00025EA00000004000C12D00020B84211D107
:101CE000002044F8300F20216173A073216941F076
:101CF0002001216120730120BDE8F0874069E7E7FA
:101D00000120EBE72068012E0AD0806925EA000057
:101D10000004000C06D00020B842C9D00020EBE738
:101D20004069F3E70120F7E72DE9F04798461646AA
:101D30000D4604464FF000094FF0200AC1F3074753
:101D400023E020684069C043400515D4206801683D
:101D500041F40071016021686FF480604861C4F84B
:101D6000309084F83DA084F83E90216C41F004014D
:101D7000216484F83C9021E0701C06D0FEF74AFEF6
:101D8000A0EB0800B04203D816B1012F1FD021E00C
:101D90002068012F15D0806925EA00000004000C9E
:101DA00018D000BF44F8309F84F80DA084F80E903E
:101DB000216941F02001216184F80C900120BDE8E7
:101DC000F087406925EA00000004000CEAD1206891
:101DD000406901E02068806925EA00000004000CE9
:101DE000AFD1ECE72DE9F041002590460E460446C0
:101DF000202728E04069C043C0060CD454F8301BAB
:101E00006FF01000486144F810596777A577206A91
:101E10002062257714E0FEF7FDFDA0EB0800B0423C
:101E200000D886B920684069C04340060BD544F805
:101E3000305F6773A573206940F02000206125732F
:101E40000120BDE8F08120684169C9434906D1D429
:101E50000020F6E770B516460D4604461EE0204603
:101E6000FFF704FE08B1012070BD681C16D0FEF714
:101E7000D1FD801BA84200D885B920684069C043C5
:101E800000060BD5002044F8300F20216173A073A9
:101E9000216941F0200121612073E4E72068406955
:101EA000C0430006DBD4002070BD00000A4B0128AF
:101EB00008D002280ED1C001012906D0002909D17D
:101EC000012203E04FF40070F6E7002201461846B5
:101ED000FEF79ABD70470000000C0140094808B5A4
:101EE000416941F0010141614069002200F00100B7
:101EF000009011460F20FFF7B1F8BDE808400F2011
:101F0000FFF79EB8001002402DE9F04186B0002591
:101F100038480095019502950395816941F01001BB
:101F20008161816901F010010491816941F0200112
:101F30008161816901F020010491816941F008010A
:101F40008161816901F008010491816941F0040116
:101F500081618069284F00F004004FF40054049020
:101F6000002221463846FEF74FFDDFF89080002220
:101F700002214046FEF748FD01224FF440714046E1
:101F8000FEF742FD009401AA0124022682E87000B7
:101F900069463846FEF748FC40F202308DE8710091
:101FA00069464046FEF740FC154D4FF22000CDE952
:101FB0000005694602944046FEF736FC2002CDE952
:101FC0000005694602940F48FEF72EFC00221146D8
:101FD0001720FFF743F81720FFF732F800221146C9
:101FE0002820FFF73BF82820FFF72AF806B0BDE8C5
:101FF000F08100000010024000100140000C014080
:1020000000002110000801400D4810B50B49016087
:102010000C49416000214FF480428160C0E9031205
:1020200041618161C1610162FEF7FAFC002803D0C1
:10203000BDE81040FEF7D7B910BD000000540040C5
:102040001C000020A08601000C4810B50A49016060
:102050004FF4E1314160002181600C22C160C0E990
:1020600004128161C161FFF7E3FB002803D0BDE8E2
:102070001040FEF7B8B910BD0038014070010020D3
:10208000FEE7FEE770477047FEF782BF30B58FB0BE
:1020900028216846FEF75FF814210AA8FEF75BF8CE
:1020A00001210804CDE900100024029402250491C6
:1020B000CDE907504FF4E01009906846FFF7DCF8CF
:1020C00008B172B6FEE70F20CDE90A054FF4806033
:1020D000CDE90C4002210AA80E94FEF7F1FF00287A
:1020E00001D072B6FEE70FB030BD704710B5406A40
:1020F0000021C185C184FFF764FA10BD70B5446A40
:102100002068406994F84110C0F3C01000252129CF
:1021100004D118B1E584204600F08EF820684069AB
:1021200094F84210C0F38010222904D118B1E5853B
:10213000204600F05AF8606C40F0100060642046C1
:10214000FFF73FFA70BD10B50146406A096809689B
:102150004FF0000289062ED4C28501680C3151E887
:10216000003F23F4807341E80034002CF5D101686E
:10217000143151E8003F23F0010341E80034002C02
:10218000F5D10168143151E8003F23F0400341E8E4
:102190000034002CF5D1202180F84210016B012978
:1021A00009D101680C3151E8003F23F0100341E8E8
:1021B0000034002CF5D14263016B012902D0FFF7F6
:1021C000CFFB10BD818DFFF7FBF910BD10B5406A44
:1021D00001214163016B012902D0FFF7D9FB10BD3A
:1021E000818D4908FFF7ECF910BD01680C3151E809
:1021F000002F22F4907241E80023002BF5D10168F2
:10220000143151E8002F22F0010241E80023002B95
:10221000F5D1016B012909D101680C3151E8002F7A
:1022200022F0100241E80023002BF5D1202180F894
:10223000421000210163704701680C3151E8002F02
:1022400022F0C00241E80023002BF5D1202180F8C4
:102250004110704708B590F84210222901D00220A1
:1022600008BD82684FF480539A4201D1016921B1BF
:10227000816A9A421BD04AB10AE00268816A5268B8
:10228000C2F308020A80816A891C08E0026972B1FF
:102290000268526802F07F020A70816A491C8162FA
:1022A000C18D491E0904090CC18503D01BE00268D9
:1022B0005268F1E70168CA6822F02002CA6001682A
:1022C000CA6822F48072CA6001684A6922F0010279
:1022D0004A61202180F8421000214163026B012AEB
:1022E00003D0FFF73DFB002008BD016301680C31FE
:1022F00051E8002F22F0100241E80023002BF5D115
:1023000001680A68D20602D50A6849680091818D81
:10231000FFF756F9E7E7000070B504460068016969
:10232000E26821F44051114301612169A06808432A
:10233000616908432168CA6841F20C639A43024309
:10234000CA6020684169A26921F44071114341616A
:102350001E492068884202D1FEF758FF01E0FEF7CF
:1023600045FF00EBC00101EB0012606864218000B2
:10237000B2FBF0F3B3FBF1F36FF018067343B2FB5B
:10238000F0F5B2FBF0F605EB8305322303EB051500
:10239000B5FBF1F5B6FBF1F605F0F00505EB06151A
:1023A000B2FBF0F6B2FBF0F0B0FBF1F06FF0180208
:1023B000504306EB800003EB0010B0FBF1F0216806
:1023C00000F00F002844886070BD00000038014014
:1023D00038B581620446828500201346606422225B
:1023E00084F84220E56B1B4AAA62E56B1A4AEA624E
:1023F000E56B1A4A2A63E26B50630A462168E06B78
:10240000091DFEF739F920680168406800902069CD
:1024100048B120680C3050E8001F41F4807140E85A
:102420000012002AF5D12068143050E8001F41F056
:10243000010140E80012002AF5D12068143050E86C
:10244000001F41F0400140E80012002AF5D10020B1
:1024500038BD000047210008CD210008FD200008FC
:102460002DE9F843984617460D460446089E24E099
:10247000701C22D0FEF7CEFAA0EB0800B0421AD8AA
:10248000CEB12068C168490717D5802D15D0402DE1
:1024900013D00168C94309070FD4016800254068BB
:1024A00000902046FFF7A1FE0820606484F84050A9
:1024B0000120BDE8F8830320FBE72068006835EAC7
:1024C000000004D00020B842D2D00020F1E7012063
:1024D000F9E7000010B50448FFF774F8BDE81040B4
:1024E000014800F003B800007001002038B50F4A21
:1024F0000168914218D10A68D243D20614D40A68FE
:10250000496800910A49096849680A4C4A424FF0F3
:10251000FF332178521AD5B2074A11442A46FFF7F1
:1025200053FA20782844207038BD0000003801405C
:10253000B80100200000002070000020FEE700002D
:102540000FB4054B10B503A9044A029800F028F80F
:1025500010BC5DF814FB0000F929000818000020E9
:102560000907090E002804DB00F1E02080F80014C0
:10257000704700F00F0000F1E02080F8141D704754
:1025800002E008C8121F08C1002AFAD1704770473C
:10259000002001E001C1121F002AFBD1704700009A
:1025A0002DE9FF4F8DB00F460546002606E0252891
:1025B0000BD0DDE90F1290476D1C761C287800289F
:1025C000F5D111B03046BDE8F08F0024A246A146F7
:1025D0000122E94900E0044315F8013F203B02FADB
:1025E00003F00842F7D128782A2810D06FF02F0284
:1025F0002878A0F13001092914D80AEB8A0102EBEE
:10260000410144F0020400EB010A6D1CF0E701CF28
:102610005FEA000A03D544F40054CAF1000A44F00A
:1026200002046D1C28782E2817D115F8010F44F0EC
:1026300004042A280ED06FF02F022878A0F1300170
:1026400009290AD809EB890102EB410100EB0109D4
:102650006D1CF2E757F8049B6D1C28786C280FD08E
:1026600006DC4C2817D068280DD06A2814D104E065
:10267000742810D07A280FD10DE044F400140AE039
:1026800044F4801401E044F440146978814202D19A
:1026900004F580146D1C6D1C28786E281ED00CDC8F
:1026A000632830D004DC00288BD0582811D19FE05B
:1026B000642867D069280CD164E073282DD004DC2D
:1026C0006F2872D0702804D194E075286ED07828D5
:1026D0006DD0DDE90F129047761C4BE1C4F3025038
:1026E000022806D0032809D0042801CF09D00660AB
:1026F00040E101CFF117C0E900613BE101CF068065
:1027000038E1067036E117F8040B8DF80000002060
:102710008DF80100EB46012003E057F804BB4FF0B1
:10272000FF3061074FF0000102D40DE008F1010114
:10273000884649450FDA8045F8DB1BF80810002968
:10274000F4D108E008F1010188468142FADB1BF868
:1027500008100029F6D1DDE90F23AAEB0800814615
:10276000214600F031F9304400EB080604E0DDE9D1
:102770000F121BF8010B9047B8F10108F7D2214660
:102780004846F2E00A21C4F302524FF0000B0891D0
:10279000022A04D001CFC117032A09D00AE0FF1D85
:1027A00027F00707F7E8020108E02CE01EE01FE031
:1027B00000B2C117042A01D140B2C117021E71F143
:1027C000000206DA0023D0EB030063EB01012D22A7
:1027D00002E0220504D52B228DF82420012203E0FB
:1027E000E20701D02022F7E7904653E00A210BE0F0
:1027F000102109E010214FF0000B44F004044FF0C9
:102800000809089103E008214FF0000B0891C4F378
:102810000252022A04D001CF0021032A06D006E08A
:10282000FF1D27F00707F7E8020103E080B2042A42
:1028300000D1C0B24FF0000822072BD52A78702AA9
:1028400007D0DDF820C08CF0100C5CEA0B0C05D032
:102850000EE040228DF82420012208E050EA010316
:1028600006D030238DF824308DF8252002229046A2
:10287000089B83F0080353EA0B030BD150EA0102D3
:1028800001D1620706D530228DF824204FF00108CF
:10289000A9F101092A78582A04D038A20B9208AA73
:1028A0000A920BE03AA2F9E75B46089AFDF76BFC47
:1028B0000B9B9B5C0A9A521E0A92137050EA01020B
:1028C000F2D10A98ADEB000000F1200B600702D5B1
:1028D00024F4803401E04FF00109D94502DDA9EB71
:1028E0000B0000E0002000EB0B0141440890AAEB34
:1028F000010AE00306D4DDE90F232146504600F02B
:1029000063F806444FF0000908E009A911F809002E
:10291000DDE90F12904709F10109761CC145F4DB8E
:10292000E0030CD5DDE90F232146504600F04CF8BA
:10293000064404E0DDE90F1230209047761C089928
:10294000481E08900029F5DC08E00A980A990078EA
:10295000491C0A91DDE90F129047761CBBF100017A
:10296000ABF1010BF1DC21465046DDE90F2300F00D
:1029700019F806446D1C21E6092801003031323374
:1029800034353637383961626364656600000000AB
:102990003031323334353637383941424344454695
:1029A000000000002DE9F041044600251E461746B0
:1029B000880404D405E039462020B0476D1C641E0D
:1029C000F9D52846BDE8F0812DE9F04104460025FF
:1029D0001E469046C80301D5302700E02027880412
:1029E00004D505E041463846B0476D1C641EF9D554
:1029F0002846BDE8F081000013B54FF0FF330122F7
:102A000069460248FEF7E0FF00981CBD70010020F7
:102A1000FEF7C6FAFFF73AFBFFF776FAFFF75EFA22
:102A2000FFF712FBFFF7F0FA08A0FFF789FD0C484B
:102A30000068C16841F01001C1604FF4807209491B
:102A40000748FEF77FFFFDF71FFCFEE75561727434
:102A50003120696E6974206973206F6B0A00000071
:102A60007001002070000020010202030405060727
:102A700008090A0B0C0D0E0F1010000000000000DA
:102A8000000001020304060708090000000001021B
:102A900003040000B42A0008000000201C0000000D
:102AA00080250008D02A00081C000020E405000052
:102AB0009025000800000000000000000100000058
:102AC000100000000000000000127A00000000006A
:04000005080000ED02
:00000001FF
