:020000040800F2
:10000000B02400209D0100089B580008274B0008E1
:1000100099580008B50F00080568000800000000A6
:1000200000000000000000000000000005010008C2
:10003000A31000080000000049010008955F0008B7
:10004000B7010008B7010008B7010008B7010008B0
:10005000B7010008B7010008B7010008B7010008A0
:10006000B7010008B7010008B7010008B701000890
:10007000B701000855100008B7010008611000081A
:100080006D100008B7010008B7010008B7010008AB
:100090004D660008B7010008B7010008F712000814
:1000A000B701000849600008B7010008B70100085F
:1000B000B7010008B701000855600008B701000843
:1000C000B7010008B7010008B7010008B701000830
:1000D000B7010008056600081D66000835660008BF
:1000E000D1120008B7010008B7010008DFF810D0EE
:1000F00000F0E6FC004800471D770008AFF30080E1
:10010000B0240020224B19680868B0E8F00F80F393
:100110000988BFF36F8F4FF0000080F311884EF015
:100120000D0E70470000000006480068006880F36C
:10013000088862B661B6BFF34F8FBFF36F8F00DFE1
:1001400000BF00BF08ED00E0EFF30980BFF36F8F41
:100150000F4B1A6820E9F00F106008B54FF05000FF
:1001600080F31188BFF34F8FBFF36F8F07F0E8FE66
:100170004FF0000080F31188BDE808401968086856
:10018000B0E8F00F80F30988BFF36F8F704700BFAE
:1001900044000020EFF305807047000006488047C8
:1001A00006480047FEE7FEE7FEE7FEE7FEE7FEE75C
:1001B000FEE7FEE7FEE7FEE747600008ED00000807
:1001C000202A04DB203A21FA02F00021704721FAAC
:1001D00002F3D040C2F12002914008431946704713
:1001E00038B5D0E90221491E01EB410102EBC10102
:1001F0004268C1EB011102EB81010268C1EB011100
:1002000002EB8102D0E9043101EB410103EB8101F2
:100210003023A1F5527191FBF3F4174D6C4302EBBF
:10022000C41291FBF3F403FB141100921A2902DBB0
:10023000124B1A4400920C2291FBF2F3104C6343D0
:10024000009C04EBC313009391FBF2F302FB131128
:100250000C4A08E0491E40F2A324535C6343009C0F
:1002600004EBC31300930029F4DC0146684600F058
:100270001DFB009838BD00003F0C0F0080510100AD
:1002800067C20300808B000840EA01039B0703D08C
:1002900009E008C9121F08C0042AFAD203E011F8C5
:1002A000013B00F8013B521EF9D27047D2B201E087
:1002B00000F8012B491EFBD270470022F6E710B56B
:1002C00013460A4604461946FFF7F0FF204610BDC4
:1002D00030B505462A460B4612F8010B13F8014BC0
:1002E00008B1A042F8D01CB1002802D06D1CF1E783
:1002F000284630BD421C10F8011B0029FBD1801A92
:10030000704730B504460020034600E05B1C934272
:1003100003D2E05CCD5C401BF8D030BD034611F841
:10032000012B00F8012B002AF9D11846704780EA0A
:10033000010210B502F00043400022D04A001FD055
:10034000010E01EB1261C0F35600C2F3560240F4F5
:10035000000042F40002A0FB022000047F391404D4
:1003600000D0401C50EA124001D44000491EC2B2E5
:100370000C0604EBD010401C4008802A02D003E099
:10038000002010BD20F00100002900DA00201843F1
:1003900010BD30B480EA010202F0004530F00042A6
:1003A00021F0004013D090B1C30DD40DC2F316015B
:1003B000C0F31600E41A41F4000140F400027D3459
:1003C000914201D3641C00E04900002C02DA30BCE9
:1003D000002070474FF400000023914201D3891A96
:1003E000034340084FEA4101F7D151B1914202D194
:1003F0004FF0004105E002D24FF0010101E06FF043
:10040000010103EBC450284430BC00F095BA2DE93B
:10041000FE4F804681EA0300C00F0C46009021F099
:10042000004123F00045B8EB0200A94105D2404647
:10043000214690461C460B46024623F000401043DE
:1004400047D0270DC7F30A00C3F30A510290401AA0
:10045000019040286BDAC3F3130040F4801B00982E
:10046000924620B10023D2EB030A63EB0B0B0198F9
:100470005946C0F14002504600F0F0F906460D46DC
:1004800050465946019A00F0F8F910EB0800614116
:10049000002487EA115284EAE7731A4340D0009A95
:1004A00062B3019A012A4FEA075215DC001B61EB87
:1004B00002014FF0004202EA0752CDE90042001C5F
:1004C00041F5801132462B4600F07CFA03B0BDE8BE
:1004D000F08F40462146F9E7001B61EB0201001C4A
:1004E00041F5801300185B412018A2F5001747EB77
:1004F000030140EAD570B6196D4111E06D084FEA6D
:10050000360645EAC0754FEA0752001B61EB02014F
:10051000001C41F5801149084FEA30000019514193
:1005200032462B4603B0BDE8F04F00F03CBA0098CD
:10053000012240000023D0EB020263EBE07300983D
:1005400021464FEAE074B8EB000061EB0401E9E7F3
:1005500083F000435BE781F0004158E72DE9FE4F4F
:1005600081EA030404F0004421F0004100944FF0BC
:10057000000B23F0004350EA01045ED052EA03046A
:100580005BD0C3F30A54C1F30A552C44A4F2F334EC
:100590000194A0FB0254C1F3130141F48011C3F391
:1005A000130343F4801301FB024400FB034E840A4F
:1005B000970A44EA815447EA8357A4FB07680295E7
:1005C0008D0A05FB07854FEA932C04FB0C54270585
:1005D000029D4FEA065847EA1637B5EB08056EEB61
:1005E000070C870E920E47EA811742EA8312A7FB97
:1005F0000201B6EB0B0164EB00042B0D43EA0C3354
:100600005E1844EB1C50DA465146E7FB0201C5F385
:1006100013044FEA0B3343EA14534FEA0432019CAC
:1006200043EA0603A4F10C040294009CCDE900B453
:1006300000F0C8F903B0BDE8F08F00200146F9E7EB
:100640002DE9F04D81EA030404F0004B21F0004550
:1006500014464FF0000A23F0004150EA050220D072
:1006600054EA01021DD0C5F30A570246C5F313032D
:10067000C1F31300C1F30A5640F4801543F480130C
:10068000A7EB0608101BD64608F2FD3873EB0500F1
:1006900002D308F1010801E092185B41B8F1000FA4
:1006A00003DA00200146BDE8F08D00204FF48011F0
:1006B000064684460EE0171B73EB050705D3121B95
:1006C00063EB050306434CEA010C49084FEA30008E
:1006D00092185B4150EA0107EDD152EA030012D0B3
:1006E00082EA040083EA0501084305D0101BAB41F0
:1006F00006D20122002306E000224FF0004302E070
:100700006FF0010253101AEB06004CEB085110EB8E
:100710000A0041EB0B01BDE8F04D00F044B970B5A3
:1007200021F0004303430CD0C1F30A550024D5EB5C
:10073000040564EB0403D617AD1AB34102DB0020B5
:10074000014670BD201841EB025170BD9623002276
:10075000114600F0FAB80EB540F233410291002183
:10076000CDE900110A460B4600F02CF903B000BD9C
:1007700000F0004230F000400AD0C10D01F5607178
:10078000C0F3160042EA0151C20840071143704706
:1007900000200146704701F0004330B421F00041D1
:1007A00050EA010206D00A0DA2F56072C1F31301EE
:1007B000002A02DC30BC00207047440F44EAC10428
:1007C000C100E01830BC00EBC25000F0B5B830B545
:1007D0000B46014600202022012409E021FA02F5FF
:1007E0009D4205D303FA02F5491B04FA02F5284499
:1007F000151EA2F10102F1DC30BD2DE9F05F0546C6
:10080000002092469B4688460646814640241BE0CF
:100810002846414647462246FFF7D2FC53465A46F1
:10082000C01A914110D311461846224600F016F81E
:100830002D1A67EB01084F4622460120002100F0E7
:100840000DF817EB00094E41201EA4F10104DFDC76
:10085000484631462A464346BDE8F09F202A04DB3D
:10086000203A00FA02F1002070479140C2F12003C3
:1008700020FA03F3194390407047202A06DBCB1778
:10088000203A41FA02F043EAE07306E041FA02F34B
:10089000D040C2F120029140084319467047000041
:1008A000014900F003B800008420002010B5006862
:1008B0003C22B0FBF2F302FB1303B0FBF2F00B603F
:1008C000B0FBF2F302FB1303B0FBF2F018224B6013
:1008D000B0FBF2F302FB1303B0FBF2F0021D8B60DE
:1008E0000723B2FBF3F403FB1422800040F2B5535C
:1008F00000F66C308A61B0FBF3F2B0FBF3F403FB5B
:100900001400443280084A61C8613B2802D3920730
:1009100000D0401C0022074C13460A61E25C824270
:1009200003D8801A5B1C0B61F8E7401CC8600846BE
:1009300010BD00008C8B00080029A8BF7047401C28
:10094000490008BF20F00100704710B4B0FA80FCE5
:1009500000FA0CF050EA010404BF10BC704749B122
:10096000CCF1200421FA04F411FA0CF118BF012192
:1009700021430843A3EB0C01CB1D4FEA00614FEA72
:10098000102042BF002010BC704700EBC350104441
:100990000029A4BF10BC7047401C490008BF20F0CC
:1009A000010010BC704710B5141E73F1000408DA82
:1009B000401C41F1000192185B411A4301D120F023
:1009C000010010BD2DE9F04D92469B4611B1B1FAE0
:1009D00081F202E0B0FA80F220329046FFF73EFF4B
:1009E00004460F4640EA0A0041EA0B0153465A46C4
:1009F000084313D0114653EA010019D0C8F1400250
:100A00005046FFF7DDFB05460E4650465946424626
:100A1000FFF724FF084305D0012004E020463946B3
:100A2000BDE8F08D0020054346EAE0762C433743CD
:100A30000A986305E40AA0EB08000022FD0A44EAD4
:100A400047540A3002D500200146E9E70105101994
:100A50006941DDE9084500196941BDE8F04DA2E7AB
:100A6000C1F30A52C1F3130140F2FF3341F4801184
:100A70009A4202DA00200146704740F233439A421C
:100A8000A2F2334202DC5242FFF79ABBFFF7E6BE06
:100A900030B5041E71F1000404DB4FF00044404205
:100AA00064EB0101141E73F1000405DB1C464FF0DA
:100AB0000043524263EB0403994208BF904230BDA9
:100AC000064C074D06E0E06840F0010394E807009B
:100AD00098471034AC42F6D3FFF70CFBBC8B0008F0
:100AE000DC8B000870B5044600688168C943C907FB
:100AF00017D1816821F00101816001F0B5FD054643
:100B00000AE000BF01F0B0FD401B022804D92068B4
:100B10008068C043C00706D020688068C043C00713
:100B2000F0D0002070BDA06A40F01000A062E06A22
:100B300040F00100E062012070BD0000F8B5002621
:100B40000446009600688168C943C9072DD08168B2
:100B500041F001018160164816490068B0FBF1F0D0
:100B600000E0401E00900028FBD101F07DFD05460D
:100B700016E000BF01F078FD401B022810D9206864
:100B80008068C043C0070BD0A06A40F01000A0628C
:100B9000E06A40F00100E06284F824600120F8BDC2
:100BA00020688068C043C007E4D10020F8BD000081
:100BB0004000002040420F002DE9F04F8DB0202171
:100BC00004A8FFF77AFB01240725002701A94B4859
:100BD0000194CDE9024500F0B3FC08B100F0D0FB70
:100BE0000026464800F086FE6421444800F0E4FDFB
:100BF00018B9424800F022FD0744761CF6B20A2ECE
:100C0000EFD30A26B7FBF6F0FFF7A5FDDFF8F0A05B
:100C10004FF066394A465346FFF7A0FCDFF8E4B0D0
:100C200000225B46FFF70CFDFFF7B5FDFFF7A0FDC7
:100C3000074688463A46434633A006F0D5F83A467A
:100C4000434634A104A806F0DFF8022304AA0421D5
:100C5000002004F0E5FE01A9102081E83100002702
:100C6000264800F06DFC08B100F08AFB00244FF428
:100C70007A75224800F03EFE2946204800F09CFD8F
:100C800018B91E4800F0DAFC0744641CE4B20A2CD0
:100C9000EFD3B7FBF6F0FFF75EFD4A465346FFF78A
:100CA0005DFC00225B46FFF7CBFC1F4A1F4BFFF7A2
:100CB00052FC1F4A1F4BFFF7C3FC00221E4BFFF7DD
:100CC000A6FBFFF768FDFFF753FD04460E462246DC
:100CD00033461AA006F088F8224633461BA104A822
:100CE00006F092F8022304AA0621002004F098FEE0
:100CF000284601F075FB0DB0BDE8F08F2C070020F1
:100D000066660A4000FEAF405652203A20252E3239
:100D100066560A00565220203A20252E326620566A
:100D20002020202000000000E17A14AE47E1F63FC9
:100D300022FDF675E09C713F00003940435055207C
:100D40003A20252E316620430A00000043505520EA
:100D50003A20252E31662043202000001CB5BE20FD
:100D60008DF8040008208DF8050000208DF806009D
:100D70004FF6FF700090032301AA7021014801F093
:100D800065FE1CBD840900201CB5282001F028FB4D
:100D9000BE208DF8040008208DF8050000208DF895
:100DA00006004FF6FF700090032301AA702105484A
:100DB00001F04CFE00F086F8000701D4FFF7CEFFEB
:100DC0001CBD00008409002070B586B000208DF89D
:100DD00000008DF800008DF800008DF800008DF8FF
:100DE00000008DF80000AC218DF80C1033218DF837
:100DF0000D1004468DF80E004FF6FF75032303AA6D
:100E000070212B48009501F021FE502001F0E8FAF6
:100E100007E0012001F0E4FA2046641CA4B2642833
:100E200003D200F04FF80006F3D4062301AA702184
:100E30001F48009501F0E2FC9DF805009DF80610A2
:100E40009DF8074041EA002144EA01200009FFF72C
:100E500082FC0022174BFFF781FB6FF00906324638
:100E6000FFF75DFC3246FFF75AFCFFF794FC124D8A
:100E700028609DF808109DF8090041EA042140EA25
:100E80000120C0F31300FFF766FC00220B4BFFF7B5
:100E900065FB3246FFF743FC3246FFF740FC002279
:100EA000074BFFF755FBFFF776FC686006B070BD97
:100EB0008409002000005940000000200000694023
:100EC000000049401CB54FF6FF700090012301AAB5
:100ED0007021034801F092FC9DF804001CBD000045
:100EE0008409002010B590B0FFF76EFF184C206801
:100EF000FFF73EFC02460B4616A005F075FF606842
:100F0000FFF736FC02460B4616A005F06DFF206881
:100F1000FFF72EFC02460B4616A1684605F074FF4B
:100F200002236A460321002004F07AFD6068FFF77F
:100F30001FFC02460B4613A1684605F065FF02231D
:100F40006A460521002004F06BFD10B010BD0000C2
:100F500000000020524820203D252E316620252506
:100F60000A00000054656D703D252E316620430A4D
:100F700000000000524820203A252E316620252509
:100F80002000000054656D703A252E316620432004
:100F900000000000064B4FF40051012805D0002846
:100FA00005D10022184601F059BB0122FAE770472B
:100FB00000100140FEE7000000B58BB000200121C9
:100FC00003900490CDE90601CDE90810059000904A
:100FD000019002906946044800F066FD002801D0A7
:100FE00000F0CEF90BB000BD5C07002010B508483A
:100FF00001F044F808B100F0C3F90221044800F000
:10100000D9FC002803D0BDE8104000F0B9B910BDEC
:101010005C07002000B589B00BA108ABD1E9000145
:10102000CDE90601002002900390122108200091D2
:10103000049006AA6946064800F0CEFC002801D0BC
:1010400000F09EF909B000BD01020304050607087F
:101050005C070020014801F0B3B80000EC0E00204E
:10106000014801F0ADB80000640E0020014801F015
:10107000A7B80000A80E002030B590F84050012419
:10108000AC40C56B6C60046863604368102B0368F8
:1010900003D099600068C26030BD9A600068C1608A
:1010A00030BD704710B50C46034604F025FD10B165
:1010B0004FF0FF3010BDD3F80021521CD01702EBC7
:1010C000106020F0FF00101AC3F80001185C2070B7
:1010D000002010BD214C207802283BD100210223A2
:1010E0001FA2084604F09CFC022322A219460020FD
:1010F00004F096FC02231FA20421002004F090FCBF
:1011000002231CA20621002004F08AFCFFF7EAFE5D
:101110004FF47A75284606F08BFB002102231AA2B1
:10112000084604F07DFC022312A21946002004F0B8
:1011300077FC02230FA20421002004F071FC02239B
:101140000CA20621002004F06BFC04F04BF82846AA
:1011500006F06EFB642006F06BFBBCE70A00002083
:1011600020202041485432302054657374202020C0
:1011700000000000202020202020202020202020EF
:101180002020202000000000202020494E41323243
:101190003620546573742020000000002DE9FE43C2
:1011A0002B4E0020014606F5807530542954401C12
:1011B00080B2FF28F9D927A005F016FE00244FF4CD
:1011C0007A774FF008083119CDE90018012322463B
:1011D0000297A021264801F0FDFD052001F000F94D
:1011E0000834A4B2FF2CEED922A005F0FDFD142096
:1011F00001F0F6F84FF480768DE8E000012300223C
:10120000A1211B4801F0B8FC002420A0295D05F0B5
:10121000EBFD641CFF2CF8DD1EA005F0E5FD0C497C
:10122000324601F58070FFF76CF820B1BDE8FE434F
:1012300019A005F0D9BD1DA005F0D6FD03B002230D
:10124000BDE8F04304211DA2002004F0E9BB00002A
:101250008407002077726974696E67206461746125
:1012600020746F20656570726F6D2E2E2E0A00003F
:1012700084090020726561642066726F6D20656567
:1012800070726F6D2E2E2E0A00000000307825300F
:10129000325820000A000000656570726F6D20747E
:1012A000657374206661696C0A0000006565707280
:1012B0006F6D2074657374206F6B0A004545505242
:1012C0004F4D2054657374204F4B202000000000C8
:1012D00010B54FF4805001F0C5F84FF4005001F004
:1012E000C1F84FF4804001F0BDF8BDE810404FF464
:1012F000004001F0B7B810B5202001F0B3F8BDE808
:1013000010404FF4807001F0ADB8000010B50C46ED
:10131000034604F0F9FB28B109A005F065FD4FF084
:10132000FF3010BDD3F80421521CD01702EB10601F
:1013300020F0FF00101AC3F804011C54002010BD57
:1013400071756575652069732066756C6C0A00009F
:101350002DE9F04116460D46074600240CE0297899
:101360003846FFF7D3FF002803DA4FF0FF30BDE81F
:10137000F081641CA4B26D1CB442F0D30020F6E7E7
:1013800072B6FEE700261E4C1E4D771E20780628FA
:101390002FD10021267002231BA2084604F040FB37
:1013A00002231EA21946002004F03AFB02231BA2CE
:1013B0000621002004F034FB05F08AFC01284FF0E0
:1013C00002031AD01AA20421002004F029FB0122F2
:1013D0000421284601F042F93B460A2219A11C4883
:1013E00003F050FB00220421284601F037F9FFF7F3
:1013F00011FE642006F01CFAC8E716A2E3E700001D
:101400000A000020000C014020574946493447207B
:1014100043414E2034383520000000002020202099
:10142000202020202020202020202020000000003C
:101430005749464934472054657374204661696CA6
:101440000000000052533438352054657374000096
:10145000D40D002057494649344720546573742001
:101460004F4B202000000000F8B5002504460095F1
:1014700090F8240001280BD0012084F82400204695
:10148000FFF730FB2046FFF759FB060002D050E083
:101490000220F8BDA06A20F4885040F00200A0624B
:1014A000022001F027FE25490968B1FBF0F0400059
:1014B00000E0401E00900028FBD12068816841F0C8
:1014C0000801816001F0D0F8074608E001F0CCF88F
:1014D000C01B0A2803D920688068000715D420683B
:1014E00080680007F2D42068816841F004018160BF
:1014F00001F0BAF8074612E001F0B6F8C01B0A285E
:101500000DD920688068400709D5A06A20F0020044
:1015100040F01000A06284F824500120F8BD20683B
:1015200080684007E8D4A06A20F0020040F0010083
:10153000A06284F824503046F8BD0000400000202E
:10154000F8B50024009490F824202546012A12D0F2
:10155000012280F824204A681F23072A0DD206683A
:10156000776B521E02EB820293409F430B689340BD
:101570001F43776319E00220F8BD06680D2A0AD2DE
:10158000376BD21F02EB820293409F430B6893405C
:101590001F43376309E0F76A0D3A02EB820293407A
:1015A0009F430B6893401F43F7620A68072306684E
:1015B0000A2A0AD3F7680A3A02EB420293409F4391
:1015C0008B6893401F43F76008E0376902EB4202E3
:1015D00093409F438B6893401F4337610A68102AEA
:1015E00001D0112A20D1124B02689A4217D1936878
:1015F0001B0219D4936843F400039360096810290F
:1016000012D10C490C4A0968B1FBF2F101EB8101DE
:10161000490000E0491E00910029FBD104E0816AE5
:1016200041F020018162012480F824502046F8BD59
:10163000002401404000002040420F000068C06CC0
:10164000704700002DE9F0414FF0000704003D46CF
:101650007ED0A06A002628B9E66284F8246020467D
:1016600000F07EF82046FFF73DFAA16AC90600D4D3
:1016700020B1A06A40F01000A06269E0A16A21F4E4
:10168000885141F00201A1626268E169237B0A434B
:1016900047EA43010A43A1684FF48077B94209D071
:1016A000012907D05FF0000194F814C0BCF1010FCC
:1016B00002D00AE03946F7E7F3B1A36A43F020030A
:1016C000A362E36A43F00103E3622368D3F804C032
:1016D0002CF4694C4CEA010CC3F804C021688B68F7
:1016E000DFF870C003EA0C0313438B60A168B942B2
:1016F0000BD0012909D00CE0DFF85CC0A3690CEB2A
:1017000043330B4343F40061DFE7218A0D05A5F560
:1017100080152168CB6A23F470032B43CB622168C8
:1017200089680E4B1940914208D1E662A16A21F006
:10173000020141F00101A162BDE8F081A06A20F040
:10174000020040F01000A062E06A40F00100E06298
:101750000120F1E7FDF7E1FF00E0FFFFFE0E1FFFB4
:1017600000B585B0002100910191029103910068BC
:101770000E49884218D10E48816941F40071816197
:10178000816901F400710491816941F00401816172
:101790008069694600F00400049002200090032054
:1017A0000190044800F06AFE05B000BD002401402D
:1017B00000100240000801402DE9F84300270D46C3
:1017C0000446009700F050FF804620688168C905F4
:1017D00008D5A06A40F02000A06284F8247001209F
:1017E000BDE8F8834168C90503D4C06A10F4700FDE
:1017F0002AD0022001F07EFC3B490968B1FBF0F6DB
:101800002068036939490B424FEA61014FEAA1128E
:101810001FD1C3684FEA611C13EA0C0F19D1036989
:101820000B4225D1C068104222D1142023E0681C4D
:101830000AD02DB100F018FFA0EB0800A84203D990
:1018400020680068800725D5206800688007EED5ED
:101850002DE003690B4202D1C168114206D0026932
:1018600023490A4206D1C068084203D1542002E04D
:10187000292000E0FC204643009816E0681C11D0A7
:101880002DB100F0F1FEA0EB0800A8420AD90098A3
:10189000B04207D2A06A40F00400A06284F824702D
:1018A00003209DE70098401C0090B042E6D32168D9
:1018B0006FF012000860A06A40F40070A062206817
:1018C0008068C0F3424007280CD1207B50B9A06A41
:1018D00020F48070A062A06AC00403D4A06A40F023
:1018E0000100A06200207BE74000002024499224F0
:1018F0004992240070B5044690F8240001280DD0C8
:10190000012084F824002046FFF718F902004FF068
:10191000000005D084F82400104670BD022070BD80
:10192000A16A40F20123994341F48071A1621F4DE5
:1019300023681F49AB4218D10E6816F4702F14D0DB
:10194000A66A46F48016A6620E68760505D5A66AD4
:1019500026F4005646F48056A662A66AF6040AD516
:10196000E66A26F00606E66206E0A66A26F4801617
:10197000A6625E68E9E7E06284F824006FF0020086
:10198000186020688368C3F34243072B05D1A8423F
:1019900008D1096811F4702F04D0816841F48011D6
:1019A0008160B9E7816841F4A001F9E700280140AE
:1019B0000424014090F82020012A07D0022A05D0F3
:1019C000416A41F480214162012070470068426908
:1019D0000A43426100207047F0B590F82050046837
:1019E000A468012D05D0022D03D0416A41F4802165
:1019F00057E014F0406F01D1E5004FD5C4F3016406
:101A00000125A5401D608D684FF4C0739DB1CE685F
:101A100035434E6845EAC605066803EB0417F551E1
:101A20004FF4C275076805EB04150E697E51097DF8
:101A3000012905D009E00E88CD6845EA4655EBE757
:101A400001684E5946F480764E511179D579567910
:101A500041EA056195792D0445EA062529434FF4AD
:101A6000C676056806EB0416A9511178D57841EAC7
:101A70000561957852782D0445EA022211434FF40E
:101A8000C475026805EB04155151006803EB04119D
:101A9000425842F0010242500020F0BD416A41F438
:101AA000001141620120F0BD10B590F820300268AD
:101AB000012B07D0022B05D0416A41F480214162FD
:101AC000012010BDD2F8000240F00100C2F800026F
:101AD000087D00F01F0301209840D2F81C32834398
:101AE000C2F81C32CB69B3B9D2F80C328343C2F8C6
:101AF0000C328C894B6864F31F434C6902EBC404BD
:101B0000C4F840320C890B6864F31F434C6902EB44
:101B1000C404C4F84432CB69012B16D1D2F80C327C
:101B20000343C2F80C320C884B6864F31F434C69C2
:101B300002EBC404C4F840320C89CB6864F31F4341
:101B40004C6902EBC404C4F844328B69002BD2F810
:101B500004320FD053EA0003C2F804320B69002BA1
:101B6000D2F8143208D00343C2F81432096A0129AA
:101B700004D008E08343EFE78343F5E7D2F81C1273
:101B80000143C2F81C12D2F8000220F00100C2F892
:101B90000002002010BD704770B590F82040012C65
:101BA00005D0022C03D0416A41F4802128E004686A
:101BB00009B32469A40720D04FF4D874056804EB56
:101BC00001142D5915F00405956005682D591AD09A
:101BD000ED08556005682C5904F00204D4604FF4F8
:101BE000DA74056804EB01142E5906F00F06082E6E
:101BF0000CD308250DE0E468DCE7416A41F40011EC
:101C00004162012070BD6D0D1560E3E72D5905F0AF
:101C10000F05156105682D59C5F307259561056800
:101C20002C59240C54614FF4DC72046802EB01124D
:101C3000A4581C700468A458240A5C700468A45852
:101C4000240C9C700468A258120EDA704FF4DE72F5
:101C5000046802EB0112A4581C710468A458240AF9
:101C60005C710468A458240C9C710468A258120E7C
:101C7000DA71006829B1016941F020010161002099
:101C800070BDC16841F02001C160F8E72DE9F05F47
:101C90000546006800244669D0F804908768D0F8AB
:101CA0000CB0D0F810A0D0F81880F10748D0F90790
:101CB00014D001218160B80703D5284600F00BFA43
:101CC0000CE0780702D54FF4006407E0380702D52E
:101CD0004FF4805402E0284600F0FCF9F80516D5D0
:101CE00029684FF480708860B80503D5284600F055
:101CF000F4F90CE0780502D544F4005407E0380507
:101D000002D544F4804402E0284600F0E5F9F803E7
:101D100016D529684FF480308860B80303D528466B
:101D200000F0DDF90CE0780302D544F4004407E04C
:101D3000380302D544F4803402E0284600F0CEF99E
:101D4000300707D55FEACB6004D52968102044F43A
:101D50000074C86070074FF0080707D55FEA0B7082
:101D600004D52868C760284600F05AF9B00706D5A0
:101D70002868C068800702D0284600F053F9700632
:101D800007D55FEACA6004D52968102044F480644E
:101D90000861B00607D55FEA0A7004D528680761B4
:101DA000284600F067F9F00606D528680069800724
:101DB00002D0284600F05FF9B00308D55FEAC96099
:101DC00005D5296810204860284600F055F9F00331
:101DD00007D55FEA097004D528684760284600F0F7
:101DE0007FF9300446D55FEA497040D5F00504D547
:101DF0005FEAC87001D044F00104B00504D55FEA81
:101E0000887001D544F00204700504D55FEA48707B
:101E100001D544F00404300529D518F0700F26D000
:101E200008F07000402815D006DC102809D02028C2
:101E30000AD0302816D10AE050280ED0602811D1DF
:101E40000EE044F008040DE044F010040AE044F011
:101E5000200407E044F0400404E044F0800401E082
:101E600044F480742868816921F0700181612968D7
:101E700004204860002C05D0686A20436862284628
:101E8000FFF789FEBDE8F09F70B5040003D094F819
:101E9000200010B104E0012070BD204600F082F85F
:101EA0002068016841F00101016000F0DDFB05469A
:101EB000052604E000F0D8FB401B0A2811D8206852
:101EC0004068C007F6D02068016821F00201016077
:101ED00000F0CAFB05460BE000F0C6FB401B0A28D9
:101EE00006D9606A40F40030606284F82060D2E76E
:101EF000206840688007EFD4207E012820680168B0
:101F00003DD021F080010160607E012820680168D9
:101F100038D021F040010160A07E012820680168CE
:101F200033D021F020010160E07E012820680168A3
:101F30002ED041F010010160207F01282068016847
:101F400029D021F008010160607F01282068016824
:101F500024D021F004010160D4E902010843D4E94E
:101F60000412114308436168491E08432168C8618F
:101F700000206062012084F82000002070BD41F044
:101F80008001C0E741F04001C5E741F02001CAE708
:101F900021F01001CFE741F00801D4E741F004013E
:101FA000D9E7000010B586B000210091019102919F
:101FB00003910068174988422AD11748C16941F046
:101FC0000071C161C16901F000710491816941F042
:101FD000040181618069114C00F0040004904FF409
:101FE000006000906946204600F048FAA014009076
:101FF00002200190032003906946204600F03EFA3B
:1020000000220521142001F03DF8142001F02CF8E5
:1020100006B010BD006400400010024000080140FE
:102020007047000010B50D4A0168914214D10C4B65
:102030000C4A0021FFF7B0FD00280DD109480168C6
:1020400009A004F0D1FEBDE810404FF0FF33082294
:102050000349074802F016BD10BD000000640040AF
:102060002C000020300F00202523783A00000000CB
:102070008C0D0020704770477047000070B5044613
:1020800090F82000012804D0606A40F400206062CB
:1020900018E0022084F820002068016821F0010186
:1020A000016000F0E1FA05460EE000BF00F0DCFA46
:1020B000401B0A2808D9606A40F40030606205209D
:1020C00084F82000012070BD20684068C007EDD171
:1020D000606270BD704770477047704770477047C7
:1020E000704710B590F821100022022905D0042174
:1020F000816380F82020012010BD01680B6823F067
:102100000E030B6001680B6823F001030B6090F86D
:102110004030C46B012101FA03F3636080F82110A1
:1021200080F82020104610BD10B590F82110002432
:10213000022903D00421816301243DE001680A687B
:1021400022F00E020A6001680A6822F001020A60A9
:102150001A4A0168914201D1012121E0174A143243
:10216000914201D110211BE0144A2832914201D141
:10217000891515E0114A3C32914201D189140FE0D2
:102180000E4A5032914202D14FF4803108E00B4A9E
:102190006432914202D14FF4801101E04FF080711E
:1021A000064A083A5160012180F82110002180F888
:1021B0002010416B01B18847204610BD0800024045
:1021C0002DE9F05FC16B0C6801680B68D0F840C066
:1021D000042202FA0CF2494DDFF824A1494E4A4F7D
:1021E000DFF828B1DFF828E122422CD05A072AD59F
:1021F0000A68920603D40A6822F004020A600168A1
:10220000A94201D1042219E0514501D1402215E033
:10221000B14202D14FF4806210E0B94202D14FF4D2
:1022200080420BE0594502D14FF4802206E071450F
:1022300002D14FF4800201E04FF080622F4908394B
:102240004A60C16A3BE04FF0020808FA0CF818EA4D
:10225000040F4FF000094FF0010235D05FEA837898
:1022600032D50B689B0605D40B6823F00A030B607C
:1022700080F821200168A94201D1022219E05145CC
:1022800001D1202215E0B14202D14FF4007210E0DA
:10229000B94202D14FF400520BE0594502D14FF43C
:1022A000003206E0714502D14FF4001201E04FF018
:1022B0000072124908394A6080F82090816A00292A
:1022C0001AD0BDE8F05F0847082505FA0CF525424D
:1022D00012D01B0710D50B6823F00E030B6090F88B
:1022E0004010C36B02FA01F15960826380F821202B
:1022F00080F82090016BE2E7BDE8F09F0800024003
:102300001C000240300002404400024058000240DD
:102310006C00024030B528B308C813491422194490
:10232000B1FBF2F18900C163104981630221417759
:102330001A6843F6F0718A43D0E900142143D0E9CA
:1023400002452C43214304692143446921438469A4
:102350002143114319600021416301224277017733
:10236000084630BD012030BDF8FFFDBF000002402F
:1023700070B5044690F82000002501280CD00120FB
:1023800084F8200094F821600020012E06D084F803
:1023900020000225284670BD022070BD022684F868
:1023A0002160A0632068066826F0010606602046CA
:1023B000FEF762FEE06A00282068016802D041F062
:1023C0000E0106E021F0040101602068016841F07F
:1023D0000A0101602068016841F001010160D9E74C
:1023E00070B5044600F040F90546601C02D0044870
:1023F0000078044400F038F9401BA042FAD370BDC5
:1024000034000020144910B50B68144A14681B1BD3
:10241000C82B19D3096811601149B0F5005F0FD0BE
:10242000B0F5804F0ED020280FD0B0F5004F0ED061
:10243000B0F5805F0DD0B0F5807F05D1062002E0B9
:10244000012000E00220087010BD0320FBE70420FB
:10245000F9E70520F7E700003C00002028000020F5
:102460000A000020044910B50A68024202D0086040
:10247000FFF7C8FF10BD0000140401402DE9F84F1C
:10248000DFF8B8910024A9F1040B23460F2709F1C6
:10249000040AABF1040EC9E00125A5402A40AA4276
:1024A0007DD1674ED1F804C0ACEB0608B44532D0FC
:1024B00014DCBCF1030F3AD009DCBCF1000F2AD0C8
:1024C000BCF1010F1CD0BCF1020F31D11DE0BCF1F9
:1024D000110F17D0BCF1120F2AD119E0B8F5881FDF
:1024E00019D006DCB8F5803F15D0B8F5801F1FD194
:1024F00011E0B8F5001F0ED0B8F5041F18D10AE09E
:10250000CB6815E0CB681B1D12E0CB6808330FE0E9
:10251000CB680C330CE08B682BB1012B4FF0080318
:1025200003D0456104E0042302E0056100E00023DC
:10253000FF2A01D8064601E000F104064FEA8405AF
:1025400001D9A5F12005D6F8008007FA05FC28EA94
:102550000C0803FA05F548EA0508C6F800804D683E
:10256000ED0062D5374DAE6946F00106AE61AD694A
:1025700024F0030605F001050095334D06EB050C2C
:10258000DCF80850A607360F07FA06F825EA080512
:10259000DFF8B880404503D14FF0000817E044E071
:1025A000DFF8AC80404502D14FF001080FE0DFF8C2
:1025B000A480404502D14FF0020808E0DFF898807F
:1025C000404502D14FF0030801E04FF0040808FA3B
:1025D00006F848EA0508CCF808804D68D9F800608C
:1025E000ED024D4601D5164300E096432E604D683E
:1025F000DAF80060AD02554601D5164300E0964377
:102600002E604D68DBF80060AD035D4601D51643D2
:1026100000E096432E604D68DEF80060ED037546DD
:1026200001D5164300E096432E60641C0D682A46CF
:10263000E5407FF431AFBDE8F88F000008040140A9
:10264000000011100010024000000140000801408D
:10265000000C014000100140001401400AB101616A
:1026600070470904FBE700000148806870470000DC
:102670003400002070B5040025D094F83D000025FA
:1026800020B984F83C50204600F03CFC242084F81B
:102690003D002068016821F00101016020680168A7
:1026A00041F4004101602068016821F400410160AB
:1026B00000F09EFE4D4A6168914201D84C4900E00D
:1026C0004C49884201D2012070BD4B492368B0FBC0
:1026D000F1F15E6826F03F060E435E606368934248
:1026E00006D94FF4967359434FF47A73B1FBF3F163
:1026F0002368491C1E6A26F03F063143196261684F
:10270000914210D84900401EB0FBF1F2521CC2F3B6
:102710000B02042A01D2042022E0B0FBF1F0401C9D
:10272000C0F30B001CE0A268F2B301EBC10303EBA2
:102730000116431EB3FBF6F35B1C43F480431B05F9
:1027400049D092B301EBC10202EB0111401EB0FB74
:10275000F1F0401CC0F30B0040F4804040F4004016
:102760002168CA694CF6FF739A431043C861D4E9E3
:10277000071001432068026822F0C0021143016083
:10278000D4E9030101432068826848F2FF339A4389
:1027900011438160D4E9050108432168CA6822F029
:1027A000FF021043C86001E00EE016E020680168F7
:1027B00041F0010101602564202084F83D0025637B
:1027C00084F83E50002070BD01EB4106431EB3FB70
:1027D000F6F35B1CB3E70120C2E701EB4101401EA9
:1027E000B0FBF1F0401CC0F30B00B7E7A08601007E
:1027F00080841E0000093D0040420F002DE9F84F83
:102800000025DDF82890984617468A46044600952C
:10281000FFF72AFF064694F83D0020287AD11923B5
:10282000012286492046009602F058FB0028F5D187
:1028300094F83C0001286DD0012084F83C00206809
:102840000168C90703D1016841F0010101602068F6
:10285000016821F400610160222084F83D0010200D
:1028600084F83E0025646762A4F82A80608D208584
:102870007348E06233464A465146204602F06CF9FE
:1028800000287CD1208DDFF8BC81202768B1012889
:1028900014D00228206801681ED041F480610160D4
:1028A0002068416980690090BBE0206841698169C6
:1028B0000091016841F400710160B2E02068016894
:1028C00021F48061016072B62068416981690091DC
:1028D000016841F400710AE041F40061016072B6E0
:1028E0002068416981690091016821F4806101607B
:1028F00062B696E0032865D801280CD002284B4622
:102900004FF000024146204600960BD002F0E6FA56
:10291000A8BB0CE090E032464946204602F084FB1A
:1029200068BB71E002F0DAFA48BB72B633E02068A7
:10293000016821F48061016072B620680069616AF3
:102940000870606A401C6062208D401E2085608D8A
:10295000401E60853C4846F2A8110068B0FBF1F0CB
:10296000C0EBC00000EB80000090401E009007D03C
:1029700020684069C04340070DD50098F5E727E07F
:1029800044F8305F6773A573206940F02000206130
:1029900062B625731CE02068016841F40071016093
:1029A00020680069616A0870606A401C6062218D5D
:1029B000491E2185618D491E618562B621680969BC
:1029C000017025E032464946204602F02DFB10B149
:1029D0000120BDE8F88F20680069616A0870606AAC
:1029E000401C6062208D401E81B22185608D401E9A
:1029F000608520684269D243520712D4032903D16B
:102A0000016821F48061016020680069616A0870D2
:102A1000606A401C6062208D401E2085608D401ED3
:102A20006085208D00287FF465AF84F83D7084F8C0
:102A30003E5084F83C50CCE70220CAE70200100068
:102A40000000FFFF04000100400000202DE9F84FC6
:102A50001F4690468A460446DDF82890FFF704FE9C
:102A6000054694F83D0020287FD1192301224049D2
:102A70002046009502F032FA002876D194F83C0006
:102A8000012872D0012084F83C0020680168C90741
:102A900003D1016841F0010101602068016821F45F
:102AA00000610160212084F83D00102084F83E0080
:102AB00000262664C4F824806785608D20852D4813
:102AC000E0622B464A465146204602F0BBF890B9D8
:102AD000206841698069009036E02A4649462046D0
:102AE00002F0DAFA50B1206C042804D120680168A1
:102AF00041F4007101600120BDE8F88F606A21682F
:102B000000780861606A401C6062618D491E6185C1
:102B1000218D491E89B2218522685369DB435B07F9
:102B20000BD451B100781061606A401C6062608D06
:102B3000401E6085208D401E20852A46494620463D
:102B400002F0A0F90028CED1208D0028C5D154F87C
:102B50003D0B016841F400710160202004F81E095A
:102B6000E67766770020C7E7FFE70220C4E70000AA
:102B7000020010000000FFFF2DE9FF4F83B0002589
:102B8000DDE910799A4693460446DDF848800095C1
:102B9000FFF76AFD064694F83D0020287CD11923F2
:102BA000012288492046009602F098F90028F5D1C4
:102BB00094F83C0001286FD0012084F83C00206884
:102BC0000168C90703D1016841F001010160206873
:102BD000016821F400610160222084F83D0040205A
:102BE00084F83E0025646762A4F82A90608D2085F1
:102BF0007548E062CDE9008653465A46204604995E
:102C000002F06EF800287CD1208DDFF8C0912027DB
:102C100068B1012814D00228206801681ED041F450
:102C2000806101602068416980690090BCE0206893
:102C3000416981690091016841F400710160B3E06C
:102C40002068016821F48061016072B620684169E2
:102C500081690091016841F400710AE041F400616A
:102C6000016072B62068416981690091016821F4B0
:102C70008061016062B697E0032865D801280CD016
:102C8000022843464FF000024946204600960BD0EA
:102C900002F024F9A8BB0CE091E032464146204600
:102CA00002F0C2F968BB72E002F018F948BB72B6D4
:102CB00033E02068016821F48061016072B6206809
:102CC0000069616A0870606A401C6062208D401E65
:102CD0002085608D401E60853D4846F2A811006841
:102CE000B0FBF1F0C0EBC00000EB80000090401E94
:102CF000009007D020684069C04340070DD5009878
:102D0000F5E727E044F8305F6773A573206940F06A
:102D10002000206162B625731CE02068016841F440
:102D20000071016020680069616A0870606A401C77
:102D30006062218D491E2185618D491E618562B6C3
:102D400021680969017026E032464146204602F0BA
:102D50006BF918B1012007B0BDE8F08F2068006959
:102D6000616A0870606A401C6062208D401E81B2FA
:102D70002185608D401E608520684269D2435207DC
:102D800012D4032903D1016821F480610160206815
:102D90000069616A0870606A401C6062208D401E94
:102DA0002085608D401E6085208D00287FF464AFF3
:102DB00084F83D7084F83E5084F83C50CBE7022004
:102DC000C9E70000020010000000FFFF040001003E
:102DD000400000202DE9FF4F83B09A46DDE91197AE
:102DE00093460446DDF84080FFF73EFC054694F824
:102DF0003D0020287FD1192301224049204600951B
:102E000002F06CF8002876D194F83C00012872D0CA
:102E1000012084F83C0020680168C90703D10168DB
:102E200041F0010101602068016821F40061016046
:102E3000212084F83D00402084F83E0000262664CE
:102E4000C4F82480A4F82A90608D20852C48E06284
:102E5000CDE9007553465A462046049901F0BEFF5D
:102E600070B930E02A463946204602F015F958B1CB
:102E7000206C042804D12068016841F400710160CD
:102E8000012007B0BDE8F08F606A21680078086112
:102E9000606A401C6062218D491E89B22185628D65
:102EA000521E628522685369DB435B070BD469B10C
:102EB00000781061606A401C6062208D401E208591
:102EC000608D401E6085208D0028CBD12A46394672
:102ED000204601F0D7FF0028CAD154F83D0B016805
:102EE00041F400710160202004F81E09E67766773E
:102EF0000020C6E7FFE70220C3E700000200100041
:102F00000000FFFF10B586B00021009101910291F1
:102F1000039100680F4988421AD10F4CA06940F014
:102F20000800A061A069694600F008000490C02074
:102F3000009012200190032003900848FFF79EFAAA
:102F4000E06940F40010E061E06900F400100490D2
:102F500006B010BD0054004000100240000C0140BB
:102F60000248816802781144816070473400002073
:102F7000074810B5016841F010010160032000F01E
:102F8000A1F80F2000F006F800F04AF8002010BD6C
:102F90000020024030B505461C4887B0816941F4E5
:102FA00000618161806906A900F40060009001A8B9
:102FB00000F0FEF900F02CFA1549164AB0FBF1F1C9
:102FC0001548491E0260416040F2E7320021C0E925
:102FD00003218160816101F047F8040012D10E489D
:102FE00001F08EF804000DD1192000F03DF8102DED
:102FF00007D200222946192000F044F8074805604E
:1030000000E0012407B0204630BD0000001002405F
:1030100040420F00002C01404C0F002038000020DF
:103020000F4808B5816941F001018161816901F0B2
:1030300001010091C16941F08051C161C069002264
:1030400000F0805000900F21901E00F01BF8054802
:10305000416821F0E06141F00071416008BD00006D
:103060000010024000000140002809DB00F01F02B0
:10307000012191404009800000F1E020C0F80011DA
:1030800070470000F0B40E4B1B680C46C3F30223DC
:10309000C3F10705042D00D90425191D072901D204
:1030A000002300E0DB1E012606FA05F1491E21403F
:1030B00099409E40761E16403143F0BC03F0B8BEE6
:1030C0000CED00E0064900F0070208684FF6FF0328
:1030D000184040EA0220034A10430860704700008D
:1030E0000CED00E00000FA0501490120086270477C
:1030F00000000E4210B501460020234C012922D0C9
:10310000022939D010291DD161682268D20119D550
:103110001E48C1F38342C903805C0AD561681B4A1B
:10312000C1F34041921E515C194AB2FBF1F1484390
:1031300001E0184948436168490203D44000032173
:10314000B0FBF1F010BD226AC2F30121012903D1C5
:10315000920701D5C80310BD022905D1626A920702
:1031600002D549F6404010BD0329FCD121688903EE
:10317000F9D54FF2244010BD00F04AF96168C1F35F
:103180008131491C4900DBE700100240588B0008E0
:1031900000127A0000093D002DE9F8430546007849
:1031A000354CC00754D0E0690026C00008D4E0695F
:1031B00040F08050E061E069012600F0805000900E
:1031C0002E480168C90512D40168804641F4807117
:1031D0000160FFF749FA074605E000BFFFF744FA30
:1031E000C01B642823D8D8F80000C005F6D5206A93
:1031F00010F4407021D0A98801F4407181421CD0A4
:10320000206A1F49012220F440700A6000220A60EF
:103210002062C00711D0FFF727FA074641F288382D
:1032200008E000BFFFF720FAC11B414502D9032087
:10323000BDE8F883206A8007F4D5206A696820F425
:103240004070084320621EB1E06920F08050E061C8
:103250002878800705D56068A96820F440400843B5
:1032600060602878C00605D56068E96820F48000B1
:10327000084360600020DBE700100240007000405F
:10328000400442422DE9F0470F46050061D0434E0D
:10329000306800F00700B84209D2306820F007001B
:1032A00038433060306800F00700B84251D12868D8
:1032B0003B4C810712D5400703D5606840F4E060BD
:1032C00060602878000703D5606840F46050606053
:1032D0006068A96820F0F000084360602878C007A3
:1032E00028D06868012810D02168022810D08907EA
:1032F00000292EDA616821F0030101436160FFF7C4
:10330000B3F9804641F288390DE021688903EFE77F
:103310008901EDE7FFF7A8F9A0EB0801494502D9BB
:103320000320BDE8F0876068696800F00C00B0EB2E
:10333000810FEFD1306800F00700B8420BD9306838
:1033400020F0070038433060306800F00700B842D2
:1033500001D00120E5E72878400705D56068E968D5
:1033600020F4E060084360602878000706D56068B4
:10337000296920F4605040EAC100606000F058F80C
:103380006168084AC1F30311515CC84006490860EE
:1033900006480068FFF7FEFD0020C2E7002002405B
:1033A00000100240688B0008400000203800002018
:1033B0000F2202600C4A536803F003034360536812
:1033C00003F0F0038360536803F4E063C360526862
:1033D0004FF4E06303EAD20202610448006800F09F
:1033E0000700086070470000001002400020024003
:1033F0000448054900684968044AC1F30221515C48
:10340000C84070474000002000100240788B000840
:103410000448054900684968044AC1F3C221515C67
:10342000C84070474000002000100240788B000820
:103430000E4A51680E4801F00C03042B11D0082BE2
:103440000FD10C48C1F38343C903C05C0AD551684E
:10345000084AC1F34041921E515C054A5043B0FBFB
:10346000F1F07047044948437047000000100240E3
:1034700000127A00468B000800093D002DE9F84F44
:10348000040070D02078C04DC00749D06868C0F3F0
:103490008100012807D06868C0F38100022809D1A3
:1034A0006868C00306D52868800339D5606800289D
:1034B000E7D035E06068B0F5803F0BD010B1B0F5D3
:1034C000A02F11D0286820F480302860286820F4CC
:1034D000802002E0286840F480302860606890B165
:1034E000FFF7C2F806460AE0286840F4802028600A
:1034F000F0E700BFFFF7B8F8801B642873D828688E
:103500008003F7D50CE0FFF7AFF8064605E000BFF3
:10351000FFF7AAF8801B6428F0D828688003F7D446
:1035200020789A4E80074FF001094FF0000839D5F6
:10353000686810F00C0F07D06868C0F3810002289B
:1035400009D16868C00306D42868800714D52069AB
:10355000012808D110E02069B0B1C6F80090FFF74B
:1035600083F8074605E00AE1FFF77EF8C01B022852
:10357000C4D828688007F7D52868616920F0F8006A
:1035800040EAC10028600DE0C6F80080FFF76CF843
:10359000074604E0FFF768F8C01B022823D8286814
:1035A0008007F7D4207800072CD57948A169D9B1D4
:1035B000C0F80090FFF758F8074604E0FFF754F80A
:1035C000C01B02280FD8686A8007F7D571484FF4EE
:1035D000FA510068B0FBF1F0009000BF0098411E66
:1035E0000091FAD20EE080E0C0F80080FFF73CF8CE
:1035F000074604E0FFF738F8C01B022875D8686A50
:103600008007F7D42078400760D5E8690027C0001C
:1036100008D4E86940F08050E861E869012700F0CB
:10362000805000905C480168C90513D40168834646
:1036300041F480710160FFF717F8824606E000BF91
:10364000FFF712F8A0EB0A0064284ED8DBF8000060
:10365000C005F5D5E06801280AD008B1052813D0C7
:10366000286A20F001002862286A20F0040002E0A5
:10367000286A40F001002862E06841F2883B98B176
:10368000FEF7F2FF82460BE0286A40F00400286251
:10369000EEE700BFFEF7E8FFA0EB0A0159455AD854
:1036A000286A8007F6D50CE0FEF7DEFF824605E0CB
:1036B000FEF7DAFFA0EB0A0159454CD8286A8007CB
:1036C000F6D41FB1E86920F08050E861E06988B362
:1036D0006968C1F38101022944D00228C6F86080DC
:1036E00004D0FEF7C1FF044638E034E0FEF7BCFF2B
:1036F000074604E0FEF7B8FFC01B02282BD8286855
:103700008001F7D4206AB0F5803F05D16868A168D0
:1037100020F4003008436860D4E908010843696870
:1037200021F4741108436860C6F86090FEF79CFFAE
:10373000044606E025E000BFFEF796FF001B0228C6
:1037400009D828688001F7D51BE000BFFEF78CFF81
:10375000001B022802D90320BDE8F88F28688001E9
:10376000F4D40EE00128F7D06868226A00F48031B2
:10377000914204D1616A00F47010884201D00120A6
:10378000EAE70020E8E700000010024000004242A3
:10379000800442424000002000700040024850F87F
:1037A000210080B270470000006C0040024800EB2E
:1037B000810091B201607047006C004070B5040058
:1037C00003D0607C002610B105E0012070BD267496
:1037D000204600F03DF802206074204600F00AF90F
:1037E000042550BB204602F0BAF930BB206841687E
:1037F00021F007014160A06820B11448016821F060
:10380000010101601148001F0168A26821F4607184
:10381000114301606068411C04D10120FFF76AFC7C
:1038200058B1401E2268C0F303419160216880B204
:10383000C860204602F0AEF908B16574C5E7E673CA
:1038400001206073A0736074002070BD306C004074
:1038500008B50068084988420DD1FFF745FC0748C4
:10386000C16941F00061C161C069054900F00060B3
:1038700000900120086008BD0028004000100240B0
:103880003C0442422DE9F0410D4604003BD0C5B353
:10389000207C01283AD04FF0010884F810800220E3
:1038A0006074E87872B302F051F9E073687802F05E
:1038B0004DF96073A87802F049F9A073C2B2617B38
:1038C000E07B02F005FA20732870204602F084F9AC
:1038D0004FF46161B0FBF1F1002518292DD91822B0
:1038E000B1FBF2F1A1EB011101EB4101C1EB0111BF
:1038F00000EBC1163146204602F062FA0427C8B92F
:103900000BE000E004E00120BDE8F0810220FBE7CD
:10391000E07368786073A878CFE7204602F055F925
:10392000411C0AD0B04208D206490144204602F0A8
:10393000FAF910B167742574E5E784F811802574ED
:103940000020E1E7805101002DE9F0410D4604001F
:1039500024D01DB3207C012823D04FF0010884F827
:103960001080022060742878EAB102F0EFF84FF47A
:10397000616100FB01F6687802F0E8F8C0EB001026
:1039800006EB8006A87802F0E1F8351829462046B3
:1039900002F016FA0026042710BB0FE00120BDE854
:1039A000F0810220FBE74FF4616148436978C1EB85
:1039B000011100EB8100A9784518E7E7206841680C
:1039C00021F005014160204602F0FFF8411C0AD0B9
:1039D000A84208D206490144204602F0A4F910B1D9
:1039E00067742674DAE784F8118026740020D6E71D
:1039F0008051010070B504000AD02068416821F0B0
:103A000008014160FEF730FE05464FF47A7608E083
:103A1000012070BDFEF728FE401BB04201D90320F3
:103A200070BD206840680007F4D5002070BD70B5F7
:103A3000040009D0606A002540B125616561A56276
:103A400094F8510040B10CE0012070BD6068B0F501
:103A5000827FF4D0E561F2E784F85050204600F010
:103A60003FF8022084F851002068016821F04001ED
:103A70000160A088218900F4827001F404410843A8
:103A8000A18901F400610843217C01F0020108438F
:103A9000217D01F001010843218B01F400710843ED
:103AA000217F01F03801084394F8201001F08001D3
:103AB0000843218D01F40051084321680860A06982
:103AC000042101EA1040216848602068C16921F49E
:103AD0000061C1616565012084F85100002070BD5E
:103AE00030B585B0002400940194029403940068DA
:103AF0001449884223D11448816941F4805181617D
:103B0000816901F480510491816941F0040181616E
:103B100080690E4D00F004000490A0200090022067
:103B200001900320039069462846FEF7A7FC402039
:103B3000CDE90004694628460294FEF79FFC05B0D3
:103B400030BD00000030014000100240000801407C
:103B50002DE9F84F044690F851001D4616460F46D1
:103B6000012838D160684FF00408B0F5827F01D198
:103B7000A06830B3FEF778FD8246002F75D0002E86
:103B800073D094F85000012825D04FF0010984F833
:103B9000509084F851804FF00008C4F85480A76317
:103BA000A687E687C4F83080A4F83480A4F836806D
:103BB000C4F84080C4F84480A068B0F5004F0CD031
:103BC00015E084F85180009313460A46204600F021
:103BD0001CF9BDE8F88F0220FBE72068016821F09E
:103BE000400101602068016821F480410160206883
:103BF0000168490603D4016841F040010160E068B2
:103C0000C0B134E020688168C90709D0007BA16B8E
:103C10000870A06B401CA063E08F401EE08709E0A5
:103C2000FEF722FDA0EB0A00A84202D3681C01D0D7
:103C300032E085B3E08F0028E4D11BE02068816882
:103C4000C90709D0C068A16B0880A06B801CA06365
:103C5000E08F401EE0870AE0FEF706FDA0EB0A00B9
:103C6000A84203D3681C02D016E012E09DB1E08F99
:103C70000028E3D152462946204602F0E7F808B171
:103C80002020606584F8519084F85080606D002891
:103C90009FD001209DE7FFE784F8519084F8508081
:103CA000032096E72DE9F84F984616468A460446C3
:103CB000FEF7DAFC814694F8510001281ED1BAF1D2
:103CC000000F73D0002E71D094F85000012815D049
:103CD000012784F85070032084F8510000256565A1
:103CE000C4F830A0A686E686A563A587E587656447
:103CF0002564A068B0F5004F03D00CE00220BDE8B9
:103D0000F88F2068016821F0400101602068016897
:103D100041F48041016020680168490603D40168CC
:103D200041F040010160E068B0F5006F606803D0C9
:103D300048B3012E27D047E008B1012E1FD1206BD8
:103D400021680088C86006E020688168890709D575
:103D5000216B0988C160206B801C2063E08E401EAF
:103D6000E0860CE0FEF780FCA0EB0901414503D39F
:103D7000B8F1FF3F03D035E0B8F1000F32D0E08E4C
:103D80000028E1D123E0206B21680078087306E069
:103D90002068816889070AD5216B09780173206B37
:103DA000401C2063E08E401EE0860DE02BE0FEF715
:103DB0005BFCA0EB0901414503D3B8F1FF3F03D001
:103DC00010E0B8F1000F0DD0E08E0028E0D14A4697
:103DD0004146204602F068F808B120206065A068DE
:103DE00030B109E084F8517084F85050032086E720
:103DF0002068C1688068009084F8517004F8505FB2
:103E000060680028F3D0012079E72DE9FF4F81B0E9
:103E10001D46934604464FF001090E9EFEF724FC12
:103E2000074694F851006168012806D0B1F5827FF9
:103E30003CD1A168C9BB042838D10298002871D0B0
:103E4000BBF1000FFBD0002DF9D094F850000128F1
:103E50002CD04FF0010A84F850A094F851000428A7
:103E600002D0052084F851004FF00008C4F85480B7
:103E7000C4F838B0E587A58702992163E586A58651
:103E8000C4F84080C4F8448020680168490603D41F
:103E9000016841F040010160E068B0F5006F6068C2
:103EA00008D0F0B3012D49D081E0FFE7022005B032
:103EB000BDE8F08F08B1012D39D1206B2168008851
:103EC000C860206B801C2063E08E401EE0862EE0E0
:103ED0002068816889070FD5E18E69B1B9F1010FBA
:103EE0000AD1216B0988C160206B801C2063E08EA1
:103EF000401EE0864FF0000920688168C9070CD099
:103F0000E18F51B1C068A16B0880A06B801CA063D9
:103F1000E08F401EE0874FF00109FEF7A5FBC01BB4
:103F200001E00BE067E0B04201D3701C50D1E08E9D
:103F30000028CDD1E08F0028CAD13EE0206B216857
:103F400000780873206B401C2063E08E401EE086E2
:103F50002DE02068816889070FD5E18E69B1B9F13C
:103F6000010F0AD1216B09780173206B401C20637B
:103F7000E08E401EE0864FF0000920688168C90786
:103F80000CD0E18F51B1C068A16B0870A06B401CD0
:103F9000A063E08F401EE0874FF00109FEF764FB4D
:103FA000C01BB04202D3701C01D011E086B1E08E7C
:103FB0000028CED1E08F0028CBD13A4631462046AA
:103FC00001F072FF50B12020606584F8508012E04B
:103FD00084F851A084F85080032068E7A06818B9DD
:103FE0002068C1688068009084F851A084F85080EF
:103FF000606D0028F1D0012059E77047704700003C
:1040000070B590F83C20012A26D0012480F83C406D
:10401000022280F83D2003685A689D6822F07006ED
:104020000A6832435A600D4B02689A4208D0B2F1D6
:10403000804F05D00A4B9A4202D00A4B9A4204D1D3
:10404000496825F080031943916080F83D400021C4
:1040500080F83C10084670BD022070BD002C014065
:10406000000400400008004010B5040003D094F89C
:104070003D0010B107E0012010BD002084F83C0095
:10408000204600F01FF8022084F83D00211D206822
:1040900001F0E6FF012084F8460084F83E0084F831
:1040A0003F0084F8400084F8410084F8420084F81E
:1040B000430084F8440084F8450084F83D00002063
:1040C00010BD000008B500680B49884212D10B48AA
:1040D000C16941F00401C161C069002200F004001F
:1040E000009005211E20FEF7CDFFBDE808401E20F0
:1040F000FEF7BABF08BD00000008004000100240F3
:1041000090F83D10012901D001207047022180F86C
:104110003D100168CA6842F00102CA6000680B499C
:10412000884208D0B0F1804F05D00949884202D0BA
:104130000849884204D1816801F00701062903D0AB
:10414000016841F00101016000207047002C01402E
:10415000000400400008004001680A6A41F211139F
:104160001A4207D10A6A9B101A4203D10A6822F048
:1041700001020A60012180F83D100020704770B5EF
:10418000044690F83C000025012817D0012684F849
:104190003C60022084F83D002068826822F07702AB
:1041A00022F47F4282600868502838D00DDC202835
:1041B0004FD005DC90B3102811D14AE0022070BD29
:1041C000302846D040280AD13BE060282FD0702804
:1041D0000DD0B0F5805F03D0B0F5005F12D001259F
:1041E00084F83D60002084F83C00284670BDCB6810
:1041F000D1E90121206801F06FFF2068816841F05A
:10420000770109E0CB68D1E90121206801F064FF62
:104210002068816841F480418160E1E719E0CA6863
:104220004968206801F06AFF5021206806E0CA68EA
:104230004968206801F073FF6021206801F056FF93
:10424000CEE7CA684968206801F058FF402120681D
:10425000F4E7226801461046F0E770472DE9F04187
:1042600004460068C66805694FF00007A90713D522
:10427000B10711D5F91E01610120207720688069FE
:104280008007204602D0FFF7E8FF04E000F07EF848
:10429000204600F07CF82777680716D5700714D5FC
:1042A00021686FF00400086102202077206880698F
:1042B00010F4407F204602D0FFF7CFFF04E000F06B
:1042C00065F8204600F063F82777280715D53007F2
:1042D00013D521686FF0080008610420207720685A
:1042E000C0698007204602D0FFF7B7FF04E000F066
:1042F0004DF8204600F04BF82777E80616D5F00673
:1043000014D521686FF0100008610820207720681C
:10431000C06910F4407F204602D0FFF79EFF04E002
:1043200000F034F8204600F032F82777E80708D08C
:10433000F00706D021686FF001000861204600F008
:1043400027F8280608D5300606D521686FF08000CA
:1043500008612046FFF751FE680608D5700606D5AD
:1043600021686FF040000861204600F031F8A8068F
:104370000AD5B00608D521686FF0200008612046F4
:10438000BDE8F041FFF73ABEBDE8F08170477047E5
:1043900010B500680949884203D1BDE81040FEF716
:1043A000DFBD0749884207D10648FFF7D5FE06481A
:1043B00002F0C0FC0549087010BD0000002C01404F
:1043C00000080040440A0020B0000020080000203F
:1043D0007047704710B504460068406994F8411072
:1043E000C0F3C010212911D180B12068143050E8E9
:1043F000001F21F0800140E80012002AF5D1A06BD7
:1044000008B1FDF76EFE204601F054FF20684069B8
:1044100094F84210C0F38010222911D180B1206895
:10442000143050E8001F21F0400140E80012002A3B
:10443000F5D1E06B08B1FDF754FE204601F013FF03
:10444000002010BD70470000F8B5016804460868F8
:10445000CA684B6910F00F0F4FF0000559D003F0F8
:10446000010602F49077374365D0C10705D0D10526
:1044700003D5616C41F001016164410705D5D9079D
:1044800003D0616C41F002016164810705D5D90751
:1044900003D0616C41F004016164010707D502F0AB
:1044A0002001314303D0616C41F008016164616C0B
:1044B00000293AD0800604D5900602D5204601F0A6
:1044C00007FF20684069616CC0F38010090700D4C1
:1044D00060B3204601F0C7FE20684069400621D540
:1044E0002068143050E8001F21F0400140E800121D
:1044F000002AF5D1E06BA8B16D494163E06BFDF78F
:1045000013FE002811D0E06B416B01B0BDE8F04014
:10451000084783060FD593060DD52046BDE8F84021
:1045200001F0D6BE2046FFF78DFFF8BD2046FFF70D
:1045300089FF6564F8BD266B2023012E7CD1C60659
:104540007AD5D60678D508684868009048694FF053
:104550000206400640D5E16B086840680004000C84
:10456000E8D0A28D8242E5D9E085886920282DD047
:1045700020680C3050E8001F21F4807140E80012E0
:10458000002AF5D12068143050E8001F21F0010105
:1045900040E80012002AF5D12068143050E8001FCE
:1045A00021F0400140E80012002AF5D184F84230A1
:1045B000256320680C3050E8001F21F0100140E80E
:1045C0000012002AF5D1E06BFDF78BFD6663A08D2C
:1045D000E18D401A81B22AE0A08DE18D401A81B2AE
:1045E000E08D0028A6D00029A4D022680C3252E821
:1045F000000F20F4907042E80007002FF5D12068EA
:10460000143050E8002F22F0010240E80027002F6C
:10461000F5D184F84230256320680C3050E8002F33
:1046200022F0100240E80023002BF5D166632046FB
:10463000FFF7CFFEF8BDFFE705062BD5150629D5F8
:1046400094F841002128F5D1A068B0F5805F01D130
:104650002069B0B1206A411C21622168007848605D
:10466000E08C401E0004000CE084E3D12068C168A7
:1046700021F08001C1602068C16841F04001C16043
:10468000D8E7206A0088C0F308004860206A801CD0
:104690002062E5E74006CDD55006CBD5CA68204656
:1046A00022F04002CA6084F8413000F03BFAC1E7D2
:1046B0006961000870B5040004D094F84100002539
:1046C00010B106E0012070BD84F84050204600F093
:1046D00023F8242084F841002068C16821F40051A7
:1046E000C160204601F056FE2068016921F4904126
:1046F00001612068416921F02A0141612068C16897
:1047000041F40051C1606564202084F8410084F8C0
:1047100042006563002070BD2DE9F04385B00024A0
:1047200000940194029403940546DFF8D081D0F8F8
:1047300000C0734802210322724B802620274FF4C9
:104740008069C44543D1D0F818C04CF4804CC0F8FF
:1047500018C0D0F818C00CF4804CCDF810C0D0F8B8
:1047600018C04CF0040CC0F818C08069039200F027
:10477000040004900802CDE90001694698461846F5
:10478000FDF77CFECDE90094694640460294FDF7B2
:1047900075FEDFF878815C494046C0E90014C0E945
:1047A0000246C8F81040C8E90547C8F81C40FDF7A4
:1047B000B1FD08B1FCF7E4FDC5F83C8000220521FD
:1047C0002520C8F82450FEF75DFC25204AE0DFF8DC
:1047D0004081C4454BD1D0F81CC04CF4003CC0F81B
:1047E0001CC0D0F81CC00CF4003CCDF810C0D0F8B0
:1047F00018C04CF0040CC0F818C08069039200F097
:10480000040004900420CDE900016946984618464A
:10481000FDF734FE0820CDE90004694640460294C5
:10482000FDF72CFEDFF8E480374908F144084046E4
:104830001431C0E90014C0E90246C8F81040C8E9C4
:104840000547C8F81C40FDF765FD08B1FCF798FD69
:10485000C5F83C80002205212620C8F82450FEF728
:1048600011FC2620FEF700FC05B0BDE8F083294BC3
:104870009C45F9D1C36943F48023C361C36903F440
:1048800080230493836943F0080383618069CDE941
:10489000009100F00800CDE90320DFF87C80694634
:1048A0004046FDF7EBFD4FF40060CDE9000469469A
:1048B00040460294FDF7E2FDDFF85080124908F10E
:1048C000880840462839C0E90014C0E90246C8F803
:1048D0001040C8E90547C8F81C40FDF71BFD08B1AA
:1048E000FCF74EFDC5F83C80002205212720C8F8C2
:1048F0002450FEF7C7FB2720B4E700000038014032
:10490000001002400008014058000240640E0020E0
:104910000044004000480040000C014090F8423044
:10492000202B01D00220704721B11AB1002303636C
:1049300001F08CBD0120704770B500681649002455
:10494000631E884207D1154D28784142CAB21449E6
:104950000144144809E01449884209D1134D2878CC
:104960004142CAB212490144124800F08BF810E0EB
:10497000114988420ED1114D28784142CAB21049DE
:1049800001441048FCF7E4FC002802DA0EA002F013
:104990002BFA2C7070BD000000380140240000206C
:1049A0008C0A00201C0E002000440040250000203E
:1049B0008C0B00208C0D00200048004026000020B9
:1049C0008C0C0020B00000204649464F2046756CF4
:1049D0006C0A000070B500681B494FF0FF33884235
:1049E00009D11A4C2078C0F18001CDB218492A466D
:1049F000014418480BE0184988420ED1174C207822
:104A0000C0F18001CDB216492A460144154800F094
:104A100039F820782844207070BD13498842FBD1B2
:104A2000124D2878C0F18001CCB2114922460144D0
:104A30001048FCF78DFC002802DA0FA002F0D4F930
:104A400028782044287070BD0038014024000020E0
:104A50008C0A00201C0E002000440040250000208D
:104A60008C0B00208C0D0020004800402600002008
:104A70008C0C0020B00000204649464F2046756C43
:104A80006C0A00002DE9F843044690F8410098466E
:104A900016460D46202802D00220BDE8F88385B1D5
:104AA0007EB100206064212084F84100FDF7DCFD28
:104AB000A6848146E684A0682027B0F5805F02D0F6
:104AC00003E00120E9E7206910B12E4600250EE041
:104AD00000260CE08021204601F000FDA8B9C6B1F7
:104AE00016F8010B21684860E08C401EE084E08CE1
:104AF0004B464FF00002CDF800800028EAD14FF07D
:104B00004001204601F0EAFC40B184F841700320E6
:104B1000C3E735F8020BC0F30800E3E784F84170FF
:104B20000020BAE77047FEE701684A69D2435205A0
:104B30000FD46FF480624A61002140F8301F2022B8
:104B400042738173026942F0040202610173012021
:104B500070470020704700002DE9F84F0446C06AF6
:104B60001E4693460D4621680A6842F480620A6038
:104B7000082807D0012805D010F5803F02D0206B0F
:104B8000112804D12068016841F4807101604FF060
:104B900001195B46002249462046009600F09EF926
:104BA0004FF4007840B120680068C00501D5C4F812
:104BB00040800320BDE8F88F2069DFF884A0B0F5BD
:104BC000804F0FD00620216800EAD51747F0F0008B
:104BD000086133465A460AF10601204600F0C6F93C
:104BE00058BB03E0E8B240F001001CE02168E8B2E5
:104BF000086133465A465146204600F0B7F9E0B9FD
:104C00002068416981690091016841F48071016007
:104C10005B46002249462046009600F05FF90028D6
:104C2000C1D147F0F1002168086133465A46514628
:104C3000204600F09BF90028BCD00120BAE7000014
:104C400002000100F8B50446C06A1E460D4617462C
:104C5000082807D0012805D010F5803F02D0206B2E
:104C6000122804D12068016841F480710160134664
:104C700000224FF001112046009600F02FF940B1BC
:104C800020680068C00502D54FF40070206403203E
:104C9000F8BD2069B0F5804F0ED00620216800EAEB
:104CA000D51040F0F000086133463A460B492046E3
:104CB00000F05CF978B902E005F0FE0000E0E8B22F
:104CC00021680861054933463A46891F204600F0AD
:104CD0004DF90028DCD00120F8BD000008000100DB
:104CE0002DE9F84F0446006889460B9D01689846F7
:104CF000174641F4806101602068016841F48071C9
:104D0000016000954FF0011B0022594620460A9B86
:104D100000F0E4F84FF4007A40B120680068C00564
:104D200001D5C4F840A00320BDE8F88F216809F040
:104D3000FE0008612B46284920460A9A00F016F921
:104D4000F0BB20684169806900902A4620460A9994
:104D500000F0A2F940B1206C04283AD12068016823
:104D600041F40071016034E0FEB2B8F1010F09D0E6
:104D70002168380A08612A4620460A9900F08CF911
:104D80000028E8D1206806612A4620460A9900F0EA
:104D900083F90028DFD12068016841F48071016047
:104DA00000950022594620460A9B00F097F80028FB
:104DB000B3D1216809F0FF0040F00100086100E074
:104DC00007E02B46044920460A9A00F0CFF8002855
:104DD000AAD00120A8E70000020001002DE9F84355
:104DE000044600680D46DDE90897016898461646B6
:104DF00041F4807101604B4600224FF001112046C2
:104E0000009700F06BF848B120680068C00502D533
:104E10004FF4007020640320BDE8F883216805F09A
:104E2000FE0008613B464A461549204600F09EF8C0
:104E300088B920684169806900903A464946204611
:104E400000F02AF948B1206C042804D120680168D8
:104E500041F4007101600120DEE7F5B2B8F1010F05
:104E600009D02168300A08613A464946204600F0D8
:104E700013F90028E7D1206805610020CCE7000085
:104E80000200010070B516460D4604461EE020469D
:104E9000FFF74AFE08B1012070BD681C16D0FDF76F
:104EA000E3FB801BA84200D885B920684069C04355
:104EB00040070BD5002044F8300F20216173A07308
:104EC000216941F0200121612073E4E720684069F5
:104ED000C0434007DBD4002070BD00002DE9F0473F
:104EE000984617460D460446C1F30746DDF8209064
:104EF0002AE000BFB8F1FF3F26D0FDF7B5FBA0EBDD
:104F00000901414502D8B8F1000F1DD12068012EDA
:104F100016D0806925EA00000004000C12D00020A1
:104F2000B84211D1002044F8300F20216173A073E2
:104F3000216941F02001216120730120BDE8F08743
:104F40004069E7E70120EBE72068012E0AD080697D
:104F500025EA00000004000C06D00020B842C9D0A9
:104F60000020EBE74069F3E70120F7E72DE9F04780
:104F7000984616460D4604464FF000094FF0200AA9
:104F8000C1F3074723E020684069C043400515D4BA
:104F90002068016841F40071016021686FF480604D
:104FA0004861C4F8309084F83DA084F83E90216CAC
:104FB00041F00401216484F83C9021E0701C06D08B
:104FC000FDF752FBA0EB0800B04203D816B1012F49
:104FD0001FD021E02068012F15D0806925EA00004C
:104FE0000004000C18D000BF44F8309F84F80DA0D6
:104FF00084F80E90216941F02001216184F80C9021
:105000000120BDE8F087406925EA00000004000C9B
:10501000EAD12068406901E02068806925EA000043
:105020000004000CAFD1ECE72DE9F04100259046DB
:105030000E460446202728E04069C043C0060CD431
:1050400054F8301B6FF01000486144F8105967772E
:10505000A577206A2062257714E0FDF705FBA0EB19
:105060000800B04200D886B920684069C0434006B5
:105070000BD544F8305F6773A573206940F02000BA
:10508000206125730120BDE8F08120684169C94392
:105090004906D1D40020F6E770B516460D46044601
:1050A0001EE02046FFF740FD08B1012070BD681CDE
:1050B00016D0FDF7D9FA801BA84200D885B9206820
:1050C0004069C04300060BD5002044F8300F202172
:1050D0006173A073216941F0200121612073E4E72D
:1050E00020684069C0430006DBD4002070BD00008A
:1050F0007CB500258DF8045047208DF80500FF246D
:105100008DF80640032301AA82210B480094FDF785
:105110009DFC0520FDF764F905208DF8040014209E
:105120008DF805008DF80650032301AA822102485C
:105130000094FDF78BFC7CBD840900203EB50BA0DC
:10514000FF2400680290012302AA822100940848EB
:10515000FDF77CFC022301AA822105480094FDF79B
:105160004DFBBDF8040040BA3EBD00000200000047
:10517000840900203EB50BA0FF24006802900123A3
:1051800002AA822100940848FDF760FC022301AACC
:10519000822105480094FDF731FBBDF8040040BAB8
:1051A0003EBD000004000000840900203EB50BA0B5
:1051B000FF2400680290012302AA8221009408487B
:1051C000FDF744FC022301AA822105480094FDF763
:1051D00015FBBDF8040040BA3EBD0000030000000E
:1051E000840900202DE9F04391B0FFF7C3FF054685
:1051F000FFF7A4FF0646FFF7D9FF04462846FBF752
:10520000A5FA2F49FBF793F805463046FBF79EFABF
:105210002C49FBF78CF82C49FBF7BBF806462046D7
:10522000FBF794FA2949FBF782F804462846FBF776
:105230009FFA054689462A464B4625A001F0D4FD33
:105240003046FBF795FA064688463246434625A087
:1052500001F0CAFD2046FBF78BFA04460F463B4699
:10526000224624A001F0C0FD2A464B4626A16846EE
:1052700001F0CAFD02236A461946002000F0D0FB67
:105280003246434624A1684601F0BEFD02236A4629
:105290000421002000F0C4FB22463B4622A16846C0
:1052A00001F0B2FD02236A460621002000F0B8FB9F
:1052B0004FF47A70FDF794F811B0BDE8F083000068
:1052C000CDCCCC3D0000A03F00007A44000020403F
:1052D00043757272656E743A252E3066206D410AF0
:1052E00000000000566F6C746167653A252E3366C6
:1052F00020560A00506F77202020203A252E306655
:10530000206D570A0000000043757272656E743A92
:10531000252E3066206D4100566F6C746167653ACA
:10532000252E336620560000506F77202020203A2B
:10533000252E3066206D57000A4B012808D0022820
:105340000ED1C001012906D0002909D1012203E0B4
:105350004FF40070F6E7002201461846FDF77EB9CB
:1053600070470000000C01400A4C207803280DD142
:105370000021022308A2084600F052FB02230BA2E0
:105380001946002000F04CFBFBF716FC642002F0ED
:105390004FFAEAE70A0000202041444320565243D6
:1053A00050552054657374200000000020202020F8
:1053B000202020202020202020202020000000006D
:1053C0003EB50021124800910191104A02910260FD
:1053D00081600173017501244FF460220461C26190
:1053E0004160FCF72FF908B1FBF7CAFF07200094D2
:1053F000CDE9014069460648FCF7A2F808B1FBF781
:10540000BFFF0348FCF730F83EBD00000024014018
:105410002C0700200F4810B50D490160082141609C
:1054200000214FF4A0228160C0E903124FF48012E2
:105430004261017641768176C17601774177FCF74A
:1054400023FD002803D0BDE81040FBF799BF10BD35
:10545000006400405C070020114808B5416941F034
:10546000010141614069002200F001000090052126
:105470000D20FDF707FE0D20FDF7F6FD00220521AA
:105480000F20FDF7FFFD0F20FDF7EEFD00220521A7
:105490001020FDF7F7FDBDE808401020FDF7E4BD42
:1054A0000010024010B5AAB01C2221496846FAF744
:1054B000EBFE0021684602F0C7F91E4C1C491C2275
:1054C00020601C3107A8FAF7DFFE002107A802F0D0
:1054D000BBF9174960601C2238310EA8FAF7D4FED8
:1054E00000210EA802F0B0F91149A0601C2254312D
:1054F00015A8FAF7C9FE002115A802F0A5F90C4974
:10550000E0601C2270311CA8FAF7BEFE00211CA826
:1055100002F09AF9064920611C228C3123A8FAF77F
:10552000B3FE002123A802F08FF960612AB010BDFC
:105530009C8A00080C0000202DE9F04385B000256E
:1055400040480095019502950395816941F010014D
:105550008161816901F010010491816941F02001AC
:105560008161816901F020010491816941F00401A8
:105570008161816901F004010491816941F00801B0
:1055800081618069304F00F008004FF400540490AE
:10559000002221463846FDF761F8DFF8B09001227D
:1055A00010214846FDF75AF8DFF8A48000220621B2
:1055B0004046FDF753F801224FF440714046FDF795
:1055C0004DF8009401AA0124022682E87000694681
:1055D0003846FCF753FF10208DE83100032003907C
:1055E00069464846FCF74AFF40F206308DE87100F4
:1055F00069464046FCF742FF164D4FF22000CDE9C8
:105600000005694602944046FCF738FF2002CDE9C8
:105610000005694602944846FCF730FF0022052148
:105620001720FDF72FFD1720FDF71EFD0022052195
:105630002820FDF727FD2820FDF716FD05B0BDE861
:10564000F0830000001002400010014000080140FB
:10565000000C0140000021100D4810B50B490160FD
:105660000C49416000214FF480428160C0E903127F
:1056700041618161C1610162FCF7FCFF002803D038
:10568000BDE81040FBF77CBE10BD00000054004098
:1056900084090020A086010030B58DB00024274881
:1056A0000C9425490B940160611EC0E90114FEF7BA
:1056B00085F808B1FBF764FE01212048FEF76EF87B
:1056C00045F25105A84235D08DF830408DF8314073
:1056D0008DF8324001220CA91848FEF735F908B1BF
:1056E000FBF74EFE01208DF82C008DF82D008DF873
:1056F0002E0002468DF82F400BA91048FEF7C2F885
:1057000008B1FBF73DFE7D200590082004900420A1
:1057100003900B20029001900A2000906846FAF74F
:105720005FFD0146054800F013FB2A4601210348AE
:10573000FEF73CF80DB030BD00280040D80900202D
:10574000104810B50E4901604FF48271416000218C
:105750008160C1604FF400720161C0E9051230221E
:10576000C0E90721416281620A21C162FEF75FF947
:10577000002803D0BDE81040FBF702BE10BD0000BA
:1057800000300140EC09002010B586B00024174815
:1057900000940194029403940494134905940160C5
:1057A00041F61F41C0E901146421C0E9031484617A
:1057B000FEF75AFC08B1FBF7E3FD4FF48050009070
:1057C00069460A48FEF7DBFC08B1FBF7D9FD0494F3
:1057D00004A906480594FEF713FC002801D0FBF746
:1057E000CFFD06B010BD000000080040440A0020B4
:1057F0000C4810B50A4901604FF4E13141600021C5
:1058000081600C22C160C0E904128161C161FEF7B0
:1058100051FF002803D0BDE81040FBF7B1BD10BD1B
:10582000003801408C0D00200C4810B50A49016079
:105830004FF4E1314160002181600C22C160C0E978
:1058400004128161C161FEF735FF002803D0BDE875
:105850001040FBF795BD10BD00440040D40D002062
:105860000C4810B50A4901604FF4E1314160002154
:1058700081600C22C160C0E904128161C161FEF740
:1058800019FF002803D0BDE81040FBF779BD10BD1B
:10589000004800401C0E0020FEE7FEE70E4D4FF4CE
:1058A0007A742878052812D1002102230BA2084619
:1058B00000F0B6F802230EA21946002000F0B0F85E
:1058C000FBF76CFC01F05AF8204601F0B1FF6420B0
:1058D00001F0AEFFE5E700000A000020202020468E
:1058E0006C617368205465737420202000000000F0
:1058F00020202020202020202020202020202020A8
:1059000000000000002000F001B8000070B506465D
:105910005FF0000404F1B000C0B201F041FA0020D1
:1059200001F03EFA102001F03BFA0025304601F06C
:1059300049FA6D1CEDB2802DF8D3641CE4B2082C3A
:10594000E8D370BD10B50120FCF74AFDAE2001F090
:1059500027FA202001F024FA102001F021FAB020CB
:1059600001F01EFAC82001F01BFA002001F018FA1D
:10597000102001F015FA402001F012FA812001F008
:105980000FFAFF2001F00CFAA12001F009FAA6207D
:1059900001F006FAA82001F003FA3F2001F000FA16
:1059A000A42001F0FDF9D32001F0FAF9002001F064
:1059B000F7F9D52001F0F4F9F02001F0F1F9D92040
:1059C00001F0EEF9222001F0EBF9DA2001F0E8F91C
:1059D000122001F0E5F9DB2001F0E2F9202001F0CE
:1059E000DFF98D2001F0DCF9142001F0D9F9BDE8D0
:1059F0001040AF2001F0D4B910B50446B031C8B2A0
:105A000001F0CEF9102040EA141001F0C9F904F0B9
:105A10000F00BDE8104040F0010001F0C1B90000E6
:105A20002DE9F047002591468A460446012B22D0F5
:105A3000DFF8BC80022B24D155E02038C7B27E2C81
:105A400004D90AF10100002400F0FF0A5146204663
:105A5000FFF7D2FF07EB4700002608EB4007B85DD1
:105A600001F0B0F9761CF6B2062EF8D3A41D6D1C19
:105A7000E4B2EDB201E0DFF87C8019F805000028FF
:105A8000DBD1BDE8F0872038C7B2782C04D90AF101
:105A90000100002400F0FF0A51462046FFF7ACFF4A
:105AA0005FF0000606EB071118F8010001F08AF913
:105AB000761CF6B2082EF5D30AF10100C1B22046D9
:105AC000FFF79AFF5FF0000606EB071101EB0800F5
:105AD000007A01F077F9761CF6B2082EF4D3083478
