:020000040800F2
:10000000E806002005010008B3380008B3300008F6
:10001000B138000841090008554000080000000000
:100020000000000000000000000000006D3B000820
:100030001F0A000800000000A93900086F3B0008F3
:100040001F0100081F0100081F0100081F01000810
:100050001F0100081F0100081F0100081F01000800
:100060001F0100081F0100081F0100081F010008F0
:100070001F0100081F0100081F010008E90900080E
:100080001F0100081F0100081F0100081F010008D0
:10009000F93F00081F0100081F010008470A000877
:1000A0001F0100081F0100081F0100081F010008B0
:1000B0001F0100081F0100081F0100081F010008A0
:1000C0001F0100081F0100081F0100081F01000890
:1000D0001F010008E13F00081F0100081F01000880
:1000E000210A00081F0100081F010008DFF810D0D6
:1000F00000F054FB00480047A5490008AFF300801A
:10010000E80600200648804706480047FEE7FEE76D
:10011000FEE7FEE7FEE7FEE7FEE7FEE7FEE7FEE7B7
:10012000F93B0008ED000008202A04DB203A21FA00
:1001300002F00021704721FA02F3D040C2F1200200
:10014000914008431946704738B5D0E90221491E4D
:1001500001EB410102EBC1014268C1EB011102EB6D
:1001600081010268C1EB011102EB8102D0E9043187
:1001700001EB410103EB81013023A1F5527191FBA9
:10018000F3F4174D6C4302EBC41291FBF3F403FB41
:10019000141100921A2902DB124B1A4400920C220D
:1001A00091FBF2F3104C6343009C04EBC3130093E8
:1001B00091FBF2F302FB13110C4A08E0491E40F2D6
:1001C000A324535C6343009C04EBC31300930029F6
:1001D000F4DC0146684600F00DFA009838BD0000D6
:1001E0003F0C0F008051010067C20300744A0008F1
:1001F000D2B201E000F8012B491EFBD27047002269
:10020000F6E710B513460A4604461946FFF7F0FF15
:10021000204610BD2DE9FE4F804681EA0300C00F45
:100220000C46009021F0004123F00045B8EB02009D
:10023000A94105D24046214690461C460B4602463F
:1002400023F00040104347D0270DC7F30A00C3F343
:100250000A510290401A019040286BDAC3F3130050
:1002600040F4801B0098924620B10023D2EB030A91
:1002700063EB0B0B01985946C0F14002504600F069
:1002800098F906460D4650465946019A00F0A0F9E5
:1002900010EB08006141002487EA115284EAE773F9
:1002A0001A4340D0009A62B3019A012A4FEA0752DA
:1002B00015DC001B61EB02014FF0004202EA07521D
:1002C000CDE90042001C41F5801132462B4600F07A
:1002D000E6F903B0BDE8F08F40462146F9E7001B80
:1002E00061EB0201001C41F5801300185B412018EE
:1002F000A2F5001747EB030140EAD570B6196D412E
:1003000011E06D084FEA360645EAC0754FEA07521C
:10031000001B61EB0201001C41F5801149084FEA06
:1003200030000019514132462B4603B0BDE8F04F72
:1003300000F0A6B90098012240000023D0EB020291
:1003400063EBE073009821464FEAE074B8EB0000DD
:1003500061EB0401E9E783F000435BE781F00041D2
:1003600058E72DE9FE4F81EA030404F0004421F030
:10037000004100944FF0000B23F0004350EA0104C9
:100380005ED052EA03045BD0C3F30A54C1F30A55AA
:100390002C44A4F2F3340194A0FB0254C1F31301E2
:1003A00041F48011C3F3130343F4801301FB0244AF
:1003B00000FB034E840A970A44EA815447EA8357B4
:1003C000A4FB076802958D0A05FB07854FEA932C6D
:1003D00004FB0C542705029D4FEA065847EA1637DE
:1003E000B5EB08056EEB070C870E920E47EA8117F6
:1003F00042EA8312A7FB0201B6EB0B0164EB000497
:100400002B0D43EA0C335E1844EB1C50DA46514680
:10041000E7FB0201C5F313044FEA0B3343EA14531D
:100420004FEA0432019C43EA0603A4F10C0402944F
:10043000009CCDE900B400F032F903B0BDE8F08FC4
:1004400000200146F9E72DE9F04D81EA030404F0AC
:10045000004B21F0004514464FF0000A23F0004104
:1004600050EA050220D054EA01021DD0C5F30A5714
:100470000246C5F31303C1F31300C1F30A5640F457
:10048000801543F48013A7EB0608101BD64608F22C
:10049000FD3873EB050002D308F1010801E0921862
:1004A0005B41B8F1000F03DA00200146BDE8F08D92
:1004B00000204FF48011064684460EE0171B73EBB4
:1004C000050705D3121B63EB050306434CEA010C39
:1004D00049084FEA300092185B4150EA0107EDD11C
:1004E00052EA030012D082EA040083EA05010843BD
:1004F00005D0101BAB4106D20122002306E00022EA
:100500004FF0004302E06FF0010253101AEB0600B7
:100510004CEB085110EB0A0041EB0B01BDE8F04D2C
:1005200000F0AEB830B50B46014600202022012471
:1005300009E021FA02F59D4205D303FA02F5491BB1
:1005400004FA02F52844151EA2F10102F1DC30BDC7
:100550002DE9F05F0546002092469B4688460646F8
:10056000814640241BE02846414647462246FFF785
:10057000DBFD53465A46C01A914110D31146184626
:10058000224600F016F82D1A67EB01084F46224666
:100590000120002100F00DF817EB00094E41201E4C
:1005A000A4F10104DFDC484631462A464346BDE853
:1005B000F09F202A04DB203A00FA02F10020704765
:1005C0009140C2F1200320FA03F319439040704791
:1005D000202A06DBCB17203A41FA02F043EAE07307
:1005E00006E041FA02F3D040C2F1200291400843F4
:1005F0001946704710B500683C22B0FBF2F302FBCD
:100600001303B0FBF2F00B60B0FBF2F302FB130339
:10061000B0FBF2F018224B60B0FBF2F302FB1303C5
:10062000B0FBF2F0021D8B600723B2FBF3F403FB77
:100630001422800040F2B55300F66C308A61B0FBA2
:10064000F3F2B0FBF3F403FB1400443280084A6178
:10065000C8613B2802D3920700D0401C0022074CFF
:1006600013460A61E25C824203D8801A5B1C0B616C
:10067000F8E7401CC860084610BD0000804A00082A
:1006800010B5141E73F1000408DA401C41F100019A
:1006900092185B411A4301D120F0010010BD2DE9F1
:1006A000F04D92469B4611B1B1FA81F202E0B0FAE8
:1006B00080F220329046FFF77CFF04460F4640EA66
:1006C0000A0041EA0B0153465A46084313D011462B
:1006D00053EA010019D0C8F140025046FFF724FD4B
:1006E00005460E46504659464246FFF762FF08430C
:1006F00005D0012004E020463946BDE8F08D0020F9
:10070000054346EAE0762C4337430A986305E40A3A
:10071000A0EB08000022FD0A44EA47540A3002D543
:1007200000200146E9E7010510196941DDE90845A6
:1007300000196941BDE8F04DA2E7C1F30A52C1F3C7
:10074000130140F2FF3341F480119A4202DA002093
:100750000146704740F233439A42A2F2334202DC30
:100760005242FFF7E1BCFFF724BF000030B5041E82
:1007700071F1000404DB4FF00044404264EB0101DE
:10078000141E73F1000405DB1C464FF00043524277
:1007900063EB0403994208BF904230BD064C074DFD
:1007A00006E0E06840F0010394E807009847103441
:1007B000AC42F6D3FFF79EFC8C4A0008AC4A000816
:1007C00070B5044600688168C943C90717D18168BC
:1007D00021F00101816001F0A1F905460AE000BFA6
:1007E00001F09CF9401B022804D920688068C043AE
:1007F000C00706D020688068C043C007F0D0002042
:1008000070BDA06A40F01000A062E06A40F00100F4
:10081000E062012070BD0000F8B500260446009695
:1008200000688168C943C9072DD0816841F0010182
:100830008160164816490068B0FBF1F000E0401EE8
:1008400000900028FBD101F069F9054616E000BFD1
:1008500001F064F9401B022810D920688068C04369
:10086000C0070BD0A06A40F01000A062E06A40F020
:100870000100E06284F824600120F8BD20688068EF
:10088000C043C007E4D10020F8BD00001C000020D8
:1008900040420F001CB5BE208DF8040008208DF8E2
:1008A000050000208DF806004FF6FF70009003232E
:1008B00001AA7021014801F023FB1CBD7C0000202F
:1008C0001CB5282000F086FFBE208DF8040008200B
:1008D0008DF8050000208DF806004FF6FF7000909F
:1008E000032301AA7021054801F00AFB00F008F873
:1008F000000701D4FFF7CEFF1CBD00007C000020E4
:100900001CB54FF6FF700090012301AA7021034827
:1009100001F0CEF99DF804001CBD00007C00002011
:10092000064B4FF40051012805D0002805D10022C4
:10093000184601F0EDB80122FAE7704700100140B7
:10094000FEE7000000B58BB0002001210390049069
:10095000CDE90601CDE908100590009001900290C4
:100960006946044800F09AFA002801D000F075F8B2
:100970000BB000BD5400002010B5084800F078FD11
:1009800008B100F06AF80221044800F00DFA0028CE
:1009900003D0BDE8104000F060B810BD5400002046
:1009A00000B589B00DA108ABD1E90001CDE9060180
:1009B000002002900390122108200091049006AAC2
:1009C0006946084800F002FA08B100F046F841F222
:1009D000883000F0FFFE09B000BD000001020304F2
:1009E0000506070854000020014800F0E3BD0000A0
:1009F0008402002030B590F840500124AC40C56B13
:100A00006C60046863604368102B036803D09960CE
:100A10000068C26030BD9A600068C16030BD704738
:100A200010B54FF4805000F077FF4FF4005000F005
:100A300073FF4FF4804000F06FFFBDE810404FF4AB
:100A4000004000F069BF10B5202000F065FFBDE850
:100A500010404FF4807000F05FBF72B6FEE70000F8
:100A6000F8B500250446009590F8240001280BD025
:100A7000012084F824002046FFF7A2FE2046FFF75D
:100A8000CBFE060002D050E00220F8BDA06A20F4A0
:100A9000885040F00200A062022001F093FB25493B
:100AA0000968B1FBF0F0400000E0401E0090002813
:100AB000FBD12068816841F00801816001F02EF8C7
:100AC000074608E001F02AF8C01B0A2803D920686D
:100AD0008068000715D4206880680007F2D4206879
:100AE000816841F00401816001F018F8074612E0C6
:100AF00001F014F8C01B0A280DD92068806840074F
:100B000009D5A06A20F0020040F01000A06284F82D
:100B100024500120F8BD206880684007E8D4A06A0E
:100B200020F0020040F00100A06284F8245030461A
:100B3000F8BD00001C000020F8B50024009490F8D7
:100B400024202546012A12D0012280F824204A6858
:100B50001F23072A0DD20668776B521E02EB820212
:100B600093409F430B6893401F43776319E0022033
:100B7000F8BD06680D2A0AD2376BD21F02EB82023B
:100B800093409F430B6893401F43376309E0F76A24
:100B90000D3A02EB820293409F430B6893401F4340
:100BA000F7620A68072306680A2A0AD3F7680A3A2E
:100BB00002EB420293409F438B6893401F43F760D0
:100BC00008E0376902EB420293409F438B689340F1
:100BD0001F4337610A68102A01D0112A20D1124B15
:100BE00002689A4217D193681B0219D4936843F4A0
:100BF000000393600968102912D10C490C4A096856
:100C0000B1FBF2F101EB8101490000E0491E0091C6
:100C10000029FBD104E0816A41F0200181620124B6
:100C200080F824502046F8BD002401401C0000201C
:100C300040420F002DE9F0414FF0000704003D460F
:100C40007ED0A06A002628B9E66284F82460204697
:100C500000F07EF82046FFF7B3FDA16AC90600D474
:100C600020B1A06A40F01000A06269E0A16A21F4FE
:100C7000885141F00201A1626268E169237B0A4365
:100C800047EA43010A43A1684FF48077B94209D08B
:100C9000012907D05FF0000194F814C0BCF1010FE6
:100CA00002D00AE03946F7E7F3B1A36A43F0200324
:100CB000A362E36A43F00103E3622368D3F804C04C
:100CC0002CF4694C4CEA010CC3F804C021688B6811
:100CD000DFF870C003EA0C0313438B60A168B942CC
:100CE0000BD0012909D00CE0DFF85CC0A3690CEB44
:100CF00043330B4343F40061DFE7218A0D05A5F57B
:100D000080152168CB6A23F470032B43CB622168E2
:100D100089680E4B1940914208D1E662A16A21F020
:100D2000020141F00101A162BDE8F081A06A20F05A
:100D3000020040F01000A062E06A40F00100E062B2
:100D40000120F1E7FDF7E1FF00E0FFFFFE0E1FFFCE
:100D500000B585B0002100910191029103910068D6
:100D60000E49884218D10E48816941F400718161B1
:100D7000816901F400710491816941F0040181618C
:100D80008069694600F0040004900220009003206E
:100D90000190044800F0CCFD05B000BD00240140E6
:100DA000001002400008014090F82020012A07D0DE
:100DB000022A05D0416A41F4802141620120704736
:100DC000006842690A43426100207047F0B590F81C
:100DD00020500468A468012D05D0022D03D0416A7B
:100DE00041F4802157E014F0406F01D1E5004FD568
:100DF000C4F301640125A5401D608D684FF4C073E4
:100E00009DB1CE6835434E6845EAC605066803EBDA
:100E10000417F5514FF4C275076805EB04150E6908
:100E20007E51097D012905D009E00E88CD6845EA8B
:100E30004655EBE701684E5946F480764E511179DC
:100E4000D579567941EA056195792D0445EA06255B
:100E500029434FF4C676056806EB0416A9511178AC
:100E6000D57841EA0561957852782D0445EA022249
:100E700011434FF4C475026805EB04155151006825
:100E800003EB0411425842F0010242500020F0BD31
:100E9000416A41F4001141620120F0BD10B590F8A3
:100EA00020300268012B07D0022B05D0416A41F4A3
:100EB00080214162012010BDD2F8000240F0010003
:100EC000C2F80002087D00F01F0301209840D2F80C
:100ED0001C328343C2F81C32CB69B3B9D2F80C324E
:100EE0008343C2F80C328C894B6864F31F434C690E
:100EF00002EBC404C4F840320C890B6864F31F434E
:100F00004C6902EBC404C4F84432CB69012B16D1FE
:100F1000D2F80C320343C2F80C320C884B6864F3ED
:100F20001F434C6902EBC404C4F840320C89CB68FF
:100F300064F31F434C6902EBC404C4F844328B6968
:100F4000002BD2F804320FD053EA0003C2F8043267
:100F50000B69002BD2F8143208D00343C2F81432C4
:100F6000096A012904D008E08343EFE78343F5E7EA
:100F7000D2F81C120143C2F81C12D2F8000220F071
:100F80000100C2F80002002010BD704770B590F853
:100F90002040012C05D0022C03D0416A41F480216D
:100FA00028E0046809B32469A40720D04FF4D8745A
:100FB000056804EB01142D5915F0040595600568CA
:100FC0002D591AD0ED08556005682C5904F002041B
:100FD000D4604FF4DA74056804EB01142E5906F05E
:100FE0000F06082E0CD308250DE0E468DCE7416A03
:100FF00041F400114162012070BD6D0D1560E3E701
:101000002D5905F00F05156105682D59C5F3072504
:10101000956105682C59240C54614FF4DC72046806
:1010200002EB0112A4581C700468A458240A5C70D6
:101030000468A458240C9C700468A258120EDA703C
:101040004FF4DE72046802EB0112A4581C710468AC
:10105000A458240A5C710468A458240C9C71046888
:10106000A258120EDA71006829B1016941F020011D
:101070000161002070BDC16841F02001C160F8E746
:101080002DE9F05F0546006800244669D0F8049019
:101090008768D0F80CB0D0F810A0D0F81880F1070D
:1010A00048D0F90714D001218160B80703D528463C
:1010B00000F00BFA0CE0780702D54FF4006407E06B
:1010C000380702D54FF4805402E0284600F0FCF9BE
:1010D000F80516D529684FF480708860B80503D5E7
:1010E000284600F0F4F90CE0780502D544F40054E9
:1010F00007E0380502D544F4804402E0284600F0B9
:10110000E5F9F80316D529684FF480308860B803F4
:1011100003D5284600F0DDF90CE0780302D544F44D
:10112000004407E0380302D544F4803402E0284646
:1011300000F0CEF9300707D55FEACB6004D5296807
:10114000102044F40074C86070074FF0080707D5FA
:101150005FEA0B7004D52868C760284600F05AF98A
:10116000B00706D52868C068800702D0284600F07E
:1011700053F9700607D55FEACA6004D529681020C4
:1011800044F480640861B00607D55FEA0A7004D5AC
:1011900028680761284600F067F9F00606D5286838
:1011A0000069800702D0284600F05FF9B00308D537
:1011B0005FEAC96005D5296810204860284600F01C
:1011C00055F9F00307D55FEA097004D52868476030
:1011D000284600F07FF9300446D55FEA497040D5D3
:1011E000F00504D55FEAC87001D044F00104B005F1
:1011F00004D55FEA887001D544F00204700504D577
:101200005FEA487001D544F00404300529D518F090
:10121000700F26D008F07000402815D006DC10288A
:1012200009D020280AD0302816D10AE050280ED044
:10123000602811D10EE044F008040DE044F01004E1
:101240000AE044F0200407E044F0400404E044F0E5
:10125000800401E044F480742868816921F0700101
:101260008161296804204860002C05D0686A204309
:1012700068622846FFF789FEBDE8F09F70B504005C
:1012800003D094F8200010B104E0012070BD204686
:1012900000F082F82068016841F00101016000F06F
:1012A0003DFC0546052604E000F038FC401B0A28FA
:1012B00011D820684068C007F6D02068016821F086
:1012C0000201016000F02AFC05460BE000F026FC5C
:1012D000401B0A2806D9606A40F40030606284F836
:1012E0002060D2E7206840688007EFD4207E012884
:1012F000206801683DD021F080010160607E0128F6
:101300002068016838D021F040010160A07E0128EA
:101310002068016833D021F020010160E07E0128BF
:10132000206801682ED041F010010160207F012863
:101330002068016829D021F008010160607F012840
:101340002068016824D021F004010160D4E9020181
:101350000843D4E90412114308436168491E084355
:101360002168C86100206062012084F8200000200C
:1013700070BD41F08001C0E741F04001C5E741F098
:101380002001CAE721F01001CFE741F00801D4E7BE
:1013900041F00401D9E7000010B586B000210091AA
:1013A0000191029103910068174988422AD1174898
:1013B000C16941F00071C161C16901F0007104911E
:1013C000816941F0040181618069114C00F00400E1
:1013D00004904FF4006000906946204600F0A8FA9F
:1013E000A01400900220019003200390694620463B
:1013F00000F09EFA00221146142000F0ABFE1420EB
:1014000000F09AFE06B010BD0064004000100240DB
:10141000000801407047000010B50D4A0168914274
:1014200014D10C4B0C4A0021FFF7B0FD00280DD160
:101430000948016809A002F033FEBDE810404FF0F2
:10144000FF3308220349074801F0E2BD10BD000048
:101450000064004008000020C80200202523783ADC
:10146000000000003C0200207047704770470000F9
:1014700070B5044690F82000012804D0606A40F45A
:101480000020606218E0022084F8200020680168D3
:1014900021F00101016000F041FB05460EE000BFB4
:1014A00000F03CFB401B0A2808D9606A40F4003079
:1014B0006062052084F82000012070BD206840682B
:1014C000C007EDD1606270BD7047704770477047CC
:1014D00070477047704710B590F82110002202291C
:1014E00005D00421816380F82020012010BD01680F
:1014F0000B6823F00E030B6001680B6823F00103F7
:101500000B6090F84030C46B012101FA03F3636073
:1015100080F8211080F82020104610BD10B590F8FA
:1015200021100024022903D00421816301243DE01D
:1015300001680A6822F00E020A6001680A6822F057
:1015400001020A601A4A0168914201D1012121E099
:10155000174A1432914201D110211BE0144A28325B
:10156000914201D1891515E0114A3C32914201D1D5
:1015700089140FE00E4A5032914202D14FF480316B
:1015800008E00B4A6432914202D14FF4801101E02D
:101590004FF08071064A083A5160012180F821100D
:1015A000002180F82010416B01B18847204610BD12
:1015B000080002402DE9F05FC16B0C6801680B6800
:1015C000D0F840C0042202FA0CF2494DDFF824A101
:1015D000494E4A4FDFF828B1DFF828E122422CD0EB
:1015E0005A072AD50A68920603D40A6822F0040230
:1015F0000A600168A94201D1042219E0514501D1D4
:10160000402215E0B14202D14FF4806210E0B942AD
:1016100002D14FF480420BE0594502D14FF48022B1
:1016200006E0714502D14FF4800201E04FF0806284
:101630002F4908394A60C16A3BE04FF0020808FAB6
:101640000CF818EA040F4FF000094FF0010235D0F2
:101650005FEA837832D50B689B0605D40B6823F0CC
:101660000A030B6080F821200168A94201D10222FF
:1016700019E0514501D1202215E0B14202D14FF4C9
:10168000007210E0B94202D14FF400520BE059450C
:1016900002D14FF4003206E0714502D14FF400123E
:1016A00001E04FF00072124908394A6080F820903A
:1016B000816A00291AD0BDE8F05F0847082505FABD
:1016C0000CF5254212D01B0710D50B6823F00E0332
:1016D0000B6090F84010C36B02FA01F1596082630D
:1016E00080F8212080F82090016BE2E7BDE8F09FB0
:1016F000080002401C00024030000240440002404A
:10170000580002406C00024030B528B308C81349A5
:1017100014221944B1FBF2F18900C16310498163BD
:10172000022141771A6843F6F0718A43D0E9001428
:101730002143D0E902452C432143046921434469F4
:10174000214384692143114319600021416301222F
:1017500042770177084630BD012030BDF8FFFDBF5C
:101760000000024070B5044690F8200000250128D2
:101770000CD0012084F8200094F821600020012E74
:1017800006D084F820000225284670BD022070BDD6
:10179000022684F82160A0632068066826F001060E
:1017A00006602046FFF726F9E06A002820680168F5
:1017B00002D041F00E0106E021F004010160206832
:1017C000016841F00A0101602068016841F00101EF
:1017D0000160D9E770B5044600F0A0F90546601C29
:1017E00002D004480078044400F098F9401BA0425D
:1017F000FAD370BD10000020264910B50B68264AA8
:1018000014681B1BC82B44D30968244C1160B0F525
:10181000005F17D0B0F5804F1CD0202822D0B0F543
:10182000004F27D0B0F5805F2CD0B0F5807F30D14D
:101830000020FFF775F80620207019A0BDE81040C1
:1018400002F02EBC0121084601F06CFE0120207040
:1018500018A0F3E70021012001F064FE02202070AF
:1018600019A0EBE70121022001F05CFE03202070AB
:101870001AA0E3E70021022001F054FE04202070AA
:101880001BA0DBE70120FFF74BF8052020701DA00F
:10189000D4E710BD18000020040000200000002044
:1018A0004B65792045534320202050726573736542
:1018B000640A00004B657920557020202050726525
:1018C000737365640A0000004B657920446F776E7E
:1018D00020507265737365640A0000004B657920BF
:1018E0004C65667420507265737365640A0000006D
:1018F0004B6579205269676874205072657373650F
:10190000640A00004B6579204F4B20202020507244
:1019100065737365640A0000044910B50A680242E1
:1019200002D00860FFF768FF10BD000014040140FA
:101930002DE9F84FDFF8B8910024A9F1040B2346F4
:101940000F2709F1040AABF1040EC9E00125A540F7
:101950002A40AA427DD1674ED1F804C0ACEB0608FC
:10196000B44532D014DCBCF1030F3AD009DCBCF131
:10197000000F2AD0BCF1010F1CD0BCF1020F31D1F5
:101980001DE0BCF1110F17D0BCF1120F2AD119E0E4
:10199000B8F5881F19D006DCB8F5803F15D0B8F52A
:1019A000801F1FD111E0B8F5001F0ED0B8F5041F3D
:1019B00018D10AE0CB6815E0CB681B1D12E0CB689C
:1019C00008330FE0CB680C330CE08B682BB1012B94
:1019D0004FF0080303D0456104E0042302E00561F1
:1019E00000E00023FF2A01D8064601E000F10406CA
:1019F0004FEA840501D9A5F12005D6F8008007FA41
:101A000005FC28EA0C0803FA05F548EA0508C6F8BB
:101A100000804D68ED0062D5374DAE6946F0010695
:101A2000AE61AD6924F0030605F001050095334D64
:101A300006EB050CDCF80850A607360F07FA06F887
:101A400025EA0805DFF8B880404503D14FF00008CB
:101A500017E044E0DFF8AC80404502D14FF00108C8
:101A60000FE0DFF8A480404502D14FF0020808E003
:101A7000DFF89880404502D14FF0030801E04FF0B5
:101A8000040808FA06F848EA0508CCF808804D680A
:101A9000D9F80060ED024D4601D5164300E09643AB
:101AA0002E604D68DAF80060AD02554601D5164348
:101AB00000E096432E604D68DBF80060AD035D46A4
:101AC00001D5164300E096432E604D68DEF80060B5
:101AD000ED03754601D5164300E096432E60641C65
:101AE0000D682A46E5407FF431AFBDE8F88F00006D
:101AF00008040140000011100010024000000140E5
:101B000000080140000C0140001001400014014099
:101B10000AB1016170470904FBE7000001488068D1
:101B2000704700001000002070B5040025D094F824
:101B30003D00002520B984F83C50204600F076FA9C
:101B4000242084F83D002068016821F00101016033
:101B50002068016841F4004101602068016821F4B7
:101B60000041016000F08CFC4D4A6168914201D84F
:101B70004C4900E04C49884201D2012070BD4B49DC
:101B80002368B0FBF1F15E6826F03F060E435E600D
:101B90006368934206D94FF4967359434FF47A73AE
:101BA000B1FBF3F12368491C1E6A26F03F0631435E
:101BB00019626168914210D84900401EB0FBF1F2F1
:101BC000521CC2F30B02042A01D2042022E0B0FB13
:101BD000F1F0401CC0F30B001CE0A268F2B301EB73
:101BE000C10303EB0116431EB3FBF6F35B1C43F486
:101BF00080431B0549D092B301EBC10202EB0111F6
:101C0000401EB0FBF1F0401CC0F30B0040F48040DC
:101C100040F400402168CA694CF6FF739A431043B0
:101C2000C861D4E9071001432068026822F0C002AD
:101C300011430160D4E9030101432068826848F23E
:101C4000FF339A4311438160D4E9050108432168B9
:101C5000CA6822F0FF021043C86001E00EE016E0FF
:101C60002068016841F0010101602564202084F8AA
:101C70003D00256384F83E50002070BD01EB410615
:101C8000431EB3FBF6F35B1CB3E70120C2E701EB95
:101C90004101401EB0FBF1F0401CC0F30B00B7E760
:101CA000A086010080841E0000093D0040420F0014
:101CB0002DE9F84F0025DDF82890984617468A460A
:101CC00004460095FFF72AFF064694F83D002028B9
:101CD0007AD11923012286492046009601F0F2FAB2
:101CE0000028F5D194F83C0001286DD0012084F83B
:101CF0003C0020680168C90703D1016841F0010177
:101D000001602068016821F400610160222084F8EC
:101D10003D00102084F83E0025646762A4F82A8004
:101D2000608D20857348E06233464A46514620461E
:101D300001F0D8F900287CD1208DDFF8BC81202764
:101D400068B1012814D00228206801681ED041F42F
:101D5000806101602068416980690090BBE0206873
:101D6000416981690091016841F400710160B2E04C
:101D70002068016821F48061016072B620684169C1
:101D800081690091016841F400710AE041F4006149
:101D9000016072B62068416981690091016821F48F
:101DA0008061016062B696E0032865D801280CD0F6
:101DB00002284B464FF000024146204600960BD0C9
:101DC00001F080FAA8BB0CE090E03246494620467C
:101DD00001F01EFB68BB71E001F074FA48BB72B6FB
:101DE00033E02068016821F48061016072B62068E8
:101DF0000069616A0870606A401C6062208D401E44
:101E00002085608D401E60853C4846F2A811006820
:101E1000B0FBF1F0C0EBC00000EB80000090401E72
:101E2000009007D020684069C04340070DD5009856
:101E3000F5E727E044F8305F6773A573206940F049
:101E40002000206162B625731CE02068016841F41F
:101E50000071016020680069616A0870606A401C56
:101E60006062218D491E2185618D491E618562B6A2
:101E700021680969017025E032464946204601F093
:101E8000C7FA10B10120BDE8F88F20680069616AC7
:101E90000870606A401C6062208D401E81B22185FE
:101EA000608D401E608520684269D243520712D47B
:101EB000032903D1016821F4806101602068006971
:101EC000616A0870606A401C6062208D401E208537
:101ED000608D401E6085208D00287FF465AF84F8FA
:101EE0003D7084F83E5084F83C50CCE70220CAE7AD
:101EF000020010000000FFFF040001001C00002091
:101F00002DE9F84F1F4690468A460446DDF8289092
:101F1000FFF704FE054694F83D0020287FD11923E1
:101F2000012240492046009501F0CCF9002876D1E5
:101F300094F83C00012872D0012084F83C0020680D
:101F40000168C90703D1016841F0010101602068FF
:101F5000016821F400610160212084F83D00102017
:101F600084F83E0000262664C4F824806785608DCE
:101F700020852D48E0622B464A465146204601F016
:101F800027F990B9206841698069009036E02A46B7
:101F90004946204601F074FA50B1206C042804D15F
:101FA0002068016841F4007101600120BDE8F88FEC
:101FB000606A216800780861606A401C6062618D17
:101FC000491E6185218D491E89B221852268536988
:101FD000DB435B070BD451B100781061606A401C91
:101FE0006062608D401E6085208D401E20852A46DF
:101FF0004946204601F03AF90028CED1208D00282C
:10200000C5D154F83D0B016841F4007101602020F6
:1020100004F81E09E67766770020C7E7FFE702208D
:10202000C4E70000020010000000FFFF10B586B0FA
:102030000021009101910291039100680F498842AB
:102040001AD10F4CA06940F00800A061A069694650
:1020500000F008000490C02000901220019003209E
:1020600003900848FFF764FCE06940F40010E06169
:10207000E06900F40010049006B010BD0054004068
:1020800000100240000C01400248816802781144AF
:102090008160704710000020074810B5016841F0CA
:1020A00010010160032000F075F80F2000F006F821
:1020B00000F024F8002010BD0020024070B50D4D46
:1020C00004464FF47A712878B1FBF0F00A490968A8
:1020D000B1FBF0F000F084FD48B9102C07D20022CB
:1020E0002146501E00F036F800206C6070BD0120C3
:1020F00070BD0000100000201C0000200C4808B536
:10210000816941F001018161816901F00101009162
:10211000C16941F08051C161C06900F080500090F8
:102120000448416821F0E06141F00071416008BD60
:102130000010024000000140002809DB00F01F02EF
:10214000012191404009800000F1E020C0F8001119
:1021500070470000F0B40E4B1B680C46C3F302231B
:10216000C3F10705042D00D90425191D072901D243
:10217000002300E0DB1E012606FA05F1491E21407E
:1021800099409E40761E16403143F0BC01F098BF46
:102190000CED00E0064900F0070208684FF6FF0367
:1021A000184040EA0220034A1043086070470000CC
:1021B0000CED00E00000FA050149012008627047BB
:1021C00000000E4210B501460020234C012922D008
:1021D000022939D010291DD161682268D20119D590
:1021E0001E48C1F38342C903805C0AD561681B4A5B
:1021F000C1F34041921E515C194AB2FBF1F14843D0
:1022000001E0184948436168490203D440000321B2
:10221000B0FBF1F010BD226AC2F30121012903D104
:10222000920701D5C80310BD022905D1626A920741
:1022300002D549F6404010BD0329FCD1216889032D
:10224000F9D54FF2244010BD00F02AF96168C1F3BE
:102250008131491C4900DBE7001002404C4A00086C
:1022600000127A0000093D002DE9F8430546007888
:10227000354CC00754D0E0690026C00008D4E0699E
:1022800040F08050E061E069012600F0805000904D
:102290002E480168C90512D40168804641F4807156
:1022A0000160FFF73BFC074605E000BFFFF736FC87
:1022B000C01B642823D8D8F80000C005F6D5206AD2
:1022C00010F4407021D0A98801F4407181421CD0E3
:1022D000206A1F49012220F440700A6000220A602F
:1022E0002062C00711D0FFF719FC074641F2883879
:1022F00008E000BFFFF712FCC11B414502D90320D3
:10230000BDE8F883206A8007F4D5206A696820F464
:102310004070084320621EB1E06920F08050E06107
:102320002878800705D56068A96820F440400843F4
:1023300060602878C00605D56068E96820F48000F0
:10234000084360600020DBE700100240007000409E
:10235000400442422DE9F0470F46050061D0434E4C
:10236000306800F00700B84209D2306820F007005A
:1023700038433060306800F00700B84251D1286817
:102380003B4C810712D5400703D5606840F4E060FC
:1023900060602878000703D5606840F46050606092
:1023A0006068A96820F0F000084360602878C007E2
:1023B00028D06868012810D02168022810D0890729
:1023C00000292EDA616821F0030101436160FFF703
:1023D000A5FB804641F288390DE021688903EFE7CB
:1023E0008901EDE7FFF79AFBA0EB0801494502D907
:1023F0000320BDE8F0876068696800F00C00B0EB6E
:10240000810FEFD1306800F00700B8420BD9306877
:1024100020F0070038433060306800F00700B84211
:1024200001D00120E5E72878400705D56068E96814
:1024300020F4E060084360602878000706D56068F3
:10244000296920F4605040EAC100606000F038F86B
:102450006168084AC1F30311515CC840064908602D
:1024600006480068FFF72AFE0020C2E7002002406D
:10247000001002405C4A00081C00002014000020EC
:102480000448054900684968044AC1F30221515CC7
:10249000C84070471C000020001002406C4A000831
:1024A0000448054900684968044AC1F3C221515CE7
:1024B000C84070471C000020001002406C4A000811
:1024C0000E4A51680E4801F00C03042B11D0082B62
:1024D0000FD10C48C1F38343C903C05C0AD55168CE
:1024E000084AC1F34041921E515C054A5043B0FB7B
:1024F000F1F0704704494843704700000010024063
:1025000000127A003A4A000800093D002DE9F84F10
:10251000040070D02078C04DC00749D06868C0F36F
:102520008100012807D06868C0F38100022809D122
:102530006868C00306D52868800339D5606800281C
:10254000E7D035E06068B0F5803F0BD010B1B0F552
:10255000A02F11D0286820F480302860286820F44B
:10256000802002E0286840F480302860606890B1E4
:10257000FFF7D4FA06460AE0286840F48020286075
:10258000F0E700BFFFF7CAFA801B642873D82868F9
:102590008003F7D50CE0FFF7C1FA064605E000BF5F
:1025A000FFF7BCFA801B6428F0D828688003F7D4B2
:1025B00020789A4E80074FF001094FF0000839D576
:1025C000686810F00C0F07D06868C0F3810002281B
:1025D00009D16868C00306D42868800714D520692B
:1025E000012808D110E02069B0B1C6F80090FFF7CB
:1025F00095FA074605E00AE1FFF790FAC01B0228AA
:10260000C4D828688007F7D52868616920F0F800E9
:1026100040EAC10028600DE0C6F80080FFF77EFAAE
:10262000074604E0FFF77AFAC01B022823D828687F
:102630008007F7D4207800072CD57948A169D9B153
:10264000C0F80090FFF76AFA074604E0FFF766FA61
:10265000C01B02280FD8686A8007F7D571484FF46D
:10266000FA510068B0FBF1F0009000BF0098411EE5
:102670000091FAD20EE080E0C0F80080FFF74EFA39
:10268000074604E0FFF74AFAC01B022875D8686ABB
:102690008007F7D42078400760D5E8690027C0009C
:1026A00008D4E86940F08050E861E869012700F04B
:1026B000805000905C480168C90513D401688346C6
:1026C00041F480710160FFF729FA824606E000BFFD
:1026D000FFF724FAA0EB0A0064284ED8DBF80000CC
:1026E000C005F5D5E06801280AD008B1052813D047
:1026F000286A20F001002862286A20F0040002E025
:10270000286A40F001002862E06841F2883B98B1F5
:10271000FFF704FA82460BE0286A40F004002862C2
:10272000EEE700BFFFF7FAF9A0EB0A0159455AD8C6
:10273000286A8007F6D50CE0FFF7F0F9824605E03D
:10274000FFF7ECF9A0EB0A0159454CD8286A80073D
:10275000F6D41FB1E86920F08050E861E06988B3E1
:102760006968C1F38101022944D00228C6F860805B
:1027700004D0FFF7D3F9044638E034E0FFF7CEF990
:10278000074604E0FFF7CAF9C01B02282BD82868C7
:102790008001F7D4206AB0F5803F05D16868A16850
:1027A00020F4003008436860D4E9080108436968F0
:1027B00021F4741108436860C6F86090FFF7AEF921
:1027C000044606E025E000BFFFF7A8F9001B022839
:1027D00009D828688001F7D51BE000BFFFF79EF9F4
:1027E000001B022802D90320BDE8F88F2868800169
:1027F000F4D40EE00128F7D06868226A00F4803132
:10280000914204D1616A00F47010884201D0012025
:10281000EAE70020E8E70000001002400000424222
:10282000800442421C00002000700040024850F822
:10283000210080B270470000006C0040024800EBAD
:10284000810091B201607047006C004070B50400D7
:1028500003D0607C002610B105E0012070BD267415
:10286000204600F03DF802206074204600F00AF98E
:10287000042550BB204601F0A1F830BB2068416818
:1028800021F007014160A06820B11448016821F0DF
:10289000010101601148001F0168A26821F4607104
:1028A000114301606068411C04D10120FFF78AFCDC
:1028B00058B1401E2268C0F303419160216880B284
:1028C000C860204601F094F808B16574C5E7E67366
:1028D00001206073A0736074002070BD306C0040F4
:1028E00008B50068084988420DD1FFF765FC074824
:1028F000C16941F00061C161C069054900F0006033
:1029000000900120086008BD00280040001002402F
:102910003C0442422DE9F0410D4604003BD0C5B3D2
:10292000207C01283AD04FF0010884F81080022062
:102930006074E87872B301F038F8E073687801F0F9
:1029400034F86073A87801F030F8A073C2B2617BEC
:10295000E07B01F07FF820732870204601F06AF8D0
:102960004FF46161B0FBF1F1002518292DD918222F
:10297000B1FBF2F1A1EB011101EB4101C1EB01113E
:1029800000EBC1163146204601F0DCF80427C8B937
:102990000BE000E004E00120BDE8F0810220FBE74D
:1029A000E07368786073A878CFE7204601F03BF8C1
:1029B000411C0AD0B04208D206490144204601F029
:1029C00074F810B167742574E5E784F811802574F4
:1029D0000020E1E7805101002DE9F0410D4604009F
:1029E00024D01DB3207C012823D04FF0010884F8A7
:1029F0001080022060742878EAB100F0D6FF4FF40E
:102A0000616100FB01F6687800F0CFFFC0EB0010B9
:102A100006EB8006A87800F0C8FF35182946204646
:102A200001F090F80026042710BB0FE00120BDE85C
:102A3000F0810220FBE74FF4616148436978C1EB04
:102A4000011100EB8100A9784518E7E7206841688B
:102A500021F005014160204600F0E5FF411C0AD04D
:102A6000A84208D206490144204601F01EF810B1E0
:102A700067742674DAE784F8118026740020D6E79C
:102A80008051010070B504000AD02068416821F02F
:102A900008014160FFF742F805464FF47A7608E0F6
:102AA000012070BDFFF73AF8401BB04201D9032066
:102AB00070BD206840680007F4D5002070BD70B577
:102AC000040009D0606A002540B125616561A562F6
:102AD00094F8510040B10CE0012070BD6068B0F581
:102AE000827FF4D0E561F2E784F85050204600F090
:102AF0003FF8022084F851002068016821F040016D
:102B00000160A088218900F4827001F40441084327
:102B1000A18901F400610843217C01F0020108430E
:102B2000217D01F001010843218B01F4007108436C
:102B3000217F01F03801084394F8201001F0800152
:102B40000843218D01F40051084321680860A06901
:102B5000042101EA1040216848602068C16921F41D
:102B60000061C1616565012084F85100002070BDDD
:102B700030B585B000240094019402940394006859
:102B80001449884223D11448816941F480518161FC
:102B9000816901F480510491816941F004018161EE
:102BA00080690E4D00F004000490A02000900220E7
:102BB00001900320039069462846FEF7B9FE4020A5
:102BC000CDE90004694628460294FEF7B1FE05B03F
:102BD00030BD0000003001400010024000080140FC
:102BE00010B5401EB0F1807F01D3012010BD4FF021
:102BF000E02460610F21601701F062FA0020A061FB
:102C000007202061002010BD70477047F8B50168AB
:102C100004460868CA684B6910F00F0F4FF00005B2
:102C200059D003F0010602F49077374365D0C1070D
:102C300005D0D10503D5616C41F001016164410704
:102C400005D5D90703D0616C41F0020161648107A9
:102C500005D5D90703D0616C41F004016164010717
:102C600007D502F02001314303D0616C41F0080127
:102C70006164616C00293AD0800604D5900602D5C3
:102C8000204601F06EF820684069616CC0F3801046
:102C9000090700D460B3204601F02EF8206840698F
:102CA000400621D52068143050E8001F21F0400173
:102CB00040E80012002AF5D1E06BA8B16D494163EC
:102CC000E06BFEF72BFC002811D0E06B416B01B0EC
:102CD000BDE8F040084783060FD593060DD5204682
:102CE000BDE8F84001F03DB82046FFF78EFFF8BD83
:102CF0002046FFF78AFF6564F8BD266B2023012E6E
:102D00007CD1C6067AD5D60678D508684868009082
:102D100048694FF00206400640D5E16B08684068FC
:102D20000004000CE8D0A28D8242E5D9E0858869D4
:102D300020282DD020680C3050E8001F21F480712D
:102D400040E80012002AF5D12068143050E8001F36
:102D500021F0010140E80012002AF5D1206814306A
:102D600050E8001F21F0400140E80012002AF5D190
:102D700084F84230256320680C3050E8001F21F0B1
:102D8000100140E80012002AF5D1E06BFEF7A3FB2A
:102D90006663A08DE18D401A81B22AE0A08DE18D9D
:102DA000401A81B2E08D0028A6D00029A4D0226864
:102DB0000C3252E8000F20F4907042E80007002F18
:102DC000F5D12068143050E8002F22F0010240E8CD
:102DD0000027002FF5D184F84230256320680C309D
:102DE00050E8002F22F0100240E80023002BF5D11C
:102DF00066632046FFF708FFF8BDFFE705062BD501
:102E0000150629D594F841002128F5D1A068B0F520
:102E1000805F01D12069B0B1206A411C2162216824
:102E200000784860E08C401E0004000CE084E3D190
:102E30002068C16821F08001C1602068C16841F04C
:102E40004001C160D8E7206A0088C0F308004860EC
:102E5000206A801C2062E5E74006CDD55006CBD520
:102E6000CA68204622F04002CA6084F8413000F06F
:102E70001FF9C1E7FB3B000870B5040004D094F8CB
:102E80004100002510B106E0012070BD84F84050DB
:102E9000204600F023F8242084F841002068C1680F
:102EA00021F40051C160204600F0BCFF2068016998
:102EB00021F4904101612068416921F02A014161BA
:102EC0002068C16841F40051C1606564202084F825
:102ED000410084F842006563002070BD70B586B083
:102EE0000025064600950195029503950068224944
:102EF00088423FD12149886940F4804088618869CF
:102F000000F480400490886940F00400886188697A
:102F10001B4C00F004000490481500900220019022
:102F20000320039069462046FEF702FD2015CDE9F7
:102F30000005694620460295FEF7FAFC124C11483E
:102F4000C4E900058020C4E9025020202561C4E9BD
:102F500005502046E561FEF7D7FB08B1FDF77DFD82
:102F6000F4630022114625206662FFF7F3F825205E
:102F7000FFF7E2F806B070BD0038014000100240D3
:102F800000080140580002408402002090F84230BE
:102F9000202B01D00220704721B11AB10023036316
:102FA00000F09CBF0120704710B5084A01689142AB
:102FB0000BD1074C074B21784A421944D2B24FF04B
:102FC000FF3300F025F80020207010BD00380140CC
:102FD000010000203C01002070B50A4A01689142BE
:102FE0000ED1094C4FF0FF332178C1F18002D5B2E8
:102FF000064A11442A4600F00BF820782844207035
:1030000070BD000000380140010000203C0100209C
:103010002DE9F843044690F84100984616460D46BF
:10302000202802D00220BDE8F88385B17EB10020BF
:103030006064212084F84100FEF770FDA68481467B
:10304000E684A0682027B0F5805F02D003E001206D
:10305000E9E7206910B12E4600250EE000260CE0BD
:103060008021204600F082FFA8B9C6B116F8010BF6
:1030700021684860E08C401EE084E08C4B464FF0B5
:103080000002CDF800800028EAD14FF04001204630
:1030900000F06CFF40B184F841700320C3E735F8BD
:1030A000020BC0F30800E3E784F841700020BAE7A0
:1030B0007047FEE701684A69D24352050FD46FF4A6
:1030C00080624A61002140F8301F202242738173E0
:1030D000026942F00402026101730120704700207E
:1030E000704700002DE9F84F0446C06A1E4693461B
:1030F0000D4621680A6842F480620A60082807D0F9
:10310000012805D010F5803F02D0206B112804D192
:103110002068016841F4807101604FF001195B463D
:10312000002249462046009600F0CCF84FF4007883
:1031300040B120680068C00501D5C4F84080032074
:10314000BDE8F88F2069DFF884A0B0F5804F0FD07C
:103150000620216800EAD51747F0F00008613346E1
:103160005A460AF10601204600F0F4F858BB03E085
:10317000E8B240F001001CE02168E8B20861334683
:103180005A465146204600F0E5F8E0B9206841690A
:1031900081690091016841F4807101605B46002201
:1031A00049462046009600F08DF80028C1D147F02E
:1031B000F1002168086133465A465146204600F026
:1031C000C9F80028BCD00120BAE7000002000100C5
:1031D000F8B50446C06A1E460D461746082807D0B3
:1031E000012805D010F5803F02D0206B122804D1B1
:1031F0002068016841F480710160134600224FF09D
:1032000001112046009600F05DF840B1206800688A
:10321000C00502D54FF4007020640320F8BD20697A
:10322000B0F5804F0ED00620216800EAD51040F09E
:10323000F000086133463A460B49204600F08AF810
:1032400078B902E005F0FE0000E0E8B2216808610C
:10325000054933463A46891F204600F07BF800288E
:10326000DCD00120F8BD00000800010070B5164652
:103270000D4604461EE02046FFF71CFF08B1012062
:1032800070BD681C16D0FEF749FC801BA84200D810
:1032900085B920684069C04340070BD5002044F839
:1032A000300F20216173A073216941F02001216159
:1032B0002073E4E720684069C0434007DBD4002066
:1032C00070BD00002DE9F047984617460D460446AC
:1032D000C1F30746DDF820902AE000BFB8F1FF3FB8
:1032E00026D0FEF71BFCA0EB0901414502D8B8F13E
:1032F000000F1DD12068012E16D0806925EA00003C
:103300000004000C12D00020B84211D1002044F873
:10331000300F20216173A073216941F020012161E8
:1033200020730120BDE8F0874069E7E70120EBE763
:103330002068012E0AD0806925EA00000004000CF4
:1033400006D00020B842C9D00020EBE74069F3E77F
:103350000120F7E72DE9F047984616460D4604464A
:103360004FF000094FF0200AC1F3074723E020681F
:103370004069C043400515D42068016841F40071DC
:10338000016021686FF480604861C4F8309084F86F
:103390003DA084F83E90216C41F00401216484F842
:1033A0003C9021E0701C06D0FEF7B8FBA0EB0800B3
:1033B000B04203D816B1012F1FD021E02068012FA1
:1033C00015D0806925EA00000004000C18D000BF69
:1033D00044F8309F84F80DA084F80E90216941F0E4
:1033E0002001216184F80C900120BDE8F08740693C
:1033F00025EA00000004000CEAD12068406901E0E1
:103400002068806925EA00000004000CAFD1ECE7D9
:103410002DE9F041002590460E460446202728E07D
:103420004069C043C0060CD454F8301B6FF0100044
:10343000486144F810596777A577206A206225779C
:1034400014E0FEF76BFBA0EB0800B04200D886B991
:1034500020684069C04340060BD544F8305F67736D
:10346000A573206940F02000206125730120BDE88C
:10347000F08120684169C9434906D1D40020F6E7AC
:1034800070B516460D4604461EE02046FFF712FEB4
:1034900008B1012070BD681C16D0FEF73FFB801BF1
:1034A000A84200D885B920684069C04300060BD502
:1034B000002044F8300F20216173A073216941F08E
:1034C000200121612073E4E720684069C0430006C1
:1034D000DBD4002070BD00007CB500258DF80450C1
:1034E00047208DF80500FF248DF80640032301AA2C
:1034F00082210B480094FEF703FD0520FEF76AF9D0
:1035000005208DF8040014208DF805008DF8065074
:10351000032301AA822102480094FEF7F1FC7CBD3E
:103520007C0000200A4B012808D002280ED1C001DF
:10353000012906D0002909D1012203E04FF40070CF
:10354000F6E7002201461846FEF7E2BA704700008F
:10355000000C01403EB50021124800910191104A33
:103560000291026081600173017501244FF46022B1
:103570000461C2614160FDF75DFB08B1FDF76DFAC2
:1035800007200094CDE9014069460648FDF7D4FACA
:1035900008B1FDF762FA0348FDF762FA3EBD00008C
:1035A00000240140240000200F4810B50D4901609F
:1035B0000821416000214FF4A0228160C0E903127C
:1035C0004FF480124261017641768176C1760177AF
:1035D0004177FDF753FE002803D0BDE81040FDF70A
:1035E0003CBA10BD0064004054000020094808B5F2
:1035F000416941F0010141614069002200F0010090
:10360000009011460F20FEF7A5FDBDE808400F20F1
:10361000FEF792BD001002402DE9F04385B0002571
:1036200040480095019502950395816941F010018C
:103630008161816901F010010491816941F02001EB
:103640008161816901F020010491816941F00401E7
:103650008161816901F004010491816941F00801EF
:1036600081618069304F00F008004FF400540490ED
:10367000002221463846FEF74BFADFF8B0900122CF
:1036800010214846FEF744FADFF8A4800022022108
:103690004046FEF73DFA01224FF440714046FEF7E6
:1036A00037FA009401AA0124022682E870006946D4
:1036B0003846FEF73DF910208DE8310003200390D5
:1036C00069464846FEF734F940F202308DE8710051
:1036D00069464046FEF72CF9164D4FF22000CDE921
:1036E0000005694602944046FEF722F92002CDE922
:1036F0000005694602944846FEF71AF90022114671
:103700001720FEF727FD1720FEF716FD00221146B1
:103710002820FEF71FFD2820FEF70EFD05B0BDE8AE
:10372000F08300000010024000100140000801403A
:10373000000C0140000021100D4810B50B4901603C
:103740000C49416000214FF480428160C0E90312BE
:1037500041618161C1610162FEF7E6F9002803D091
:10376000BDE81040FDF779B910BD000000540040DD
:103770007C000020A086010030B58DB000200C90A8
:103780000B902A48284901604FF0FF3141604FF407
:1037900080718160FFF75AF808B1FDF75EF90121E9
:1037A0002248FFF743F845F25105A84239D01020CE
:1037B0008DF8300020208DF8310030208DF8320057
:1037C00001220CA91948FFF707F908B1FDF745F9DF
:1037D00004248DF82C4009208DF82D008DF82E4002
:1037E00025208DF82F0001220BA91048FFF792F831
:1037F00008B1FDF732F97D2005900820CDE903409E
:103800000B20029001900A2000906846FCF79CFC77
:103810000146064800F05EF92A4601210348FFF7F9
:103820000DF80DB030BD000000280040D000002091
:10383000104810B50E4901604FF4827141600021BB
:103840008160C1604FF400720161C0E9051230224D
:10385000C0E90721416281620A21C162FFF72FF9A5
:10386000002803D0BDE81040FDF7F7B810BD0000F8
:1038700000300140E40000200C4810B50A49016006
:103880004FF4E1314160002181600C22C160C0E948
:1038900004128161C161FFF7EFFA002803D0BDE88F
:1038A0001040FDF7DAB810BD003801403C0200209E
:1038B000FEE7FEE7002000F001B8000070B5064604
:1038C0005FF0000404F1B000C0B200F0C5FB0020BE
:1038D00000F0C2FB102000F0BFFB0025304600F0D6
:1038E000CDFB6D1CEDB2802DF8D3641CE4B2082C26
:1038F000E8D370BD10B50120FDF76CFFAE2000F0DD
:10390000ABFB202000F0A8FB102000F0A5FBB020AE
:1039100000F0A2FBC82000F09FFB002000F09CFB01
:10392000102000F099FB402000F096FB812000F071
:1039300093FBFF2000F090FBA12000F08DFBA62060
:1039400000F08AFBA82000F087FB3F2000F084FBFA
:10395000A42000F081FBD32000F07EFB002000F0CB
:103960007BFBD52000F078FBF02000F075FBD92020
:1039700000F072FB222000F06FFBDA2000F06CFBFD
:10398000122000F069FBDB2000F066FB202000F035
:1039900063FB8D2000F060FB142000F05DFBBDE8B0
:1039A0001040AF2000F058BB7047010901EB8101C6
:1039B00000F00F0000EB4100C0B2704770B5044644
:1039C000FEF7ACF805464FF47A7606E0FEF7A6F867
:1039D000401BB04201D9032070BD206840688006BA
:1039E000F4D52068416841F010014160002070BDAD
:1039F00070B504460068416821F010014160FEF78F
:103A00008DF805464FF47A7607E000BFFEF786F89A
:103A1000401BB04201D9032070BD20684068800679
:103A2000F4D5002070BD0168086A496A89B241EA8C
:103A300000407047006881698AB2C1698BB28169B0
:103A400089B28A4203D0C06961F31F40704743EADC
:103A500002407047F0B56424C1EBC1030927A500FB
:103A6000072603EB01130329B3FBF7F100F5FA6016
:103A7000114401440AD2401EB0FBF4F201EB900164
:103A8000B0FBF5F0891A0844001D08E0B0FBF4F221
:103A900001EB9001B0FBF5F0891A0844801CB0FBE3
:103AA000F6F106FB1100C0B2F0BD70B50D4606463A
:103AB0000024FFF783FF48B93168280C0862316899
:103AC000A8B248623046FFF793FF00B101242046B8
:103AD00070BD00002DE9F0410F4604460025FEF7B9
:103AE0001DF806464FF47A7805E000BFFEF716F899
:103AF000801B40451DD8206840688006F6D52068A8
:103B0000416841F0100141602168380C88612168EA
:103B1000B8B2C8612068416821F010014160FDF72A
:103B2000FDFF0646474606E0FDF7F8FF801BB8425A
:103B300001D9012503E0206840688006F4D52846B5
:103B4000BDE8F08170B50D4606460024FFF736FF4C
:103B500048B93168280C88613168A8B2C86130461C
:103B6000FFF746FF00B10124204670BD7047FEF705
:103B70008BBA30B593B028216846FCF740FB14217E
:103B80000AA8FCF73CFB002401210F9411940520A6
:103B900012940090CDE9024110944FF480300190CE
:103BA00002250491CDE907504FF4E01009906846D2
:103BB000FEF7ACFC08B172B6FEE70F20CDE90A05AE
:103BC0004FF48060CDE90C4002210AA80E94FEF764
:103BD000C1FB08B172B6FEE703200F904FF480706E
:103BE0001090C00111900FA8FEF73EFB002801D0F5
:103BF00072B6FEE713B030BD704710B5406A0021C1
:103C0000C185C184FFF701F810BD70B5446A206812
:103C1000406994F84110C0F3C0100025212904D157
:103C200018B1E584204600F08EF82068406994F8C9
:103C30004210C0F38010222904D118B1E585204636
:103C400000F05AF8606C40F0100060642046FEF707
:103C5000DCFF70BD10B50146406A096809684FF085
:103C6000000289062ED4C28501680C3151E8003F5C
:103C700023F4807341E80034002CF5D1016814313D
:103C800051E8003F23F0010341E80034002CF5D156
:103C90000168143151E8003F23F0400341E800344B
:103CA000002CF5D1202180F84210016B012909D1A7
:103CB00001680C3151E8003F23F0100341E8003463
:103CC000002CF5D14263016B012902D0FFF76CF99A
:103CD00010BD818DFEF798FF10BD10B5406A01211F
:103CE0004163016B012902D0FFF776F910BD818D88
:103CF0004908FEF789FF10BD01680C3151E8002F1B
:103D000022F4907241E80023002BF5D101681431B0
:103D100051E8002F22F0010241E80023002BF5D1E9
:103D2000016B012909D101680C3151E8002F22F003
:103D3000100241E80023002BF5D1202180F8421029
:103D400000210163704701680C3151E8002F22F017
:103D5000C00241E80023002BF5D1202180F841105A
:103D6000704708B590F84210222901D0022008BD02
:103D700082684FF480539A4201D1016921B1816A6E
:103D80009A421BD04AB10AE00268816A5268C2F3C3
:103D900008020A80816A891C08E0026972B102681F
:103DA000526802F07F020A70816A491C8162C18DEB
:103DB000491E0904090CC18503D01BE00268526842
:103DC000F1E70168CA6822F02002CA600168CA6887
:103DD00022F48072CA6001684A6922F001024A61D5
:103DE000202180F8421000214163026B012A03D098
:103DF000FFF7DAF8002008BD016301680C3151E8D3
:103E0000002F22F0100241E80023002BF5D10168B9
:103E10000A68D20602D50A6849680091818DFEF7CA
:103E2000F3FEE7E770B5044600680169E26821F433
:103E30004051114301612169A06808436169084349
:103E40002168CA6841F20C639A430243CA60206841
:103E50004169A26921F44071114341611E49206802
:103E6000884202D1FEF71CFB01E0FEF709FB00EBE4
:103E7000C00101EB0012606864218000B2FBF0F326
:103E8000B3FBF1F36FF018067343B2FBF0F5B2FB2E
:103E9000F0F605EB8305322303EB0515B5FBF1F5D1
:103EA000B6FBF1F605F0F00505EB0615B2FBF0F6F2
:103EB000B2FBF0F0B0FBF1F06FF01802504306EBEC
:103EC000800003EB0010B0FBF1F0216800F00F0060
:103ED0002844886070BD00000038014038B5816218
:103EE00004468285002013466064222284F8422022
:103EF000E56B1B4AAA62E56B1A4AEA62E56B1A4A4D
:103F00002A63E26B50630A462168E06B091DFDF7E6
:103F100029FC2068016840680090206948B1206849
:103F20000C3050E8001F41F4807140E80012002A74
:103F3000F5D12068143050E8001F41F0010140E83D
:103F40000012002AF5D12068143050E8001F41F01B
:103F5000400140E80012002AF5D1002038BD0000E1
:103F6000553C0008DB3C00080B3C00082DE9F843F9
:103F7000984617460D460446089E24E0701C22D041
:103F8000FDF7CCFDA0EB0800B0421AD8CEB12068F6
:103F9000C168490717D5802D15D0402D13D0016871
:103FA000C94309070FD401680025406800902046E6
:103FB000FFF7A2FE0820606484F840500120BDE8AD
:103FC000F8830320FBE72068006835EA000004D08E
:103FD0000020B842D2D00020F1E70120F9E700002C
:103FE00010B50448FEF712FEBDE81040014800F08D
:103FF00009B800003C0200200148FDF741B800006C
:104000005400002038B50F4A0168914218D10A685F
:10401000D243D20614D40A68496800910A49096853
:1040200049680A4C4A424FF0FF332178521AD5B200
:10403000074A11442A46FEF7EBFF207828442070F7
:1040400038BD00000038014084020020010000203B
:104050003C010020FEE700001CB500218DF8041093
:104060008DF805004FF47A700090022301AA7821A0
:104070000148FDF745FF1CBD7C0000201CB5402118
:104080008DF804108DF805004FF47A70009002232B
:1040900001AA78210148FDF733FF1CBD7C000020F8
:1040A0000FB4054B10B503A9044A029800F0EAF8D2
:1040B00010BC5DF814FB00008D49000820000020B2
:1040C0000907090E002804DB00F1E02080F8001445
:1040D000704700F00F0000F1E02080F8141D7047D9
:1040E00002E008C8121F08C1002AFAD170477047C1
:1040F000002001E001C1121F002AFBD1704700001F
:104100002DE9FF5F82B00021DDE90430020DDDF80A
:1041100040B0034318D044F61050A2F2FF3242439D
:104120001514119801281FD0A5EB0B00401C5FEA65
:10413000000A4FF000064E4FDFF83891B046504667
:1041400015D5CAF1000413E0119801244AA30128EF
:1041500001D16FEA0B010298119AC0E90031C0E960
:10416000024206B0BDE8F09FCBF10000DFE7044655
:104170000021404A491842EB0450CDE9001012E0FA
:10418000E00707D032463B4640464946FCF7E9F88F
:104190008046894632463B4610461946FCF7E1F810
:1041A00006460F466410002CEAD1DDE90401DDE982
:1041B0000023BAF1000F06DAFCF7D3F842464B466B
:1041C000FCF7CFF805E0FCF73EF942464B46FCF71A
:1041D0003AF904460E460022284BFCF7C7FA03D8EA
:1041E0004FF0FF30014607E00022254B20463146C4
:1041F000FCF710F8FCF7A1FA102409E0002C0ADB08
:104200000A220023FCF7A4F9039B30321A55641EDE
:1042100050EA0102F2D1641C039AC4F11103144460
:10422000119A012A03D0012208430DD10AE0084364
:1042300004D000204FF0110B119072E7A3EB0B0597
:104240006D1E0DE05B4504DD4FF0000205F1010538
:1042500004E003DA4FF00002A5F10105002AECD0DA
:1042600002981199C0E90231C0E9004579E70000E0
:10427000000014400000F03F300000000000F04358
:104280000000E03F2DE9FF4F95B09A46884606466C
:104290000025EEE1252877D100242746F94A01219F
:1042A000039400E0044316F8013F203B01FA03F0B9
:1042B0001042F7D130782A2811D06FF02F033078D0
:1042C000A0F13002092A16D8039A44F0020402EB46
:1042D000820203EB42021044761C0390EFE758F889
:1042E000042B0392002A03DA504244F40054039052
:1042F00044F00204761C30782E2816D116F8010FEF
:1043000044F004042A280DD06FF02F023078A0F179
:104310003003092B09D807EB870302EB4303C718C7
:10432000761CF3E758F8047B761C30786C280FD0A5
:1043300006DC4C2817D068280DD06A2814D104E078
:10434000742810D07A280FD10DE044F400140AE04C
:1043500044F4801401E044F440147278824202D1A3
:1043600004F58014761C761C307866280BD013DC9C
:10437000582877D009DC002875D04528F6D0462883
:10438000F4D047281AD193E118E0632835D0642887
:1043900079D0652812D18BE1702873D008DC6728AA
:1043A000F1D069286FD06E280DD06F2806D1ACE00F
:1043B00073282CD0752874D0782853D0524617997A
:1043C00090476D1C54E1C4F30250022809D0032821
:1043D0000DD0D8F8001004280DD00D6008F10408A5
:1043E00046E1D8F80010EA17C1E90052F6E7D8F81C
:1043F00000100D80F2E70D70F0E718F8041B8DF83F
:10440000001000208DF80100EB46012003E058F871
:1044100004BB4FF0FF3061074FF0000102D40DE004
:1044200009F101018946B9420FDA8145F8DB1BF831
:1044300009100029F4D108E009F1010189468142FF
:10444000FADB1BF809100029F6D103985346A0EBBC
:10445000090721463846179A00F080FA284400EBF5
:10446000090507E044E008E10DE01BF8010B5246A6
:1044700017999047B9F10109F7D2534621463846BA
:10448000179AF2E039E00A21C4F302524FF0000B10
:104490000091022A06D058F8040BC117032A09D04C
:1044A0000AE023E008F1070020F00702F2E8020129
:1044B000904605E000B2C117042A01D140B2C117ED
:1044C000002906DA0A460021404261EB02012D2252
:1044D00002E0220504D52B228DF80420012203E0FE
:1044E000E20701D02022F7E7914657E00A2100E0D9
:1044F00010214FF0000B00910BE010214FF0000B4A
:1045000044F004040827009103E008204FF0000B5A
:104510000090C4F30252022A05D058F8040B00217F
:10452000032A08D008E008F1070020F00702F2E8AB
:104530000201904603E080B2042A00D1C0B24FF0DD
:10454000000922072AD53278702A07D0DDF800C08A
:104550008CF0100C5CEA0B0C05D00EE040228DF8BC
:104560000420012208E050EA010306D030238DF830
:1045700004308DF8052002229146009B83F0080349
:1045800053EA0B030AD150EA010201D1620705D5B3
:1045900030228DF804204FF001097F1E3278582A0E
:1045A00004D039A20C920CAA02920BE03BA2F9E7CC
:1045B0005B46009AFBF7CCFF0C9B9B5C029A521E59
:1045C0000292137050EA0102F2D1029804A9081A6B
:1045D00000F1200B600702D524F4803400E00127AD
:1045E0005F4502DDA7EB0B0000E0002000EB0B01B4
:1045F000009003984944401A0390E00306D45346C0
:104600002146179A039800F0A9F90544002706E00F
:1046100001A85246C05D179990476D1C7F1C4F45FD
:10462000F6DBE0030CD553462146179A039800F0B9
:1046300095F9054404E030205246179990476D1CC7
:104640000099481E00900029F5DC08E002980299C4
:1046500052460078491C0291179990476D1CBBF196
:104660000001ABF1010BF1DC5BE100F065F9054401
:10467000761C307800287FF40DAE19B02846BDE8CE
:10468000F08F0000092801003031323334353637DD
:10469000383961626364656600000000303132338E
:1046A000343536373839414243444546000000002E
:1046B000600700D4062708F1070020F00700F0E8A3
:1046C0000223804603F0004C5FEA0C0001D097A063
:1046D00009E0200501D596A005E0E00701D095A0EE
:1046E00001E0AFF24C001390307823F000436528CE
:1046F0000CD006DC452809D046281DD047287FD19C
:104700003BE0662818D067287AD136E00021112FC7
:1047100001DB112000E0781CCDE9000104A90CA800
:10472000FFF7EEFCDDE90D010C9A4FF0000B07F1ED
:104730000109109200914EE04FF000400097CDE942
:10474000011004A90CA8FFF7DBFCDDE90D020C9BAE
:104750000F994FF0000B91461093009211B9791CFC
:1047600000EB0109B7EB090003D4C0F1FF3B07F1EF
:104770000109A9EB0700019042E0012F00DA0127AF
:104780000021112F01DD112000E03846CDE90001A4
:1047900004A90CA8FFF7B4FCDDE90D010C9A009107
:1047A0004FF0000BB946109221070FD4009A4A45EA
:1047B00003DA914601E0A9F10109B9F1010F05DD24
:1047C000109AA9F10101515C3029F4D0B84202DA03
:1047D00010F1040F03DA0121CDE9011010E00028E7
:1047E00003DC8344A9EB000102E0411C494500DDE4
:1047F0008946A0EB0B00401C01904FF00040029056
:10480000200705D40198484502DB4FF0FF300190A6
:1048100000208DF84B0002980DF14B07B0F1004FCE
:1048200025D002200C902B200D90029800280CDA45
:10483000404202902D200D9007E00A210298FBF7DC
:1048400071FE3031029007F8011D0C99481E0C9042
:104850000029F2DC02980028EFD1791E0D9808702B
:10486000307800F0200040F0450007F8020D11A854
:10487000C01BC01D02901398007800B1012000EB0E
:104880000901019801EBE071029801440398401A74
:10489000401E0390E00306D453462146179A03981E
:1048A00000F05CF805441398007818B15246179947
:1048B00090476D1CE00323D553462146179A039871
:1048C00000F04CF805441BE0BBF1000F07DB00983B
:1048D000584504DD1098179910F80B0001E017995E
:1048E00030205246904701980BF1010B401E05F114
:1048F0000105019004D12E205246179990476D1C56
:10490000B9F10001A9F10109DEDC05E017F8010B9E
:104910005246179990476D1C0299481E0290002933
:10492000F4DC53462146179A03989EE62D000000BA
:104930002B000000200000002DE9F0410446002576
:104940001E461746880404D405E039462020B047A7
:104950006D1C641EF9D52846BDE8F0812DE9F041B3
:10496000044600251E469046C80301D5302700E0C6
:104970002027880404D505E041463846B0476D1C21
:10498000641EF9D52846BDE8F081000013B54FF04C
:10499000FF33012269460248FEF73AFB00981CBD2E
:1049A0003C020020FDF778FBFFF7E3F8FEF734FE4A
:1049B000FEF71CFEFEF760FFFEF7BEFEFEF7DCFE14
:1049C000FEF7C8FDFEF734FFFEF7EEFD10A0FFF77F
:1049D00067FB14A0FFF764FB15480068C16841F04D
:1049E0001001C1604FF4807212491148FEF7CEFAEF
:1049F000FEF780FFFEF75EFFFBF762FFFEF76CFD40
:104A0000FBF7A0FFFBF7B8FFFBF7CAFFFCE70000CE
:104A1000556172743120696E6974206973206F6BFF
:104A20000A00000043414E20546573740A000000E0
:104A30003C0200203C01002001020203040506079D
:104A400008090A0B0C0D0E0F1010010202030405D9
:104A5000060708090A0B0C0D0E0F101000000000CD
:104A6000000000000102030406070809000000001E
:104A7000010203041F1C1F1E1F1E1F1F1E1F1E1FBF
:104A80001F1D1F1E1F1E1F1F1E1F1E1FAC4A0008BA
:104A90000000002024000000E0400008D04A000888
:104AA00024000020C4060000F040000800000000C0
:104AB00000000000000000000000000001000000F5
:104AC000100000000000000000127A00000000004A
:04000005080000ED02
:00000001FF
